{
  "contractName": "LandSale",
  "abi": [
    {
      "anonymous": false,
      "inputs": [
        {
          "indexed": true,
          "internalType": "address",
          "name": "owner",
          "type": "address"
        },
        {
          "indexed": true,
          "internalType": "address",
          "name": "approved",
          "type": "address"
        },
        {
          "indexed": true,
          "internalType": "uint256",
          "name": "tokenId",
          "type": "uint256"
        }
      ],
      "name": "Approval",
      "type": "event"
    },
    {
      "anonymous": false,
      "inputs": [
        {
          "indexed": true,
          "internalType": "address",
          "name": "owner",
          "type": "address"
        },
        {
          "indexed": true,
          "internalType": "address",
          "name": "operator",
          "type": "address"
        },
        {
          "indexed": false,
          "internalType": "bool",
          "name": "approved",
          "type": "bool"
        }
      ],
      "name": "ApprovalForAll",
      "type": "event"
    },
    {
      "anonymous": false,
      "inputs": [
        {
          "indexed": true,
          "internalType": "uint256",
          "name": "landID",
          "type": "uint256"
        },
        {
          "indexed": false,
          "internalType": "address",
          "name": "highestBidder",
          "type": "address"
        },
        {
          "indexed": false,
          "internalType": "uint256",
          "name": "highestBid",
          "type": "uint256"
        }
      ],
      "name": "BidEvent",
      "type": "event"
    },
    {
      "anonymous": false,
      "inputs": [
        {
          "indexed": true,
          "internalType": "address",
          "name": "previousOwner",
          "type": "address"
        },
        {
          "indexed": true,
          "internalType": "address",
          "name": "newOwner",
          "type": "address"
        }
      ],
      "name": "OwnershipTransferred",
      "type": "event"
    },
    {
      "anonymous": false,
      "inputs": [
        {
          "indexed": true,
          "internalType": "address",
          "name": "from",
          "type": "address"
        },
        {
          "indexed": true,
          "internalType": "address",
          "name": "to",
          "type": "address"
        },
        {
          "indexed": true,
          "internalType": "uint256",
          "name": "tokenId",
          "type": "uint256"
        }
      ],
      "name": "Transfer",
      "type": "event"
    },
    {
      "stateMutability": "nonpayable",
      "type": "fallback"
    },
    {
      "inputs": [
        {
          "internalType": "address",
          "name": "to",
          "type": "address"
        },
        {
          "internalType": "uint256",
          "name": "tokenId",
          "type": "uint256"
        }
      ],
      "name": "approve",
      "outputs": [],
      "stateMutability": "nonpayable",
      "type": "function"
    },
    {
      "inputs": [
        {
          "internalType": "address",
          "name": "owner",
          "type": "address"
        }
      ],
      "name": "balanceOf",
      "outputs": [
        {
          "internalType": "uint256",
          "name": "",
          "type": "uint256"
        }
      ],
      "stateMutability": "view",
      "type": "function",
      "constant": true
    },
    {
      "inputs": [
        {
          "internalType": "uint256",
          "name": "tokenId",
          "type": "uint256"
        }
      ],
      "name": "getApproved",
      "outputs": [
        {
          "internalType": "address",
          "name": "",
          "type": "address"
        }
      ],
      "stateMutability": "view",
      "type": "function",
      "constant": true
    },
    {
      "inputs": [
        {
          "internalType": "uint256",
          "name": "landID",
          "type": "uint256"
        }
      ],
      "name": "getLandDetails",
      "outputs": [
        {
          "components": [
            {
              "internalType": "uint256",
              "name": "surveyNo",
              "type": "uint256"
            },
            {
              "internalType": "string",
              "name": "district",
              "type": "string"
            },
            {
              "internalType": "string",
              "name": "taluk",
              "type": "string"
            },
            {
              "internalType": "string",
              "name": "village",
              "type": "string"
            },
            {
              "internalType": "uint256",
              "name": "blockNo",
              "type": "uint256"
            },
            {
              "internalType": "uint256",
              "name": "landValue",
              "type": "uint256"
            },
            {
              "internalType": "uint256",
              "name": "area",
              "type": "uint256"
            },
            {
              "internalType": "bool",
              "name": "salesStatus",
              "type": "bool"
            },
            {
              "internalType": "bytes",
              "name": "documentHash",
              "type": "bytes"
            },
            {
              "internalType": "uint256",
              "name": "expiry",
              "type": "uint256"
            },
            {
              "internalType": "string",
              "name": "bidType",
              "type": "string"
            },
            {
              "internalType": "bool",
              "name": "expired",
              "type": "bool"
            }
          ],
          "internalType": "struct LandRegistration.LandDetail",
          "name": "",
          "type": "tuple"
        }
      ],
      "stateMutability": "view",
      "type": "function",
      "constant": true
    },
    {
      "inputs": [
        {
          "internalType": "address",
          "name": "owner",
          "type": "address"
        },
        {
          "internalType": "address",
          "name": "operator",
          "type": "address"
        }
      ],
      "name": "isApprovedForAll",
      "outputs": [
        {
          "internalType": "bool",
          "name": "",
          "type": "bool"
        }
      ],
      "stateMutability": "view",
      "type": "function",
      "constant": true
    },
    {
      "inputs": [],
      "name": "name",
      "outputs": [
        {
          "internalType": "string",
          "name": "",
          "type": "string"
        }
      ],
      "stateMutability": "view",
      "type": "function",
      "constant": true
    },
    {
      "inputs": [],
      "name": "owner",
      "outputs": [
        {
          "internalType": "address",
          "name": "",
          "type": "address"
        }
      ],
      "stateMutability": "view",
      "type": "function",
      "constant": true
    },
    {
      "inputs": [
        {
          "internalType": "uint256",
          "name": "tokenId",
          "type": "uint256"
        }
      ],
      "name": "ownerOf",
      "outputs": [
        {
          "internalType": "address",
          "name": "",
          "type": "address"
        }
      ],
      "stateMutability": "view",
      "type": "function",
      "constant": true
    },
    {
      "inputs": [
        {
          "internalType": "uint256",
          "name": "surveyNo",
          "type": "uint256"
        },
        {
          "internalType": "string",
          "name": "district",
          "type": "string"
        },
        {
          "internalType": "string",
          "name": "taluk",
          "type": "string"
        },
        {
          "internalType": "string",
          "name": "village",
          "type": "string"
        },
        {
          "internalType": "uint256",
          "name": "blockNo",
          "type": "uint256"
        },
        {
          "internalType": "uint256",
          "name": "landValue",
          "type": "uint256"
        },
        {
          "internalType": "uint256",
          "name": "area",
          "type": "uint256"
        },
        {
          "internalType": "bytes",
          "name": "documentHash",
          "type": "bytes"
        },
        {
          "internalType": "uint256",
          "name": "expiry",
          "type": "uint256"
        },
        {
          "internalType": "string",
          "name": "bidType",
          "type": "string"
        }
      ],
      "name": "registerNewLand",
      "outputs": [
        {
          "internalType": "uint256",
          "name": "",
          "type": "uint256"
        }
      ],
      "stateMutability": "nonpayable",
      "type": "function"
    },
    {
      "inputs": [],
      "name": "registeredLandCount",
      "outputs": [
        {
          "internalType": "uint256",
          "name": "",
          "type": "uint256"
        }
      ],
      "stateMutability": "view",
      "type": "function",
      "constant": true
    },
    {
      "inputs": [],
      "name": "renounceOwnership",
      "outputs": [],
      "stateMutability": "nonpayable",
      "type": "function"
    },
    {
      "inputs": [
        {
          "internalType": "address",
          "name": "from",
          "type": "address"
        },
        {
          "internalType": "address",
          "name": "to",
          "type": "address"
        },
        {
          "internalType": "uint256",
          "name": "tokenId",
          "type": "uint256"
        }
      ],
      "name": "safeTransferFrom",
      "outputs": [],
      "stateMutability": "nonpayable",
      "type": "function"
    },
    {
      "inputs": [
        {
          "internalType": "address",
          "name": "from",
          "type": "address"
        },
        {
          "internalType": "address",
          "name": "to",
          "type": "address"
        },
        {
          "internalType": "uint256",
          "name": "tokenId",
          "type": "uint256"
        },
        {
          "internalType": "bytes",
          "name": "_data",
          "type": "bytes"
        }
      ],
      "name": "safeTransferFrom",
      "outputs": [],
      "stateMutability": "nonpayable",
      "type": "function"
    },
    {
      "inputs": [
        {
          "internalType": "address",
          "name": "operator",
          "type": "address"
        },
        {
          "internalType": "bool",
          "name": "approved",
          "type": "bool"
        }
      ],
      "name": "setApprovalForAll",
      "outputs": [],
      "stateMutability": "nonpayable",
      "type": "function"
    },
    {
      "inputs": [
        {
          "internalType": "bytes4",
          "name": "interfaceId",
          "type": "bytes4"
        }
      ],
      "name": "supportsInterface",
      "outputs": [
        {
          "internalType": "bool",
          "name": "",
          "type": "bool"
        }
      ],
      "stateMutability": "view",
      "type": "function",
      "constant": true
    },
    {
      "inputs": [],
      "name": "symbol",
      "outputs": [
        {
          "internalType": "string",
          "name": "",
          "type": "string"
        }
      ],
      "stateMutability": "view",
      "type": "function",
      "constant": true
    },
    {
      "inputs": [
        {
          "internalType": "uint256",
          "name": "tokenId",
          "type": "uint256"
        }
      ],
      "name": "tokenURI",
      "outputs": [
        {
          "internalType": "string",
          "name": "",
          "type": "string"
        }
      ],
      "stateMutability": "view",
      "type": "function",
      "constant": true
    },
    {
      "inputs": [
        {
          "internalType": "address",
          "name": "from",
          "type": "address"
        },
        {
          "internalType": "address",
          "name": "to",
          "type": "address"
        },
        {
          "internalType": "uint256",
          "name": "tokenId",
          "type": "uint256"
        }
      ],
      "name": "transferFrom",
      "outputs": [],
      "stateMutability": "nonpayable",
      "type": "function"
    },
    {
      "inputs": [
        {
          "internalType": "address",
          "name": "newOwner",
          "type": "address"
        }
      ],
      "name": "transferOwnership",
      "outputs": [],
      "stateMutability": "nonpayable",
      "type": "function"
    },
    {
      "inputs": [
        {
          "internalType": "uint256",
          "name": "landID",
          "type": "uint256"
        }
      ],
      "name": "bid",
      "outputs": [],
      "stateMutability": "payable",
      "type": "function",
      "payable": true
    },
    {
      "inputs": [
        {
          "internalType": "uint256",
          "name": "landID",
          "type": "uint256"
        }
      ],
      "name": "acceptBid",
      "outputs": [],
      "stateMutability": "nonpayable",
      "type": "function"
    },
    {
      "inputs": [
        {
          "internalType": "uint256",
          "name": "landID",
          "type": "uint256"
        }
      ],
      "name": "instantBuy",
      "outputs": [],
      "stateMutability": "payable",
      "type": "function",
      "payable": true
    },
    {
      "inputs": [
        {
          "internalType": "uint256",
          "name": "landID",
          "type": "uint256"
        }
      ],
      "name": "assetTransfer",
      "outputs": [],
      "stateMutability": "nonpayable",
      "type": "function"
    },
    {
      "inputs": [
        {
          "internalType": "uint256",
          "name": "landID",
          "type": "uint256"
        }
      ],
      "name": "approveforSale",
      "outputs": [],
      "stateMutability": "nonpayable",
      "type": "function"
    }
  ],
  "bytecode": "0x608060405260006008553480156200001657600080fd5b506040518060400160405280600481526020017f4c616e64000000000000000000000000000000000000000000000000000000008152506040518060400160405280600381526020017f4c4e44000000000000000000000000000000000000000000000000000000000081525081600090805190602001906200009b929190620001ab565b508060019080519060200190620000b4929190620001ab565b505050620000d7620000cb620000dd60201b60201c565b620000e560201b60201c565b620002c0565b600033905090565b6000600660009054906101000a900473ffffffffffffffffffffffffffffffffffffffff16905081600660006101000a81548173ffffffffffffffffffffffffffffffffffffffff021916908373ffffffffffffffffffffffffffffffffffffffff1602179055508173ffffffffffffffffffffffffffffffffffffffff168173ffffffffffffffffffffffffffffffffffffffff167f8be0079c531659141344cd1fd0a4f28419497f9722a3daafe3b4186f6b6457e060405160405180910390a35050565b828054620001b9906200025b565b90600052602060002090601f016020900481019282620001dd576000855562000229565b82601f10620001f857805160ff191683800117855562000229565b8280016001018555821562000229579182015b82811115620002285782518255916020019190600101906200020b565b5b5090506200023891906200023c565b5090565b5b80821115620002575760008160009055506001016200023d565b5090565b600060028204905060018216806200027457607f821691505b602082108114156200028b576200028a62000291565b5b50919050565b7f4e487b7100000000000000000000000000000000000000000000000000000000600052602260045260246000fd5b61429580620002d06000396000f3fe60806040526004361061014f5760003560e01c8063852a38bc116100b6578063b88d4fde1161006f578063b88d4fde14610484578063c87b56dd146104ad578063da989b05146104ea578063e985e9c514610513578063f2fde38b14610550578063fe0cb7dc1461057957610150565b8063852a38bc146103815780638da5cb5b1461039d57806395d89b41146103c8578063a22cb465146103f3578063a7613a7d1461041c578063ae42e3c61461044757610150565b80632b1fd58a116101085780632b1fd58a1461028257806342842e0e146102ab578063454a2ab3146102d45780636352211e146102f057806370a082311461032d578063715018a61461036a57610150565b806301ffc9a71461016257806306fdde031461019f578063081812fc146101ca578063095ea7b314610207578063169420ae1461023057806323b872dd1461025957610150565b5b34801561015c57600080fd5b50600080fd5b34801561016e57600080fd5b5061018960048036038101906101849190612f8c565b6105b6565b60405161019691906136e1565b60405180910390f35b3480156101ab57600080fd5b506101b4610698565b6040516101c191906136fc565b60405180910390f35b3480156101d657600080fd5b506101f160048036038101906101ec9190612fde565b61072a565b6040516101fe9190613651565b60405180910390f35b34801561021357600080fd5b5061022e60048036038101906102299190612f50565b6107af565b005b34801561023c57600080fd5b5061025760048036038101906102529190612fde565b6108c7565b005b34801561026557600080fd5b50610280600480360381019061027b9190612e4a565b610982565b005b34801561028e57600080fd5b506102a960048036038101906102a49190612fde565b6109e2565b005b3480156102b757600080fd5b506102d260048036038101906102cd9190612e4a565b610d5c565b005b6102ee60048036038101906102e99190612fde565b610d7c565b005b3480156102fc57600080fd5b5061031760048036038101906103129190612fde565b61106a565b6040516103249190613651565b60405180910390f35b34801561033957600080fd5b50610354600480360381019061034f9190612de5565b61111c565b6040516103619190613960565b60405180910390f35b34801561037657600080fd5b5061037f6111d4565b005b61039b60048036038101906103969190612fde565b61125c565b005b3480156103a957600080fd5b506103b26114c3565b6040516103bf9190613651565b60405180910390f35b3480156103d457600080fd5b506103dd6114ed565b6040516103ea91906136fc565b60405180910390f35b3480156103ff57600080fd5b5061041a60048036038101906104159190612f14565b61157f565b005b34801561042857600080fd5b50610431611595565b60405161043e9190613960565b60405180910390f35b34801561045357600080fd5b5061046e60048036038101906104699190613007565b61159b565b60405161047b9190613960565b60405180910390f35b34801561049057600080fd5b506104ab60048036038101906104a69190612e99565b61176c565b005b3480156104b957600080fd5b506104d460048036038101906104cf9190612fde565b6117ce565b6040516104e191906136fc565b60405180910390f35b3480156104f657600080fd5b50610511600480360381019061050c9190612fde565b611875565b005b34801561051f57600080fd5b5061053a60048036038101906105359190612e0e565b611955565b60405161054791906136e1565b60405180910390f35b34801561055c57600080fd5b5061057760048036038101906105729190612de5565b6119e9565b005b34801561058557600080fd5b506105a0600480360381019061059b9190612fde565b611ae1565b6040516105ad919061393e565b60405180910390f35b60007f80ac58cd000000000000000000000000000000000000000000000000000000007bffffffffffffffffffffffffffffffffffffffffffffffffffffffff1916827bffffffffffffffffffffffffffffffffffffffffffffffffffffffff1916148061068157507f5b5e139f000000000000000000000000000000000000000000000000000000007bffffffffffffffffffffffffffffffffffffffffffffffffffffffff1916827bffffffffffffffffffffffffffffffffffffffffffffffffffffffff1916145b80610691575061069082611e51565b5b9050919050565b6060600080546106a790613bd8565b80601f01602080910402602001604051908101604052809291908181526020018280546106d390613bd8565b80156107205780601f106106f557610100808354040283529160200191610720565b820191906000526020600020905b81548152906001019060200180831161070357829003601f168201915b5050505050905090565b600061073582611ebb565b610774576040517f08c379a000000000000000000000000000000000000000000000000000000000815260040161076b9061387e565b60405180910390fd5b6004600083815260200190815260200160002060009054906101000a900473ffffffffffffffffffffffffffffffffffffffff169050919050565b60006107ba8261106a565b90508073ffffffffffffffffffffffffffffffffffffffff168373ffffffffffffffffffffffffffffffffffffffff16141561082b576040517f08c379a0000000000000000000000000000000000000000000000000000000008152600401610822906138de565b60405180910390fd5b8073ffffffffffffffffffffffffffffffffffffffff1661084a611f27565b73ffffffffffffffffffffffffffffffffffffffff161480610879575061087881610873611f27565b611955565b5b6108b8576040517f08c379a00000000000000000000000000000000000000000000000000000000081526004016108af906137fe565b60405180910390fd5b6108c28383611f2f565b505050565b6109076009600083815260200190815260200160002060010160009054906101000a900473ffffffffffffffffffffffffffffffffffffffff16826107af565b6109506109138261106a565b6009600084815260200190815260200160002060010160009054906101000a900473ffffffffffffffffffffffffffffffffffffffff1683610d5c565b60016007600083815260200190815260200160002060070160006101000a81548160ff02191690831515021790555050565b61099361098d611f27565b82611fe8565b6109d2576040517f08c379a00000000000000000000000000000000000000000000000000000000081526004016109c99061391e565b60405180910390fd5b6109dd8383836120c6565b505050565b3373ffffffffffffffffffffffffffffffffffffffff166108fc60096000848152602001908152602001600020600001549081150290604051600060405180830381858888f19350505050158015610a3e573d6000803e3d6000fd5b50610a80336009600084815260200190815260200160002060010160009054906101000a900473ffffffffffffffffffffffffffffffffffffffff1683610d5c565b60005b6009600083815260200190815260200160002060030180549050811015610d29576009600083815260200190815260200160002060010160009054906101000a900473ffffffffffffffffffffffffffffffffffffffff1673ffffffffffffffffffffffffffffffffffffffff16600960008481526020019081526020016000206003018281548110610b3f577f4e487b7100000000000000000000000000000000000000000000000000000000600052603260045260246000fd5b9060005260206000200160009054906101000a900473ffffffffffffffffffffffffffffffffffffffff1673ffffffffffffffffffffffffffffffffffffffff161415610b8b57610d16565b600960008381526020019081526020016000206003018181548110610bd9577f4e487b7100000000000000000000000000000000000000000000000000000000600052603260045260246000fd5b9060005260206000200160009054906101000a900473ffffffffffffffffffffffffffffffffffffffff1673ffffffffffffffffffffffffffffffffffffffff166108fc600960008581526020019081526020016000206002016000600960008781526020019081526020016000206003018581548110610c83577f4e487b7100000000000000000000000000000000000000000000000000000000600052603260045260246000fd5b9060005260206000200160009054906101000a900473ffffffffffffffffffffffffffffffffffffffff1673ffffffffffffffffffffffffffffffffffffffff1673ffffffffffffffffffffffffffffffffffffffff168152602001908152602001600020549081150290604051600060405180830381858888f19350505050158015610d14573d6000803e3d6000fd5b505b8080610d2190613c3b565b915050610a83565b5060016007600083815260200190815260200160002060070160006101000a81548160ff02191690831515021790555050565b610d778383836040518060200160405280600081525061176c565b505050565b6009600082815260200190815260200160002060000154346009600084815260200190815260200160002060020160003373ffffffffffffffffffffffffffffffffffffffff1673ffffffffffffffffffffffffffffffffffffffff16815260200190815260200160002054610df29190613a67565b11610e32576040517f08c379a0000000000000000000000000000000000000000000000000000000008152600401610e29906138fe565b60405180910390fd5b336009600083815260200190815260200160002060010160006101000a81548173ffffffffffffffffffffffffffffffffffffffff021916908373ffffffffffffffffffffffffffffffffffffffff16021790555060096000828152602001908152602001600020600301339080600181540180825580915050600190039060005260206000200160009091909190916101000a81548173ffffffffffffffffffffffffffffffffffffffff021916908373ffffffffffffffffffffffffffffffffffffffff160217905550346009600083815260200190815260200160002060020160003373ffffffffffffffffffffffffffffffffffffffff1673ffffffffffffffffffffffffffffffffffffffff16815260200190815260200160002054610f5d9190613a67565b6009600083815260200190815260200160002060000181905550346009600083815260200190815260200160002060020160003373ffffffffffffffffffffffffffffffffffffffff1673ffffffffffffffffffffffffffffffffffffffff1681526020019081526020016000206000828254610fda9190613a67565b92505081905550807faba11c5dfdb797eb6f7328f5f70a9b390c19e34a3927e10f1925839d442c42936009600084815260200190815260200160002060010160009054906101000a900473ffffffffffffffffffffffffffffffffffffffff16600960008581526020019081526020016000206000015460405161105f9291906136b8565b60405180910390a250565b6000806002600084815260200190815260200160002060009054906101000a900473ffffffffffffffffffffffffffffffffffffffff169050600073ffffffffffffffffffffffffffffffffffffffff168173ffffffffffffffffffffffffffffffffffffffff161415611113576040517f08c379a000000000000000000000000000000000000000000000000000000000815260040161110a9061383e565b60405180910390fd5b80915050919050565b60008073ffffffffffffffffffffffffffffffffffffffff168273ffffffffffffffffffffffffffffffffffffffff16141561118d576040517f08c379a00000000000000000000000000000000000000000000000000000000081526004016111849061381e565b60405180910390fd5b600360008373ffffffffffffffffffffffffffffffffffffffff1673ffffffffffffffffffffffffffffffffffffffff168152602001908152602001600020549050919050565b6111dc611f27565b73ffffffffffffffffffffffffffffffffffffffff166111fa6114c3565b73ffffffffffffffffffffffffffffffffffffffff1614611250576040517f08c379a00000000000000000000000000000000000000000000000000000000081526004016112479061389e565b60405180910390fd5b61125a600061232d565b565b336009600083815260200190815260200160002060010160006101000a81548173ffffffffffffffffffffffffffffffffffffffff021916908373ffffffffffffffffffffffffffffffffffffffff16021790555060096000828152602001908152602001600020600301339080600181540180825580915050600190039060005260206000200160009091909190916101000a81548173ffffffffffffffffffffffffffffffffffffffff021916908373ffffffffffffffffffffffffffffffffffffffff160217905550346009600083815260200190815260200160002060020160003373ffffffffffffffffffffffffffffffffffffffff1673ffffffffffffffffffffffffffffffffffffffff168152602001908152602001600020546113879190613a67565b6009600083815260200190815260200160002060000181905550346009600083815260200190815260200160002060020160003373ffffffffffffffffffffffffffffffffffffffff1673ffffffffffffffffffffffffffffffffffffffff16815260200190815260200160002060008282546114049190613a67565b9250508190555060016007600083815260200190815260200160002060070160006101000a81548160ff021916908315150217905550807faba11c5dfdb797eb6f7328f5f70a9b390c19e34a3927e10f1925839d442c42936009600084815260200190815260200160002060010160009054906101000a900473ffffffffffffffffffffffffffffffffffffffff1660096000858152602001908152602001600020600001546040516114b89291906136b8565b60405180910390a250565b6000600660009054906101000a900473ffffffffffffffffffffffffffffffffffffffff16905090565b6060600180546114fc90613bd8565b80601f016020809104026020016040519081016040528092919081815260200182805461152890613bd8565b80156115755780601f1061154a57610100808354040283529160200191611575565b820191906000526020600020905b81548152906001019060200180831161155857829003601f168201915b5050505050905090565b61159161158a611f27565b83836123f3565b5050565b60085481565b60006040518061018001604052808c81526020018b81526020018a815260200189815260200188815260200187815260200186815260200160001515815260200185815260200184815260200183815260200160001515815250600760006008548152602001908152602001600020600082015181600001556020820151816001019080519060200190611630929190612b1e565b50604082015181600201908051906020019061164d929190612b1e565b50606082015181600301908051906020019061166a929190612b1e565b506080820151816004015560a0820151816005015560c0820151816006015560e08201518160070160006101000a81548160ff0219169083151502179055506101008201518160080190805190602001906116c6929190612ba4565b50610120820151816009015561014082015181600a0190805190602001906116ef929190612b1e565b5061016082015181600b0160006101000a81548160ff02191690831515021790555090505061172033600854612560565b61173361172b6114c3565b6008546107af565b6001600860008282546117469190613a67565b92505081905550600160085461175c9190613aee565b90509a9950505050505050505050565b61177d611777611f27565b83611fe8565b6117bc576040517f08c379a00000000000000000000000000000000000000000000000000000000081526004016117b39061391e565b60405180910390fd5b6117c88484848461273a565b50505050565b60606117d982611ebb565b611818576040517f08c379a000000000000000000000000000000000000000000000000000000000815260040161180f906138be565b60405180910390fd5b6000611822612796565b90506000815111611842576040518060200160405280600081525061186d565b8061184c846127ad565b60405160200161185d92919061362d565b6040516020818303038152906040525b915050919050565b61187e8161106a565b73ffffffffffffffffffffffffffffffffffffffff166108fc60096000848152602001908152602001600020600001549081150290604051600060405180830381858888f193505050501580156118d9573d6000803e3d6000fd5b506119236118e68261106a565b6009600084815260200190815260200160002060010160009054906101000a900473ffffffffffffffffffffffffffffffffffffffff1683610d5c565b60016007600083815260200190815260200160002060070160006101000a81548160ff02191690831515021790555050565b6000600560008473ffffffffffffffffffffffffffffffffffffffff1673ffffffffffffffffffffffffffffffffffffffff16815260200190815260200160002060008373ffffffffffffffffffffffffffffffffffffffff1673ffffffffffffffffffffffffffffffffffffffff16815260200190815260200160002060009054906101000a900460ff16905092915050565b6119f1611f27565b73ffffffffffffffffffffffffffffffffffffffff16611a0f6114c3565b73ffffffffffffffffffffffffffffffffffffffff1614611a65576040517f08c379a0000000000000000000000000000000000000000000000000000000008152600401611a5c9061389e565b60405180910390fd5b600073ffffffffffffffffffffffffffffffffffffffff168173ffffffffffffffffffffffffffffffffffffffff161415611ad5576040517f08c379a0000000000000000000000000000000000000000000000000000000008152600401611acc9061373e565b60405180910390fd5b611ade8161232d565b50565b611ae9612c2a565b600760008381526020019081526020016000206040518061018001604052908160008201548152602001600182018054611b2290613bd8565b80601f0160208091040260200160405190810160405280929190818152602001828054611b4e90613bd8565b8015611b9b5780601f10611b7057610100808354040283529160200191611b9b565b820191906000526020600020905b815481529060010190602001808311611b7e57829003601f168201915b50505050508152602001600282018054611bb490613bd8565b80601f0160208091040260200160405190810160405280929190818152602001828054611be090613bd8565b8015611c2d5780601f10611c0257610100808354040283529160200191611c2d565b820191906000526020600020905b815481529060010190602001808311611c1057829003601f168201915b50505050508152602001600382018054611c4690613bd8565b80601f0160208091040260200160405190810160405280929190818152602001828054611c7290613bd8565b8015611cbf5780601f10611c9457610100808354040283529160200191611cbf565b820191906000526020600020905b815481529060010190602001808311611ca257829003601f168201915b505050505081526020016004820154815260200160058201548152602001600682015481526020016007820160009054906101000a900460ff16151515158152602001600882018054611d1190613bd8565b80601f0160208091040260200160405190810160405280929190818152602001828054611d3d90613bd8565b8015611d8a5780601f10611d5f57610100808354040283529160200191611d8a565b820191906000526020600020905b815481529060010190602001808311611d6d57829003601f168201915b5050505050815260200160098201548152602001600a82018054611dad90613bd8565b80601f0160208091040260200160405190810160405280929190818152602001828054611dd990613bd8565b8015611e265780601f10611dfb57610100808354040283529160200191611e26565b820191906000526020600020905b815481529060010190602001808311611e0957829003601f168201915b50505050508152602001600b820160009054906101000a900460ff1615151515815250509050919050565b60007f01ffc9a7000000000000000000000000000000000000000000000000000000007bffffffffffffffffffffffffffffffffffffffffffffffffffffffff1916827bffffffffffffffffffffffffffffffffffffffffffffffffffffffff1916149050919050565b60008073ffffffffffffffffffffffffffffffffffffffff166002600084815260200190815260200160002060009054906101000a900473ffffffffffffffffffffffffffffffffffffffff1673ffffffffffffffffffffffffffffffffffffffff1614159050919050565b600033905090565b816004600083815260200190815260200160002060006101000a81548173ffffffffffffffffffffffffffffffffffffffff021916908373ffffffffffffffffffffffffffffffffffffffff160217905550808273ffffffffffffffffffffffffffffffffffffffff16611fa28361106a565b73ffffffffffffffffffffffffffffffffffffffff167f8c5be1e5ebec7d5bd14f71427d1e84f3dd0314c0f7b2291e5b200ac8c7c3b92560405160405180910390a45050565b6000611ff382611ebb565b612032576040517f08c379a0000000000000000000000000000000000000000000000000000000008152600401612029906137de565b60405180910390fd5b600061203d8361106a565b90508073ffffffffffffffffffffffffffffffffffffffff168473ffffffffffffffffffffffffffffffffffffffff1614806120ac57508373ffffffffffffffffffffffffffffffffffffffff166120948461072a565b73ffffffffffffffffffffffffffffffffffffffff16145b806120bd57506120bc8185611955565b5b91505092915050565b8273ffffffffffffffffffffffffffffffffffffffff166120e68261106a565b73ffffffffffffffffffffffffffffffffffffffff161461213c576040517f08c379a00000000000000000000000000000000000000000000000000000000081526004016121339061375e565b60405180910390fd5b600073ffffffffffffffffffffffffffffffffffffffff168273ffffffffffffffffffffffffffffffffffffffff1614156121ac576040517f08c379a00000000000000000000000000000000000000000000000000000000081526004016121a39061379e565b60405180910390fd5b6121b783838361295a565b6121c2600082611f2f565b6001600360008573ffffffffffffffffffffffffffffffffffffffff1673ffffffffffffffffffffffffffffffffffffffff16815260200190815260200160002060008282546122129190613aee565b925050819055506001600360008473ffffffffffffffffffffffffffffffffffffffff1673ffffffffffffffffffffffffffffffffffffffff16815260200190815260200160002060008282546122699190613a67565b92505081905550816002600083815260200190815260200160002060006101000a81548173ffffffffffffffffffffffffffffffffffffffff021916908373ffffffffffffffffffffffffffffffffffffffff160217905550808273ffffffffffffffffffffffffffffffffffffffff168473ffffffffffffffffffffffffffffffffffffffff167fddf252ad1be2c89b69c2b068fc378daa952ba7f163c4a11628f55a4df523b3ef60405160405180910390a461232883838361295f565b505050565b6000600660009054906101000a900473ffffffffffffffffffffffffffffffffffffffff16905081600660006101000a81548173ffffffffffffffffffffffffffffffffffffffff021916908373ffffffffffffffffffffffffffffffffffffffff1602179055508173ffffffffffffffffffffffffffffffffffffffff168173ffffffffffffffffffffffffffffffffffffffff167f8be0079c531659141344cd1fd0a4f28419497f9722a3daafe3b4186f6b6457e060405160405180910390a35050565b8173ffffffffffffffffffffffffffffffffffffffff168373ffffffffffffffffffffffffffffffffffffffff161415612462576040517f08c379a0000000000000000000000000000000000000000000000000000000008152600401612459906137be565b60405180910390fd5b80600560008573ffffffffffffffffffffffffffffffffffffffff1673ffffffffffffffffffffffffffffffffffffffff16815260200190815260200160002060008473ffffffffffffffffffffffffffffffffffffffff1673ffffffffffffffffffffffffffffffffffffffff16815260200190815260200160002060006101000a81548160ff0219169083151502179055508173ffffffffffffffffffffffffffffffffffffffff168373ffffffffffffffffffffffffffffffffffffffff167f17307eab39ab6107e8899845ad3d59bd9653f200f220920489ca2b5937696c318360405161255391906136e1565b60405180910390a3505050565b600073ffffffffffffffffffffffffffffffffffffffff168273ffffffffffffffffffffffffffffffffffffffff1614156125d0576040517f08c379a00000000000000000000000000000000000000000000000000000000081526004016125c79061385e565b60405180910390fd5b6125d981611ebb565b15612619576040517f08c379a00000000000000000000000000000000000000000000000000000000081526004016126109061377e565b60405180910390fd5b6126256000838361295a565b6001600360008473ffffffffffffffffffffffffffffffffffffffff1673ffffffffffffffffffffffffffffffffffffffff16815260200190815260200160002060008282546126759190613a67565b92505081905550816002600083815260200190815260200160002060006101000a81548173ffffffffffffffffffffffffffffffffffffffff021916908373ffffffffffffffffffffffffffffffffffffffff160217905550808273ffffffffffffffffffffffffffffffffffffffff16600073ffffffffffffffffffffffffffffffffffffffff167fddf252ad1be2c89b69c2b068fc378daa952ba7f163c4a11628f55a4df523b3ef60405160405180910390a46127366000838361295f565b5050565b6127458484846120c6565b61275184848484612964565b612790576040517f08c379a00000000000000000000000000000000000000000000000000000000081526004016127879061371e565b60405180910390fd5b50505050565b606060405180602001604052806000815250905090565b606060008214156127f5576040518060400160405280600181526020017f30000000000000000000000000000000000000000000000000000000000000008152509050612955565b600082905060005b6000821461282757808061281090613c3b565b915050600a826128209190613abd565b91506127fd565b60008167ffffffffffffffff811115612869577f4e487b7100000000000000000000000000000000000000000000000000000000600052604160045260246000fd5b6040519080825280601f01601f19166020018201604052801561289b5781602001600182028036833780820191505090505b5090505b6000851461294e576001826128b49190613aee565b9150600a856128c39190613c84565b60306128cf9190613a67565b60f81b81838151811061290b577f4e487b7100000000000000000000000000000000000000000000000000000000600052603260045260246000fd5b60200101907effffffffffffffffffffffffffffffffffffffffffffffffffffffffffffff1916908160001a905350600a856129479190613abd565b945061289f565b8093505050505b919050565b505050565b505050565b60006129858473ffffffffffffffffffffffffffffffffffffffff16612afb565b15612aee578373ffffffffffffffffffffffffffffffffffffffff1663150b7a026129ae611f27565b8786866040518563ffffffff1660e01b81526004016129d0949392919061366c565b602060405180830381600087803b1580156129ea57600080fd5b505af1925050508015612a1b57506040513d601f19601f82011682018060405250810190612a189190612fb5565b60015b612a9e573d8060008114612a4b576040519150601f19603f3d011682016040523d82523d6000602084013e612a50565b606091505b50600081511415612a96576040517f08c379a0000000000000000000000000000000000000000000000000000000008152600401612a8d9061371e565b60405180910390fd5b805181602001fd5b63150b7a0260e01b7bffffffffffffffffffffffffffffffffffffffffffffffffffffffff1916817bffffffffffffffffffffffffffffffffffffffffffffffffffffffff191614915050612af3565b600190505b949350505050565b6000808273ffffffffffffffffffffffffffffffffffffffff163b119050919050565b828054612b2a90613bd8565b90600052602060002090601f016020900481019282612b4c5760008555612b93565b82601f10612b6557805160ff1916838001178555612b93565b82800160010185558215612b93579182015b82811115612b92578251825591602001919060010190612b77565b5b509050612ba09190612c8f565b5090565b828054612bb090613bd8565b90600052602060002090601f016020900481019282612bd25760008555612c19565b82601f10612beb57805160ff1916838001178555612c19565b82800160010185558215612c19579182015b82811115612c18578251825591602001919060010190612bfd565b5b509050612c269190612c8f565b5090565b604051806101800160405280600081526020016060815260200160608152602001606081526020016000815260200160008152602001600081526020016000151581526020016060815260200160008152602001606081526020016000151581525090565b5b80821115612ca8576000816000905550600101612c90565b5090565b6000612cbf612cba846139a0565b61397b565b905082815260208101848484011115612cd757600080fd5b612ce2848285613b96565b509392505050565b6000612cfd612cf8846139d1565b61397b565b905082815260208101848484011115612d1557600080fd5b612d20848285613b96565b509392505050565b600081359050612d3781614203565b92915050565b600081359050612d4c8161421a565b92915050565b600081359050612d6181614231565b92915050565b600081519050612d7681614231565b92915050565b600082601f830112612d8d57600080fd5b8135612d9d848260208601612cac565b91505092915050565b600082601f830112612db757600080fd5b8135612dc7848260208601612cea565b91505092915050565b600081359050612ddf81614248565b92915050565b600060208284031215612df757600080fd5b6000612e0584828501612d28565b91505092915050565b60008060408385031215612e2157600080fd5b6000612e2f85828601612d28565b9250506020612e4085828601612d28565b9150509250929050565b600080600060608486031215612e5f57600080fd5b6000612e6d86828701612d28565b9350506020612e7e86828701612d28565b9250506040612e8f86828701612dd0565b9150509250925092565b60008060008060808587031215612eaf57600080fd5b6000612ebd87828801612d28565b9450506020612ece87828801612d28565b9350506040612edf87828801612dd0565b925050606085013567ffffffffffffffff811115612efc57600080fd5b612f0887828801612d7c565b91505092959194509250565b60008060408385031215612f2757600080fd5b6000612f3585828601612d28565b9250506020612f4685828601612d3d565b9150509250929050565b60008060408385031215612f6357600080fd5b6000612f7185828601612d28565b9250506020612f8285828601612dd0565b9150509250929050565b600060208284031215612f9e57600080fd5b6000612fac84828501612d52565b91505092915050565b600060208284031215612fc757600080fd5b6000612fd584828501612d67565b91505092915050565b600060208284031215612ff057600080fd5b6000612ffe84828501612dd0565b91505092915050565b6000806000806000806000806000806101408b8d03121561302757600080fd5b60006130358d828e01612dd0565b9a505060208b013567ffffffffffffffff81111561305257600080fd5b61305e8d828e01612da6565b99505060408b013567ffffffffffffffff81111561307b57600080fd5b6130878d828e01612da6565b98505060608b013567ffffffffffffffff8111156130a457600080fd5b6130b08d828e01612da6565b97505060806130c18d828e01612dd0565b96505060a06130d28d828e01612dd0565b95505060c06130e38d828e01612dd0565b94505060e08b013567ffffffffffffffff81111561310057600080fd5b61310c8d828e01612d7c565b93505061010061311e8d828e01612dd0565b9250506101208b013567ffffffffffffffff81111561313c57600080fd5b6131488d828e01612da6565b9150509295989b9194979a5092959850565b61316381613b22565b82525050565b61317281613b34565b82525050565b61318181613b34565b82525050565b600061319282613a02565b61319c8185613a18565b93506131ac818560208601613ba5565b6131b581613d71565b840191505092915050565b60006131cb82613a02565b6131d58185613a29565b93506131e5818560208601613ba5565b6131ee81613d71565b840191505092915050565b600061320482613a0d565b61320e8185613a3a565b935061321e818560208601613ba5565b61322781613d71565b840191505092915050565b600061323d82613a0d565b6132478185613a4b565b9350613257818560208601613ba5565b61326081613d71565b840191505092915050565b600061327682613a0d565b6132808185613a5c565b9350613290818560208601613ba5565b80840191505092915050565b60006132a9603283613a4b565b91506132b482613d82565b604082019050919050565b60006132cc602683613a4b565b91506132d782613dd1565b604082019050919050565b60006132ef602583613a4b565b91506132fa82613e20565b604082019050919050565b6000613312601c83613a4b565b915061331d82613e6f565b602082019050919050565b6000613335602483613a4b565b915061334082613e98565b604082019050919050565b6000613358601983613a4b565b915061336382613ee7565b602082019050919050565b600061337b602c83613a4b565b915061338682613f10565b604082019050919050565b600061339e603883613a4b565b91506133a982613f5f565b604082019050919050565b60006133c1602a83613a4b565b91506133cc82613fae565b604082019050919050565b60006133e4602983613a4b565b91506133ef82613ffd565b604082019050919050565b6000613407602083613a4b565b91506134128261404c565b602082019050919050565b600061342a602c83613a4b565b915061343582614075565b604082019050919050565b600061344d602083613a4b565b9150613458826140c4565b602082019050919050565b6000613470602f83613a4b565b915061347b826140ed565b604082019050919050565b6000613493602183613a4b565b915061349e8261413c565b604082019050919050565b60006134b6601d83613a4b565b91506134c18261418b565b602082019050919050565b60006134d9603183613a4b565b91506134e4826141b4565b604082019050919050565b600061018083016000830151613508600086018261360f565b506020830151848203602086015261352082826131f9565b9150506040830151848203604086015261353a82826131f9565b9150506060830151848203606086015261355482826131f9565b9150506080830151613569608086018261360f565b5060a083015161357c60a086018261360f565b5060c083015161358f60c086018261360f565b5060e08301516135a260e0860182613169565b506101008301518482036101008601526135bc8282613187565b9150506101208301516135d361012086018261360f565b506101408301518482036101408601526135ed82826131f9565b915050610160830151613604610160860182613169565b508091505092915050565b61361881613b8c565b82525050565b61362781613b8c565b82525050565b6000613639828561326b565b9150613645828461326b565b91508190509392505050565b6000602082019050613666600083018461315a565b92915050565b6000608082019050613681600083018761315a565b61368e602083018661315a565b61369b604083018561361e565b81810360608301526136ad81846131c0565b905095945050505050565b60006040820190506136cd600083018561315a565b6136da602083018461361e565b9392505050565b60006020820190506136f66000830184613178565b92915050565b600060208201905081810360008301526137168184613232565b905092915050565b600060208201905081810360008301526137378161329c565b9050919050565b60006020820190508181036000830152613757816132bf565b9050919050565b60006020820190508181036000830152613777816132e2565b9050919050565b6000602082019050818103600083015261379781613305565b9050919050565b600060208201905081810360008301526137b781613328565b9050919050565b600060208201905081810360008301526137d78161334b565b9050919050565b600060208201905081810360008301526137f78161336e565b9050919050565b6000602082019050818103600083015261381781613391565b9050919050565b60006020820190508181036000830152613837816133b4565b9050919050565b60006020820190508181036000830152613857816133d7565b9050919050565b60006020820190508181036000830152613877816133fa565b9050919050565b600060208201905081810360008301526138978161341d565b9050919050565b600060208201905081810360008301526138b781613440565b9050919050565b600060208201905081810360008301526138d781613463565b9050919050565b600060208201905081810360008301526138f781613486565b9050919050565b60006020820190508181036000830152613917816134a9565b9050919050565b60006020820190508181036000830152613937816134cc565b9050919050565b6000602082019050818103600083015261395881846134ef565b905092915050565b6000602082019050613975600083018461361e565b92915050565b6000613985613996565b90506139918282613c0a565b919050565b6000604051905090565b600067ffffffffffffffff8211156139bb576139ba613d42565b5b6139c482613d71565b9050602081019050919050565b600067ffffffffffffffff8211156139ec576139eb613d42565b5b6139f582613d71565b9050602081019050919050565b600081519050919050565b600081519050919050565b600082825260208201905092915050565b600082825260208201905092915050565b600082825260208201905092915050565b600082825260208201905092915050565b600081905092915050565b6000613a7282613b8c565b9150613a7d83613b8c565b9250827fffffffffffffffffffffffffffffffffffffffffffffffffffffffffffffffff03821115613ab257613ab1613cb5565b5b828201905092915050565b6000613ac882613b8c565b9150613ad383613b8c565b925082613ae357613ae2613ce4565b5b828204905092915050565b6000613af982613b8c565b9150613b0483613b8c565b925082821015613b1757613b16613cb5565b5b828203905092915050565b6000613b2d82613b6c565b9050919050565b60008115159050919050565b60007fffffffff0000000000000000000000000000000000000000000000000000000082169050919050565b600073ffffffffffffffffffffffffffffffffffffffff82169050919050565b6000819050919050565b82818337600083830152505050565b60005b83811015613bc3578082015181840152602081019050613ba8565b83811115613bd2576000848401525b50505050565b60006002820490506001821680613bf057607f821691505b60208210811415613c0457613c03613d13565b5b50919050565b613c1382613d71565b810181811067ffffffffffffffff82111715613c3257613c31613d42565b5b80604052505050565b6000613c4682613b8c565b91507fffffffffffffffffffffffffffffffffffffffffffffffffffffffffffffffff821415613c7957613c78613cb5565b5b600182019050919050565b6000613c8f82613b8c565b9150613c9a83613b8c565b925082613caa57613ca9613ce4565b5b828206905092915050565b7f4e487b7100000000000000000000000000000000000000000000000000000000600052601160045260246000fd5b7f4e487b7100000000000000000000000000000000000000000000000000000000600052601260045260246000fd5b7f4e487b7100000000000000000000000000000000000000000000000000000000600052602260045260246000fd5b7f4e487b7100000000000000000000000000000000000000000000000000000000600052604160045260246000fd5b6000601f19601f8301169050919050565b7f4552433732313a207472616e7366657220746f206e6f6e20455243373231526560008201527f63656976657220696d706c656d656e7465720000000000000000000000000000602082015250565b7f4f776e61626c653a206e6577206f776e657220697320746865207a65726f206160008201527f6464726573730000000000000000000000000000000000000000000000000000602082015250565b7f4552433732313a207472616e736665722066726f6d20696e636f72726563742060008201527f6f776e6572000000000000000000000000000000000000000000000000000000602082015250565b7f4552433732313a20746f6b656e20616c7265616479206d696e74656400000000600082015250565b7f4552433732313a207472616e7366657220746f20746865207a65726f2061646460008201527f7265737300000000000000000000000000000000000000000000000000000000602082015250565b7f4552433732313a20617070726f766520746f2063616c6c657200000000000000600082015250565b7f4552433732313a206f70657261746f7220717565727920666f72206e6f6e657860008201527f697374656e7420746f6b656e0000000000000000000000000000000000000000602082015250565b7f4552433732313a20617070726f76652063616c6c6572206973206e6f74206f7760008201527f6e6572206e6f7220617070726f76656420666f7220616c6c0000000000000000602082015250565b7f4552433732313a2062616c616e636520717565727920666f7220746865207a6560008201527f726f206164647265737300000000000000000000000000000000000000000000602082015250565b7f4552433732313a206f776e657220717565727920666f72206e6f6e657869737460008201527f656e7420746f6b656e0000000000000000000000000000000000000000000000602082015250565b7f4552433732313a206d696e7420746f20746865207a65726f2061646472657373600082015250565b7f4552433732313a20617070726f76656420717565727920666f72206e6f6e657860008201527f697374656e7420746f6b656e0000000000000000000000000000000000000000602082015250565b7f4f776e61626c653a2063616c6c6572206973206e6f7420746865206f776e6572600082015250565b7f4552433732314d657461646174613a2055524920717565727920666f72206e6f60008201527f6e6578697374656e7420746f6b656e0000000000000000000000000000000000602082015250565b7f4552433732313a20617070726f76616c20746f2063757272656e74206f776e6560008201527f7200000000000000000000000000000000000000000000000000000000000000602082015250565b7f63616e742774206269642c206d616b6520612068696768657220426964000000600082015250565b7f4552433732313a207472616e736665722063616c6c6572206973206e6f74206f60008201527f776e6572206e6f7220617070726f766564000000000000000000000000000000602082015250565b61420c81613b22565b811461421757600080fd5b50565b61422381613b34565b811461422e57600080fd5b50565b61423a81613b40565b811461424557600080fd5b50565b61425181613b8c565b811461425c57600080fd5b5056fea26469706673582212203a723864bc40d24b7feb8cf0259a9cffad9d1cf56dba751ee8834697cd1319bf64736f6c63430008010033",
  "immutableReferences": {},
  "source": "// SPDX-License-Identifier: MIT\r\n\r\npragma solidity ^0.8.1;\r\n\r\nimport \"./Land.sol\";\r\n\r\ncontract LandSale is LandRegistration {\r\n    //address public owner;\r\n    struct BidDetail {\r\n        uint256 highestBid;\r\n        address highestBidder;\r\n        mapping(address => uint256) bids;\r\n        address[] bidders;\r\n    }\r\n\r\n    // constructor() {\r\n    //     owner = msg.sender;\r\n    // }\r\n\r\n    mapping(uint256 => BidDetail) BidDetails;\r\n\r\n    modifier ownerRestricted() {\r\n        if (msg.sender != owner()) _;\r\n    }\r\n\r\n    function bid(uint256 landID) public payable {\r\n        require(\r\n            BidDetails[landID].bids[msg.sender] + msg.value >\r\n                BidDetails[landID].highestBid,\r\n            \"cant't bid, make a higher Bid\"\r\n        );\r\n        BidDetails[landID].highestBidder = msg.sender;\r\n        BidDetails[landID].bidders.push(msg.sender);\r\n        BidDetails[landID].highestBid =\r\n            BidDetails[landID].bids[msg.sender] +\r\n            msg.value;\r\n        BidDetails[landID].bids[msg.sender] += msg.value;\r\n        emit BidEvent(\r\n            landID,\r\n            BidDetails[landID].highestBidder,\r\n            BidDetails[landID].highestBid\r\n        );\r\n    }\r\n\r\n    function acceptBid(uint256 landID) public {\r\n        payable(msg.sender).transfer(BidDetails[landID].highestBid);\r\n        safeTransferFrom(msg.sender, BidDetails[landID].highestBidder, landID);\r\n        for (uint256 i = 0; i < BidDetails[landID].bidders.length; i++) {\r\n            if (\r\n                BidDetails[landID].bidders[i] ==\r\n                BidDetails[landID].highestBidder\r\n            ) {\r\n                continue;\r\n            }\r\n            payable(BidDetails[landID].bidders[i]).transfer(\r\n                BidDetails[landID].bids[BidDetails[landID].bidders[i]]\r\n            );\r\n        }\r\n        LandDetails[landID].salesStatus = true;\r\n    }\r\n\r\n    function instantBuy(uint256 landID) public payable {\r\n        //require(msg.sender!=ownerOf(landID));\r\n        BidDetails[landID].highestBidder = msg.sender;\r\n        BidDetails[landID].bidders.push(msg.sender);\r\n        BidDetails[landID].highestBid =\r\n            BidDetails[landID].bids[msg.sender] +\r\n            msg.value;\r\n        BidDetails[landID].bids[msg.sender] += msg.value;\r\n        LandDetails[landID].salesStatus = true;\r\n        emit BidEvent(\r\n            landID,\r\n            BidDetails[landID].highestBidder,\r\n            BidDetails[landID].highestBid\r\n        );\r\n    }\r\n\r\n    function assetTransfer(uint256 landID) public {\r\n        payable(ownerOf(landID)).transfer(BidDetails[landID].highestBid);\r\n        safeTransferFrom(\r\n            ownerOf(landID),\r\n            BidDetails[landID].highestBidder,\r\n            landID\r\n        );\r\n        LandDetails[landID].salesStatus = true;\r\n    }\r\n\r\n    function approveforSale(uint256 landID) public {\r\n        approve(BidDetails[landID].highestBidder, landID);\r\n        safeTransferFrom(\r\n            ownerOf(landID),\r\n            BidDetails[landID].highestBidder,\r\n            landID\r\n        );\r\n        LandDetails[landID].salesStatus = true;\r\n    }\r\n\r\n    fallback() external {\r\n        revert();\r\n    }\r\n\r\n    event BidEvent(\r\n        uint256 indexed landID,\r\n        address highestBidder,\r\n        uint256 highestBid\r\n    );\r\n}\r\n",
  "sourcePath": "D:\\Stack\\blockchain\\Ethereum\\Elab\\LandSale\\contracts\\LandSale.sol",
  "compiler": {
    "name": "solc",
    "version": "0.8.1+commit.df193b15.Emscripten.clang"
  },
  "schemaVersion": "3.4.5",
  "updatedAt": "2022-03-09T18:04:37.883Z",
  "networkType": "ethereum",
  "devdoc": {
    "kind": "dev",
    "methods": {
      "approve(address,uint256)": {
        "details": "See {IERC721-approve}."
      },
      "balanceOf(address)": {
        "details": "See {IERC721-balanceOf}."
      },
      "getApproved(uint256)": {
        "details": "See {IERC721-getApproved}."
      },
      "isApprovedForAll(address,address)": {
        "details": "See {IERC721-isApprovedForAll}."
      },
      "name()": {
        "details": "See {IERC721Metadata-name}."
      },
      "owner()": {
        "details": "Returns the address of the current owner."
      },
      "ownerOf(uint256)": {
        "details": "See {IERC721-ownerOf}."
      },
      "renounceOwnership()": {
        "details": "Leaves the contract without owner. It will not be possible to call `onlyOwner` functions anymore. Can only be called by the current owner. NOTE: Renouncing ownership will leave the contract without an owner, thereby removing any functionality that is only available to the owner."
      },
      "safeTransferFrom(address,address,uint256)": {
        "details": "See {IERC721-safeTransferFrom}."
      },
      "safeTransferFrom(address,address,uint256,bytes)": {
        "details": "See {IERC721-safeTransferFrom}."
      },
      "setApprovalForAll(address,bool)": {
        "details": "See {IERC721-setApprovalForAll}."
      },
      "supportsInterface(bytes4)": {
        "details": "See {IERC165-supportsInterface}."
      },
      "symbol()": {
        "details": "See {IERC721Metadata-symbol}."
      },
      "tokenURI(uint256)": {
        "details": "See {IERC721Metadata-tokenURI}."
      },
      "transferFrom(address,address,uint256)": {
        "details": "See {IERC721-transferFrom}."
      },
      "transferOwnership(address)": {
        "details": "Transfers ownership of the contract to a new account (`newOwner`). Can only be called by the current owner."
      }
    },
    "version": 1
  },
  "userdoc": {
    "kind": "user",
    "methods": {},
    "version": 1
  }
}