{
  "contractName": "LandRegistration",
  "abi": [
    {
      "inputs": [],
      "stateMutability": "nonpayable",
      "type": "constructor"
    },
    {
      "anonymous": false,
      "inputs": [
        {
          "indexed": true,
          "internalType": "address",
          "name": "owner",
          "type": "address"
        },
        {
          "indexed": true,
          "internalType": "address",
          "name": "approved",
          "type": "address"
        },
        {
          "indexed": true,
          "internalType": "uint256",
          "name": "tokenId",
          "type": "uint256"
        }
      ],
      "name": "Approval",
      "type": "event"
    },
    {
      "anonymous": false,
      "inputs": [
        {
          "indexed": true,
          "internalType": "address",
          "name": "owner",
          "type": "address"
        },
        {
          "indexed": true,
          "internalType": "address",
          "name": "operator",
          "type": "address"
        },
        {
          "indexed": false,
          "internalType": "bool",
          "name": "approved",
          "type": "bool"
        }
      ],
      "name": "ApprovalForAll",
      "type": "event"
    },
    {
      "anonymous": false,
      "inputs": [
        {
          "indexed": true,
          "internalType": "address",
          "name": "previousOwner",
          "type": "address"
        },
        {
          "indexed": true,
          "internalType": "address",
          "name": "newOwner",
          "type": "address"
        }
      ],
      "name": "OwnershipTransferred",
      "type": "event"
    },
    {
      "anonymous": false,
      "inputs": [
        {
          "indexed": true,
          "internalType": "address",
          "name": "from",
          "type": "address"
        },
        {
          "indexed": true,
          "internalType": "address",
          "name": "to",
          "type": "address"
        },
        {
          "indexed": true,
          "internalType": "uint256",
          "name": "tokenId",
          "type": "uint256"
        }
      ],
      "name": "Transfer",
      "type": "event"
    },
    {
      "inputs": [
        {
          "internalType": "address",
          "name": "to",
          "type": "address"
        },
        {
          "internalType": "uint256",
          "name": "tokenId",
          "type": "uint256"
        }
      ],
      "name": "approve",
      "outputs": [],
      "stateMutability": "nonpayable",
      "type": "function"
    },
    {
      "inputs": [
        {
          "internalType": "address",
          "name": "owner",
          "type": "address"
        }
      ],
      "name": "balanceOf",
      "outputs": [
        {
          "internalType": "uint256",
          "name": "",
          "type": "uint256"
        }
      ],
      "stateMutability": "view",
      "type": "function"
    },
    {
      "inputs": [
        {
          "internalType": "uint256",
          "name": "tokenId",
          "type": "uint256"
        }
      ],
      "name": "getApproved",
      "outputs": [
        {
          "internalType": "address",
          "name": "",
          "type": "address"
        }
      ],
      "stateMutability": "view",
      "type": "function"
    },
    {
      "inputs": [
        {
          "internalType": "address",
          "name": "owner",
          "type": "address"
        },
        {
          "internalType": "address",
          "name": "operator",
          "type": "address"
        }
      ],
      "name": "isApprovedForAll",
      "outputs": [
        {
          "internalType": "bool",
          "name": "",
          "type": "bool"
        }
      ],
      "stateMutability": "view",
      "type": "function"
    },
    {
      "inputs": [],
      "name": "name",
      "outputs": [
        {
          "internalType": "string",
          "name": "",
          "type": "string"
        }
      ],
      "stateMutability": "view",
      "type": "function"
    },
    {
      "inputs": [],
      "name": "owner",
      "outputs": [
        {
          "internalType": "address",
          "name": "",
          "type": "address"
        }
      ],
      "stateMutability": "view",
      "type": "function"
    },
    {
      "inputs": [
        {
          "internalType": "uint256",
          "name": "tokenId",
          "type": "uint256"
        }
      ],
      "name": "ownerOf",
      "outputs": [
        {
          "internalType": "address",
          "name": "",
          "type": "address"
        }
      ],
      "stateMutability": "view",
      "type": "function"
    },
    {
      "inputs": [],
      "name": "registeredLandCount",
      "outputs": [
        {
          "internalType": "uint256",
          "name": "",
          "type": "uint256"
        }
      ],
      "stateMutability": "view",
      "type": "function"
    },
    {
      "inputs": [],
      "name": "renounceOwnership",
      "outputs": [],
      "stateMutability": "nonpayable",
      "type": "function"
    },
    {
      "inputs": [
        {
          "internalType": "address",
          "name": "from",
          "type": "address"
        },
        {
          "internalType": "address",
          "name": "to",
          "type": "address"
        },
        {
          "internalType": "uint256",
          "name": "tokenId",
          "type": "uint256"
        }
      ],
      "name": "safeTransferFrom",
      "outputs": [],
      "stateMutability": "nonpayable",
      "type": "function"
    },
    {
      "inputs": [
        {
          "internalType": "address",
          "name": "from",
          "type": "address"
        },
        {
          "internalType": "address",
          "name": "to",
          "type": "address"
        },
        {
          "internalType": "uint256",
          "name": "tokenId",
          "type": "uint256"
        },
        {
          "internalType": "bytes",
          "name": "_data",
          "type": "bytes"
        }
      ],
      "name": "safeTransferFrom",
      "outputs": [],
      "stateMutability": "nonpayable",
      "type": "function"
    },
    {
      "inputs": [
        {
          "internalType": "address",
          "name": "operator",
          "type": "address"
        },
        {
          "internalType": "bool",
          "name": "approved",
          "type": "bool"
        }
      ],
      "name": "setApprovalForAll",
      "outputs": [],
      "stateMutability": "nonpayable",
      "type": "function"
    },
    {
      "inputs": [
        {
          "internalType": "bytes4",
          "name": "interfaceId",
          "type": "bytes4"
        }
      ],
      "name": "supportsInterface",
      "outputs": [
        {
          "internalType": "bool",
          "name": "",
          "type": "bool"
        }
      ],
      "stateMutability": "view",
      "type": "function"
    },
    {
      "inputs": [],
      "name": "symbol",
      "outputs": [
        {
          "internalType": "string",
          "name": "",
          "type": "string"
        }
      ],
      "stateMutability": "view",
      "type": "function"
    },
    {
      "inputs": [
        {
          "internalType": "uint256",
          "name": "tokenId",
          "type": "uint256"
        }
      ],
      "name": "tokenURI",
      "outputs": [
        {
          "internalType": "string",
          "name": "",
          "type": "string"
        }
      ],
      "stateMutability": "view",
      "type": "function"
    },
    {
      "inputs": [
        {
          "internalType": "address",
          "name": "from",
          "type": "address"
        },
        {
          "internalType": "address",
          "name": "to",
          "type": "address"
        },
        {
          "internalType": "uint256",
          "name": "tokenId",
          "type": "uint256"
        }
      ],
      "name": "transferFrom",
      "outputs": [],
      "stateMutability": "nonpayable",
      "type": "function"
    },
    {
      "inputs": [
        {
          "internalType": "address",
          "name": "newOwner",
          "type": "address"
        }
      ],
      "name": "transferOwnership",
      "outputs": [],
      "stateMutability": "nonpayable",
      "type": "function"
    },
    {
      "inputs": [
        {
          "internalType": "uint256",
          "name": "surveyNo",
          "type": "uint256"
        },
        {
          "internalType": "string",
          "name": "district",
          "type": "string"
        },
        {
          "internalType": "string",
          "name": "taluk",
          "type": "string"
        },
        {
          "internalType": "string",
          "name": "village",
          "type": "string"
        },
        {
          "internalType": "uint256",
          "name": "blockNo",
          "type": "uint256"
        },
        {
          "internalType": "uint256",
          "name": "landValue",
          "type": "uint256"
        },
        {
          "internalType": "uint256",
          "name": "area",
          "type": "uint256"
        },
        {
          "internalType": "bytes",
          "name": "documentHash",
          "type": "bytes"
        },
        {
          "internalType": "uint256",
          "name": "expiry",
          "type": "uint256"
        },
        {
          "internalType": "string",
          "name": "bidType",
          "type": "string"
        },
        {
          "internalType": "bool",
          "name": "expired",
          "type": "bool"
        }
      ],
      "name": "registerNewLand",
      "outputs": [
        {
          "internalType": "uint256",
          "name": "",
          "type": "uint256"
        }
      ],
      "stateMutability": "nonpayable",
      "type": "function"
    },
    {
      "inputs": [
        {
          "internalType": "uint256",
          "name": "landID",
          "type": "uint256"
        }
      ],
      "name": "getLandDetails",
      "outputs": [
        {
          "components": [
            {
              "internalType": "uint256",
              "name": "surveyNo",
              "type": "uint256"
            },
            {
              "internalType": "string",
              "name": "district",
              "type": "string"
            },
            {
              "internalType": "string",
              "name": "taluk",
              "type": "string"
            },
            {
              "internalType": "string",
              "name": "village",
              "type": "string"
            },
            {
              "internalType": "uint256",
              "name": "blockNo",
              "type": "uint256"
            },
            {
              "internalType": "uint256",
              "name": "landValue",
              "type": "uint256"
            },
            {
              "internalType": "uint256",
              "name": "area",
              "type": "uint256"
            },
            {
              "internalType": "bool",
              "name": "salesStatus",
              "type": "bool"
            },
            {
              "internalType": "bytes",
              "name": "documentHash",
              "type": "bytes"
            },
            {
              "internalType": "uint256",
              "name": "expiry",
              "type": "uint256"
            },
            {
              "internalType": "string",
              "name": "bidType",
              "type": "string"
            },
            {
              "internalType": "bool",
              "name": "expired",
              "type": "bool"
            }
          ],
          "internalType": "struct LandRegistration.LandDetail",
          "name": "",
          "type": "tuple"
        }
      ],
      "stateMutability": "view",
      "type": "function"
    }
  ],
  "bytecode": "0x608060405260006008553480156200001657600080fd5b506040518060400160405280600481526020017f4c616e64000000000000000000000000000000000000000000000000000000008152506040518060400160405280600381526020017f4c4e44000000000000000000000000000000000000000000000000000000000081525081600090805190602001906200009b929190620001ab565b508060019080519060200190620000b4929190620001ab565b505050620000d7620000cb620000dd60201b60201c565b620000e560201b60201c565b620002c0565b600033905090565b6000600660009054906101000a900473ffffffffffffffffffffffffffffffffffffffff16905081600660006101000a81548173ffffffffffffffffffffffffffffffffffffffff021916908373ffffffffffffffffffffffffffffffffffffffff1602179055508173ffffffffffffffffffffffffffffffffffffffff168173ffffffffffffffffffffffffffffffffffffffff167f8be0079c531659141344cd1fd0a4f28419497f9722a3daafe3b4186f6b6457e060405160405180910390a35050565b828054620001b9906200025b565b90600052602060002090601f016020900481019282620001dd576000855562000229565b82601f10620001f857805160ff191683800117855562000229565b8280016001018555821562000229579182015b82811115620002285782518255916020019190600101906200020b565b5b5090506200023891906200023c565b5090565b5b80821115620002575760008160009055506001016200023d565b5090565b600060028204905060018216806200027457607f821691505b602082108114156200028b576200028a62000291565b5b50919050565b7f4e487b7100000000000000000000000000000000000000000000000000000000600052602260045260246000fd5b6135c580620002d06000396000f3fe608060405234801561001057600080fd5b50600436106101215760003560e01c80638da5cb5b116100ad578063c6f675db11610071578063c6f675db146102f4578063c87b56dd14610324578063e985e9c514610354578063f2fde38b14610384578063fe0cb7dc146103a057610121565b80638da5cb5b1461026257806395d89b4114610280578063a22cb4651461029e578063a7613a7d146102ba578063b88d4fde146102d857610121565b806323b872dd116100f457806323b872dd146101c057806342842e0e146101dc5780636352211e146101f857806370a0823114610228578063715018a61461025857610121565b806301ffc9a71461012657806306fdde0314610156578063081812fc14610174578063095ea7b3146101a4575b600080fd5b610140600480360381019061013b919061233c565b6103d0565b60405161014d9190612a5a565b60405180910390f35b61015e6104b2565b60405161016b9190612a75565b60405180910390f35b61018e6004803603810190610189919061238e565b610544565b60405161019b91906129f3565b60405180910390f35b6101be60048036038101906101b99190612300565b6105c9565b005b6101da60048036038101906101d591906121fa565b6106e1565b005b6101f660048036038101906101f191906121fa565b610741565b005b610212600480360381019061020d919061238e565b610761565b60405161021f91906129f3565b60405180910390f35b610242600480360381019061023d9190612195565b610813565b60405161024f9190612cb9565b60405180910390f35b6102606108cb565b005b61026a610953565b60405161027791906129f3565b60405180910390f35b61028861097d565b6040516102959190612a75565b60405180910390f35b6102b860048036038101906102b391906122c4565b610a0f565b005b6102c2610a25565b6040516102cf9190612cb9565b60405180910390f35b6102f260048036038101906102ed9190612249565b610a2b565b005b61030e600480360381019061030991906123b7565b610a8d565b60405161031b9190612cb9565b60405180910390f35b61033e6004803603810190610339919061238e565b610c5e565b60405161034b9190612a75565b60405180910390f35b61036e600480360381019061036991906121be565b610d05565b60405161037b9190612a5a565b60405180910390f35b61039e60048036038101906103999190612195565b610d99565b005b6103ba60048036038101906103b5919061238e565b610e91565b6040516103c79190612c97565b60405180910390f35b60007f80ac58cd000000000000000000000000000000000000000000000000000000007bffffffffffffffffffffffffffffffffffffffffffffffffffffffff1916827bffffffffffffffffffffffffffffffffffffffffffffffffffffffff1916148061049b57507f5b5e139f000000000000000000000000000000000000000000000000000000007bffffffffffffffffffffffffffffffffffffffffffffffffffffffff1916827bffffffffffffffffffffffffffffffffffffffffffffffffffffffff1916145b806104ab57506104aa82611201565b5b9050919050565b6060600080546104c190612f31565b80601f01602080910402602001604051908101604052809291908181526020018280546104ed90612f31565b801561053a5780601f1061050f5761010080835404028352916020019161053a565b820191906000526020600020905b81548152906001019060200180831161051d57829003601f168201915b5050505050905090565b600061054f8261126b565b61058e576040517f08c379a000000000000000000000000000000000000000000000000000000000815260040161058590612bf7565b60405180910390fd5b6004600083815260200190815260200160002060009054906101000a900473ffffffffffffffffffffffffffffffffffffffff169050919050565b60006105d482610761565b90508073ffffffffffffffffffffffffffffffffffffffff168373ffffffffffffffffffffffffffffffffffffffff161415610645576040517f08c379a000000000000000000000000000000000000000000000000000000000815260040161063c90612c57565b60405180910390fd5b8073ffffffffffffffffffffffffffffffffffffffff166106646112d7565b73ffffffffffffffffffffffffffffffffffffffff16148061069357506106928161068d6112d7565b610d05565b5b6106d2576040517f08c379a00000000000000000000000000000000000000000000000000000000081526004016106c990612b77565b60405180910390fd5b6106dc83836112df565b505050565b6106f26106ec6112d7565b82611398565b610731576040517f08c379a000000000000000000000000000000000000000000000000000000000815260040161072890612c77565b60405180910390fd5b61073c838383611476565b505050565b61075c83838360405180602001604052806000815250610a2b565b505050565b6000806002600084815260200190815260200160002060009054906101000a900473ffffffffffffffffffffffffffffffffffffffff169050600073ffffffffffffffffffffffffffffffffffffffff168173ffffffffffffffffffffffffffffffffffffffff16141561080a576040517f08c379a000000000000000000000000000000000000000000000000000000000815260040161080190612bb7565b60405180910390fd5b80915050919050565b60008073ffffffffffffffffffffffffffffffffffffffff168273ffffffffffffffffffffffffffffffffffffffff161415610884576040517f08c379a000000000000000000000000000000000000000000000000000000000815260040161087b90612b97565b60405180910390fd5b600360008373ffffffffffffffffffffffffffffffffffffffff1673ffffffffffffffffffffffffffffffffffffffff168152602001908152602001600020549050919050565b6108d36112d7565b73ffffffffffffffffffffffffffffffffffffffff166108f1610953565b73ffffffffffffffffffffffffffffffffffffffff1614610947576040517f08c379a000000000000000000000000000000000000000000000000000000000815260040161093e90612c17565b60405180910390fd5b61095160006116dd565b565b6000600660009054906101000a900473ffffffffffffffffffffffffffffffffffffffff16905090565b60606001805461098c90612f31565b80601f01602080910402602001604051908101604052809291908181526020018280546109b890612f31565b8015610a055780601f106109da57610100808354040283529160200191610a05565b820191906000526020600020905b8154815290600101906020018083116109e857829003601f168201915b5050505050905090565b610a21610a1a6112d7565b83836117a3565b5050565b60085481565b610a3c610a366112d7565b83611398565b610a7b576040517f08c379a0000000000000000000000000000000000000000000000000000000008152600401610a7290612c77565b60405180910390fd5b610a8784848484611910565b50505050565b60006040518061018001604052808d81526020018c81526020018b81526020018a8152602001898152602001888152602001878152602001600015158152602001868152602001858152602001848152602001831515815250600760006008548152602001908152602001600020600082015181600001556020820151816001019080519060200190610b21929190611ece565b506040820151816002019080519060200190610b3e929190611ece565b506060820151816003019080519060200190610b5b929190611ece565b506080820151816004015560a0820151816005015560c0820151816006015560e08201518160070160006101000a81548160ff021916908315150217905550610100820151816008019080519060200190610bb7929190611f54565b50610120820151816009015561014082015181600a019080519060200190610be0929190611ece565b5061016082015181600b0160006101000a81548160ff021916908315150217905550905050610c113360085461196c565b610c24610c1c610953565b6008546105c9565b600160086000828254610c379190612dc0565b925050819055506001600854610c4d9190612e47565b90509b9a5050505050505050505050565b6060610c698261126b565b610ca8576040517f08c379a0000000000000000000000000000000000000000000000000000000008152600401610c9f90612c37565b60405180910390fd5b6000610cb2611b46565b90506000815111610cd25760405180602001604052806000815250610cfd565b80610cdc84611b5d565b604051602001610ced9291906129cf565b6040516020818303038152906040525b915050919050565b6000600560008473ffffffffffffffffffffffffffffffffffffffff1673ffffffffffffffffffffffffffffffffffffffff16815260200190815260200160002060008373ffffffffffffffffffffffffffffffffffffffff1673ffffffffffffffffffffffffffffffffffffffff16815260200190815260200160002060009054906101000a900460ff16905092915050565b610da16112d7565b73ffffffffffffffffffffffffffffffffffffffff16610dbf610953565b73ffffffffffffffffffffffffffffffffffffffff1614610e15576040517f08c379a0000000000000000000000000000000000000000000000000000000008152600401610e0c90612c17565b60405180910390fd5b600073ffffffffffffffffffffffffffffffffffffffff168173ffffffffffffffffffffffffffffffffffffffff161415610e85576040517f08c379a0000000000000000000000000000000000000000000000000000000008152600401610e7c90612ab7565b60405180910390fd5b610e8e816116dd565b50565b610e99611fda565b600760008381526020019081526020016000206040518061018001604052908160008201548152602001600182018054610ed290612f31565b80601f0160208091040260200160405190810160405280929190818152602001828054610efe90612f31565b8015610f4b5780601f10610f2057610100808354040283529160200191610f4b565b820191906000526020600020905b815481529060010190602001808311610f2e57829003601f168201915b50505050508152602001600282018054610f6490612f31565b80601f0160208091040260200160405190810160405280929190818152602001828054610f9090612f31565b8015610fdd5780601f10610fb257610100808354040283529160200191610fdd565b820191906000526020600020905b815481529060010190602001808311610fc057829003601f168201915b50505050508152602001600382018054610ff690612f31565b80601f016020809104026020016040519081016040528092919081815260200182805461102290612f31565b801561106f5780601f106110445761010080835404028352916020019161106f565b820191906000526020600020905b81548152906001019060200180831161105257829003601f168201915b505050505081526020016004820154815260200160058201548152602001600682015481526020016007820160009054906101000a900460ff161515151581526020016008820180546110c190612f31565b80601f01602080910402602001604051908101604052809291908181526020018280546110ed90612f31565b801561113a5780601f1061110f5761010080835404028352916020019161113a565b820191906000526020600020905b81548152906001019060200180831161111d57829003601f168201915b5050505050815260200160098201548152602001600a8201805461115d90612f31565b80601f016020809104026020016040519081016040528092919081815260200182805461118990612f31565b80156111d65780601f106111ab576101008083540402835291602001916111d6565b820191906000526020600020905b8154815290600101906020018083116111b957829003601f168201915b50505050508152602001600b820160009054906101000a900460ff1615151515815250509050919050565b60007f01ffc9a7000000000000000000000000000000000000000000000000000000007bffffffffffffffffffffffffffffffffffffffffffffffffffffffff1916827bffffffffffffffffffffffffffffffffffffffffffffffffffffffff1916149050919050565b60008073ffffffffffffffffffffffffffffffffffffffff166002600084815260200190815260200160002060009054906101000a900473ffffffffffffffffffffffffffffffffffffffff1673ffffffffffffffffffffffffffffffffffffffff1614159050919050565b600033905090565b816004600083815260200190815260200160002060006101000a81548173ffffffffffffffffffffffffffffffffffffffff021916908373ffffffffffffffffffffffffffffffffffffffff160217905550808273ffffffffffffffffffffffffffffffffffffffff1661135283610761565b73ffffffffffffffffffffffffffffffffffffffff167f8c5be1e5ebec7d5bd14f71427d1e84f3dd0314c0f7b2291e5b200ac8c7c3b92560405160405180910390a45050565b60006113a38261126b565b6113e2576040517f08c379a00000000000000000000000000000000000000000000000000000000081526004016113d990612b57565b60405180910390fd5b60006113ed83610761565b90508073ffffffffffffffffffffffffffffffffffffffff168473ffffffffffffffffffffffffffffffffffffffff16148061145c57508373ffffffffffffffffffffffffffffffffffffffff1661144484610544565b73ffffffffffffffffffffffffffffffffffffffff16145b8061146d575061146c8185610d05565b5b91505092915050565b8273ffffffffffffffffffffffffffffffffffffffff1661149682610761565b73ffffffffffffffffffffffffffffffffffffffff16146114ec576040517f08c379a00000000000000000000000000000000000000000000000000000000081526004016114e390612ad7565b60405180910390fd5b600073ffffffffffffffffffffffffffffffffffffffff168273ffffffffffffffffffffffffffffffffffffffff16141561155c576040517f08c379a000000000000000000000000000000000000000000000000000000000815260040161155390612b17565b60405180910390fd5b611567838383611d0a565b6115726000826112df565b6001600360008573ffffffffffffffffffffffffffffffffffffffff1673ffffffffffffffffffffffffffffffffffffffff16815260200190815260200160002060008282546115c29190612e47565b925050819055506001600360008473ffffffffffffffffffffffffffffffffffffffff1673ffffffffffffffffffffffffffffffffffffffff16815260200190815260200160002060008282546116199190612dc0565b92505081905550816002600083815260200190815260200160002060006101000a81548173ffffffffffffffffffffffffffffffffffffffff021916908373ffffffffffffffffffffffffffffffffffffffff160217905550808273ffffffffffffffffffffffffffffffffffffffff168473ffffffffffffffffffffffffffffffffffffffff167fddf252ad1be2c89b69c2b068fc378daa952ba7f163c4a11628f55a4df523b3ef60405160405180910390a46116d8838383611d0f565b505050565b6000600660009054906101000a900473ffffffffffffffffffffffffffffffffffffffff16905081600660006101000a81548173ffffffffffffffffffffffffffffffffffffffff021916908373ffffffffffffffffffffffffffffffffffffffff1602179055508173ffffffffffffffffffffffffffffffffffffffff168173ffffffffffffffffffffffffffffffffffffffff167f8be0079c531659141344cd1fd0a4f28419497f9722a3daafe3b4186f6b6457e060405160405180910390a35050565b8173ffffffffffffffffffffffffffffffffffffffff168373ffffffffffffffffffffffffffffffffffffffff161415611812576040517f08c379a000000000000000000000000000000000000000000000000000000000815260040161180990612b37565b60405180910390fd5b80600560008573ffffffffffffffffffffffffffffffffffffffff1673ffffffffffffffffffffffffffffffffffffffff16815260200190815260200160002060008473ffffffffffffffffffffffffffffffffffffffff1673ffffffffffffffffffffffffffffffffffffffff16815260200190815260200160002060006101000a81548160ff0219169083151502179055508173ffffffffffffffffffffffffffffffffffffffff168373ffffffffffffffffffffffffffffffffffffffff167f17307eab39ab6107e8899845ad3d59bd9653f200f220920489ca2b5937696c31836040516119039190612a5a565b60405180910390a3505050565b61191b848484611476565b61192784848484611d14565b611966576040517f08c379a000000000000000000000000000000000000000000000000000000000815260040161195d90612a97565b60405180910390fd5b50505050565b600073ffffffffffffffffffffffffffffffffffffffff168273ffffffffffffffffffffffffffffffffffffffff1614156119dc576040517f08c379a00000000000000000000000000000000000000000000000000000000081526004016119d390612bd7565b60405180910390fd5b6119e58161126b565b15611a25576040517f08c379a0000000000000000000000000000000000000000000000000000000008152600401611a1c90612af7565b60405180910390fd5b611a3160008383611d0a565b6001600360008473ffffffffffffffffffffffffffffffffffffffff1673ffffffffffffffffffffffffffffffffffffffff1681526020019081526020016000206000828254611a819190612dc0565b92505081905550816002600083815260200190815260200160002060006101000a81548173ffffffffffffffffffffffffffffffffffffffff021916908373ffffffffffffffffffffffffffffffffffffffff160217905550808273ffffffffffffffffffffffffffffffffffffffff16600073ffffffffffffffffffffffffffffffffffffffff167fddf252ad1be2c89b69c2b068fc378daa952ba7f163c4a11628f55a4df523b3ef60405160405180910390a4611b4260008383611d0f565b5050565b606060405180602001604052806000815250905090565b60606000821415611ba5576040518060400160405280600181526020017f30000000000000000000000000000000000000000000000000000000000000008152509050611d05565b600082905060005b60008214611bd7578080611bc090612f94565b915050600a82611bd09190612e16565b9150611bad565b60008167ffffffffffffffff811115611c19577f4e487b7100000000000000000000000000000000000000000000000000000000600052604160045260246000fd5b6040519080825280601f01601f191660200182016040528015611c4b5781602001600182028036833780820191505090505b5090505b60008514611cfe57600182611c649190612e47565b9150600a85611c739190612fdd565b6030611c7f9190612dc0565b60f81b818381518110611cbb577f4e487b7100000000000000000000000000000000000000000000000000000000600052603260045260246000fd5b60200101907effffffffffffffffffffffffffffffffffffffffffffffffffffffffffffff1916908160001a905350600a85611cf79190612e16565b9450611c4f565b8093505050505b919050565b505050565b505050565b6000611d358473ffffffffffffffffffffffffffffffffffffffff16611eab565b15611e9e578373ffffffffffffffffffffffffffffffffffffffff1663150b7a02611d5e6112d7565b8786866040518563ffffffff1660e01b8152600401611d809493929190612a0e565b602060405180830381600087803b158015611d9a57600080fd5b505af1925050508015611dcb57506040513d601f19601f82011682018060405250810190611dc89190612365565b60015b611e4e573d8060008114611dfb576040519150601f19603f3d011682016040523d82523d6000602084013e611e00565b606091505b50600081511415611e46576040517f08c379a0000000000000000000000000000000000000000000000000000000008152600401611e3d90612a97565b60405180910390fd5b805181602001fd5b63150b7a0260e01b7bffffffffffffffffffffffffffffffffffffffffffffffffffffffff1916817bffffffffffffffffffffffffffffffffffffffffffffffffffffffff191614915050611ea3565b600190505b949350505050565b6000808273ffffffffffffffffffffffffffffffffffffffff163b119050919050565b828054611eda90612f31565b90600052602060002090601f016020900481019282611efc5760008555611f43565b82601f10611f1557805160ff1916838001178555611f43565b82800160010185558215611f43579182015b82811115611f42578251825591602001919060010190611f27565b5b509050611f50919061203f565b5090565b828054611f6090612f31565b90600052602060002090601f016020900481019282611f825760008555611fc9565b82601f10611f9b57805160ff1916838001178555611fc9565b82800160010185558215611fc9579182015b82811115611fc8578251825591602001919060010190611fad565b5b509050611fd6919061203f565b5090565b604051806101800160405280600081526020016060815260200160608152602001606081526020016000815260200160008152602001600081526020016000151581526020016060815260200160008152602001606081526020016000151581525090565b5b80821115612058576000816000905550600101612040565b5090565b600061206f61206a84612cf9565b612cd4565b90508281526020810184848401111561208757600080fd5b612092848285612eef565b509392505050565b60006120ad6120a884612d2a565b612cd4565b9050828152602081018484840111156120c557600080fd5b6120d0848285612eef565b509392505050565b6000813590506120e781613533565b92915050565b6000813590506120fc8161354a565b92915050565b60008135905061211181613561565b92915050565b60008151905061212681613561565b92915050565b600082601f83011261213d57600080fd5b813561214d84826020860161205c565b91505092915050565b600082601f83011261216757600080fd5b813561217784826020860161209a565b91505092915050565b60008135905061218f81613578565b92915050565b6000602082840312156121a757600080fd5b60006121b5848285016120d8565b91505092915050565b600080604083850312156121d157600080fd5b60006121df858286016120d8565b92505060206121f0858286016120d8565b9150509250929050565b60008060006060848603121561220f57600080fd5b600061221d868287016120d8565b935050602061222e868287016120d8565b925050604061223f86828701612180565b9150509250925092565b6000806000806080858703121561225f57600080fd5b600061226d878288016120d8565b945050602061227e878288016120d8565b935050604061228f87828801612180565b925050606085013567ffffffffffffffff8111156122ac57600080fd5b6122b88782880161212c565b91505092959194509250565b600080604083850312156122d757600080fd5b60006122e5858286016120d8565b92505060206122f6858286016120ed565b9150509250929050565b6000806040838503121561231357600080fd5b6000612321858286016120d8565b925050602061233285828601612180565b9150509250929050565b60006020828403121561234e57600080fd5b600061235c84828501612102565b91505092915050565b60006020828403121561237757600080fd5b600061238584828501612117565b91505092915050565b6000602082840312156123a057600080fd5b60006123ae84828501612180565b91505092915050565b60008060008060008060008060008060006101608c8e0312156123d957600080fd5b60006123e78e828f01612180565b9b505060208c013567ffffffffffffffff81111561240457600080fd5b6124108e828f01612156565b9a505060408c013567ffffffffffffffff81111561242d57600080fd5b6124398e828f01612156565b99505060608c013567ffffffffffffffff81111561245657600080fd5b6124628e828f01612156565b98505060806124738e828f01612180565b97505060a06124848e828f01612180565b96505060c06124958e828f01612180565b95505060e08c013567ffffffffffffffff8111156124b257600080fd5b6124be8e828f0161212c565b9450506101006124d08e828f01612180565b9350506101208c013567ffffffffffffffff8111156124ee57600080fd5b6124fa8e828f01612156565b92505061014061250c8e828f016120ed565b9150509295989b509295989b9093969950565b61252881612e7b565b82525050565b61253781612e8d565b82525050565b61254681612e8d565b82525050565b600061255782612d5b565b6125618185612d71565b9350612571818560208601612efe565b61257a816130ca565b840191505092915050565b600061259082612d5b565b61259a8185612d82565b93506125aa818560208601612efe565b6125b3816130ca565b840191505092915050565b60006125c982612d66565b6125d38185612d93565b93506125e3818560208601612efe565b6125ec816130ca565b840191505092915050565b600061260282612d66565b61260c8185612da4565b935061261c818560208601612efe565b612625816130ca565b840191505092915050565b600061263b82612d66565b6126458185612db5565b9350612655818560208601612efe565b80840191505092915050565b600061266e603283612da4565b9150612679826130db565b604082019050919050565b6000612691602683612da4565b915061269c8261312a565b604082019050919050565b60006126b4602583612da4565b91506126bf82613179565b604082019050919050565b60006126d7601c83612da4565b91506126e2826131c8565b602082019050919050565b60006126fa602483612da4565b9150612705826131f1565b604082019050919050565b600061271d601983612da4565b915061272882613240565b602082019050919050565b6000612740602c83612da4565b915061274b82613269565b604082019050919050565b6000612763603883612da4565b915061276e826132b8565b604082019050919050565b6000612786602a83612da4565b915061279182613307565b604082019050919050565b60006127a9602983612da4565b91506127b482613356565b604082019050919050565b60006127cc602083612da4565b91506127d7826133a5565b602082019050919050565b60006127ef602c83612da4565b91506127fa826133ce565b604082019050919050565b6000612812602083612da4565b915061281d8261341d565b602082019050919050565b6000612835602f83612da4565b915061284082613446565b604082019050919050565b6000612858602183612da4565b915061286382613495565b604082019050919050565b600061287b603183612da4565b9150612886826134e4565b604082019050919050565b6000610180830160008301516128aa60008601826129b1565b50602083015184820360208601526128c282826125be565b915050604083015184820360408601526128dc82826125be565b915050606083015184820360608601526128f682826125be565b915050608083015161290b60808601826129b1565b5060a083015161291e60a08601826129b1565b5060c083015161293160c08601826129b1565b5060e083015161294460e086018261252e565b5061010083015184820361010086015261295e828261254c565b9150506101208301516129756101208601826129b1565b5061014083015184820361014086015261298f82826125be565b9150506101608301516129a661016086018261252e565b508091505092915050565b6129ba81612ee5565b82525050565b6129c981612ee5565b82525050565b60006129db8285612630565b91506129e78284612630565b91508190509392505050565b6000602082019050612a08600083018461251f565b92915050565b6000608082019050612a23600083018761251f565b612a30602083018661251f565b612a3d60408301856129c0565b8181036060830152612a4f8184612585565b905095945050505050565b6000602082019050612a6f600083018461253d565b92915050565b60006020820190508181036000830152612a8f81846125f7565b905092915050565b60006020820190508181036000830152612ab081612661565b9050919050565b60006020820190508181036000830152612ad081612684565b9050919050565b60006020820190508181036000830152612af0816126a7565b9050919050565b60006020820190508181036000830152612b10816126ca565b9050919050565b60006020820190508181036000830152612b30816126ed565b9050919050565b60006020820190508181036000830152612b5081612710565b9050919050565b60006020820190508181036000830152612b7081612733565b9050919050565b60006020820190508181036000830152612b9081612756565b9050919050565b60006020820190508181036000830152612bb081612779565b9050919050565b60006020820190508181036000830152612bd08161279c565b9050919050565b60006020820190508181036000830152612bf0816127bf565b9050919050565b60006020820190508181036000830152612c10816127e2565b9050919050565b60006020820190508181036000830152612c3081612805565b9050919050565b60006020820190508181036000830152612c5081612828565b9050919050565b60006020820190508181036000830152612c708161284b565b9050919050565b60006020820190508181036000830152612c908161286e565b9050919050565b60006020820190508181036000830152612cb18184612891565b905092915050565b6000602082019050612cce60008301846129c0565b92915050565b6000612cde612cef565b9050612cea8282612f63565b919050565b6000604051905090565b600067ffffffffffffffff821115612d1457612d1361309b565b5b612d1d826130ca565b9050602081019050919050565b600067ffffffffffffffff821115612d4557612d4461309b565b5b612d4e826130ca565b9050602081019050919050565b600081519050919050565b600081519050919050565b600082825260208201905092915050565b600082825260208201905092915050565b600082825260208201905092915050565b600082825260208201905092915050565b600081905092915050565b6000612dcb82612ee5565b9150612dd683612ee5565b9250827fffffffffffffffffffffffffffffffffffffffffffffffffffffffffffffffff03821115612e0b57612e0a61300e565b5b828201905092915050565b6000612e2182612ee5565b9150612e2c83612ee5565b925082612e3c57612e3b61303d565b5b828204905092915050565b6000612e5282612ee5565b9150612e5d83612ee5565b925082821015612e7057612e6f61300e565b5b828203905092915050565b6000612e8682612ec5565b9050919050565b60008115159050919050565b60007fffffffff0000000000000000000000000000000000000000000000000000000082169050919050565b600073ffffffffffffffffffffffffffffffffffffffff82169050919050565b6000819050919050565b82818337600083830152505050565b60005b83811015612f1c578082015181840152602081019050612f01565b83811115612f2b576000848401525b50505050565b60006002820490506001821680612f4957607f821691505b60208210811415612f5d57612f5c61306c565b5b50919050565b612f6c826130ca565b810181811067ffffffffffffffff82111715612f8b57612f8a61309b565b5b80604052505050565b6000612f9f82612ee5565b91507fffffffffffffffffffffffffffffffffffffffffffffffffffffffffffffffff821415612fd257612fd161300e565b5b600182019050919050565b6000612fe882612ee5565b9150612ff383612ee5565b9250826130035761300261303d565b5b828206905092915050565b7f4e487b7100000000000000000000000000000000000000000000000000000000600052601160045260246000fd5b7f4e487b7100000000000000000000000000000000000000000000000000000000600052601260045260246000fd5b7f4e487b7100000000000000000000000000000000000000000000000000000000600052602260045260246000fd5b7f4e487b7100000000000000000000000000000000000000000000000000000000600052604160045260246000fd5b6000601f19601f8301169050919050565b7f4552433732313a207472616e7366657220746f206e6f6e20455243373231526560008201527f63656976657220696d706c656d656e7465720000000000000000000000000000602082015250565b7f4f776e61626c653a206e6577206f776e657220697320746865207a65726f206160008201527f6464726573730000000000000000000000000000000000000000000000000000602082015250565b7f4552433732313a207472616e736665722066726f6d20696e636f72726563742060008201527f6f776e6572000000000000000000000000000000000000000000000000000000602082015250565b7f4552433732313a20746f6b656e20616c7265616479206d696e74656400000000600082015250565b7f4552433732313a207472616e7366657220746f20746865207a65726f2061646460008201527f7265737300000000000000000000000000000000000000000000000000000000602082015250565b7f4552433732313a20617070726f766520746f2063616c6c657200000000000000600082015250565b7f4552433732313a206f70657261746f7220717565727920666f72206e6f6e657860008201527f697374656e7420746f6b656e0000000000000000000000000000000000000000602082015250565b7f4552433732313a20617070726f76652063616c6c6572206973206e6f74206f7760008201527f6e6572206e6f7220617070726f76656420666f7220616c6c0000000000000000602082015250565b7f4552433732313a2062616c616e636520717565727920666f7220746865207a6560008201527f726f206164647265737300000000000000000000000000000000000000000000602082015250565b7f4552433732313a206f776e657220717565727920666f72206e6f6e657869737460008201527f656e7420746f6b656e0000000000000000000000000000000000000000000000602082015250565b7f4552433732313a206d696e7420746f20746865207a65726f2061646472657373600082015250565b7f4552433732313a20617070726f76656420717565727920666f72206e6f6e657860008201527f697374656e7420746f6b656e0000000000000000000000000000000000000000602082015250565b7f4f776e61626c653a2063616c6c6572206973206e6f7420746865206f776e6572600082015250565b7f4552433732314d657461646174613a2055524920717565727920666f72206e6f60008201527f6e6578697374656e7420746f6b656e0000000000000000000000000000000000602082015250565b7f4552433732313a20617070726f76616c20746f2063757272656e74206f776e6560008201527f7200000000000000000000000000000000000000000000000000000000000000602082015250565b7f4552433732313a207472616e736665722063616c6c6572206973206e6f74206f60008201527f776e6572206e6f7220617070726f766564000000000000000000000000000000602082015250565b61353c81612e7b565b811461354757600080fd5b50565b61355381612e8d565b811461355e57600080fd5b50565b61356a81612e99565b811461357557600080fd5b50565b61358181612ee5565b811461358c57600080fd5b5056fea2646970667358221220fec10cc52c5ef796ec901673da8415ca37507f36fa22b9d22a7bf31842a0776764736f6c63430008010033",
  "immutableReferences": {},
  "source": "// SPDX-License-Identifier: MIT\r\n\r\npragma solidity ^0.8.1;\r\n\r\nimport \"@openzeppelin/contracts/token/ERC721/ERC721.sol\";\r\nimport \"@openzeppelin/contracts/access/Ownable.sol\";\r\n\r\ncontract LandRegistration is ERC721, Ownable {\r\n    constructor() ERC721(\"Land\", \"LND\") {}\r\n\r\n    struct LandDetail {\r\n        uint256 surveyNo;\r\n        string district;\r\n        string taluk;\r\n        string village;\r\n        uint256 blockNo;\r\n        uint256 landValue; // in wei\r\n        uint256 area;\r\n        bool salesStatus;\r\n        bytes documentHash;\r\n        uint256 expiry;\r\n        string bidType;\r\n        bool expired;\r\n    }\r\n\r\n    mapping(uint256 => LandDetail) LandDetails;\r\n\r\n    uint256 public registeredLandCount = 0;\r\n\r\n    function registerNewLand(\r\n        uint256 surveyNo,\r\n        string memory district,\r\n        string memory taluk,\r\n        string memory village,\r\n        uint256 blockNo,\r\n        uint256 landValue,\r\n        uint256 area,\r\n        bytes memory documentHash,\r\n        uint256 expiry,\r\n        string memory bidType,\r\n        bool expired\r\n    ) public returns (uint256) {\r\n        //function registerNewLand(uint surveyNo, string memory district, string memory taluk, string memory village, uint blockNo, uint landValue, uint area) public {\r\n        LandDetails[registeredLandCount] = LandDetail(\r\n            surveyNo,\r\n            district,\r\n            taluk,\r\n            village,\r\n            blockNo,\r\n            landValue,\r\n            area,\r\n            false,\r\n            documentHash,\r\n            expiry,\r\n            bidType,\r\n            expired\r\n        );\r\n\r\n        //LandDetails[registeredLandCount] = LandDetail(surveyNo, district, taluk, village, blockNo, landValue, area, false);\r\n        _mint(msg.sender, registeredLandCount);\r\n        //setApprovalForAll(owner(), true);\r\n        approve(owner(), registeredLandCount);\r\n        registeredLandCount += 1;\r\n\r\n        return (registeredLandCount - 1);\r\n    }\r\n\r\n    function getLandDetails(uint256 landID)\r\n        public\r\n        view\r\n        returns (LandDetail memory)\r\n    {\r\n        return LandDetails[landID];\r\n    }\r\n}\r\n",
  "sourcePath": "D:\\GitHub\\Ethereum-LandSale\\contracts\\Land.sol",
  "compiler": {
    "name": "solc",
    "version": "0.8.1+commit.df193b15.Emscripten.clang"
  },
  "schemaVersion": "3.4.5",
  "updatedAt": "2022-03-19T10:04:36.472Z",
  "devdoc": {
    "kind": "dev",
    "methods": {
      "approve(address,uint256)": {
        "details": "See {IERC721-approve}."
      },
      "balanceOf(address)": {
        "details": "See {IERC721-balanceOf}."
      },
      "getApproved(uint256)": {
        "details": "See {IERC721-getApproved}."
      },
      "isApprovedForAll(address,address)": {
        "details": "See {IERC721-isApprovedForAll}."
      },
      "name()": {
        "details": "See {IERC721Metadata-name}."
      },
      "owner()": {
        "details": "Returns the address of the current owner."
      },
      "ownerOf(uint256)": {
        "details": "See {IERC721-ownerOf}."
      },
      "renounceOwnership()": {
        "details": "Leaves the contract without owner. It will not be possible to call `onlyOwner` functions anymore. Can only be called by the current owner. NOTE: Renouncing ownership will leave the contract without an owner, thereby removing any functionality that is only available to the owner."
      },
      "safeTransferFrom(address,address,uint256)": {
        "details": "See {IERC721-safeTransferFrom}."
      },
      "safeTransferFrom(address,address,uint256,bytes)": {
        "details": "See {IERC721-safeTransferFrom}."
      },
      "setApprovalForAll(address,bool)": {
        "details": "See {IERC721-setApprovalForAll}."
      },
      "supportsInterface(bytes4)": {
        "details": "See {IERC165-supportsInterface}."
      },
      "symbol()": {
        "details": "See {IERC721Metadata-symbol}."
      },
      "tokenURI(uint256)": {
        "details": "See {IERC721Metadata-tokenURI}."
      },
      "transferFrom(address,address,uint256)": {
        "details": "See {IERC721-transferFrom}."
      },
      "transferOwnership(address)": {
        "details": "Transfers ownership of the contract to a new account (`newOwner`). Can only be called by the current owner."
      }
    },
    "version": 1
  },
  "userdoc": {
    "kind": "user",
    "methods": {},
    "version": 1
  }
}