{
  "contractName": "LandRegistration",
  "abi": [
    {
      "inputs": [],
      "stateMutability": "nonpayable",
      "type": "constructor"
    },
    {
      "anonymous": false,
      "inputs": [
        {
          "indexed": true,
          "internalType": "address",
          "name": "owner",
          "type": "address"
        },
        {
          "indexed": true,
          "internalType": "address",
          "name": "approved",
          "type": "address"
        },
        {
          "indexed": true,
          "internalType": "uint256",
          "name": "tokenId",
          "type": "uint256"
        }
      ],
      "name": "Approval",
      "type": "event"
    },
    {
      "anonymous": false,
      "inputs": [
        {
          "indexed": true,
          "internalType": "address",
          "name": "owner",
          "type": "address"
        },
        {
          "indexed": true,
          "internalType": "address",
          "name": "operator",
          "type": "address"
        },
        {
          "indexed": false,
          "internalType": "bool",
          "name": "approved",
          "type": "bool"
        }
      ],
      "name": "ApprovalForAll",
      "type": "event"
    },
    {
      "anonymous": false,
      "inputs": [
        {
          "indexed": true,
          "internalType": "address",
          "name": "from",
          "type": "address"
        },
        {
          "indexed": true,
          "internalType": "address",
          "name": "to",
          "type": "address"
        },
        {
          "indexed": true,
          "internalType": "uint256",
          "name": "tokenId",
          "type": "uint256"
        }
      ],
      "name": "Transfer",
      "type": "event"
    },
    {
      "inputs": [
        {
          "internalType": "address",
          "name": "to",
          "type": "address"
        },
        {
          "internalType": "uint256",
          "name": "tokenId",
          "type": "uint256"
        }
      ],
      "name": "approve",
      "outputs": [],
      "stateMutability": "nonpayable",
      "type": "function"
    },
    {
      "inputs": [
        {
          "internalType": "address",
          "name": "owner",
          "type": "address"
        }
      ],
      "name": "balanceOf",
      "outputs": [
        {
          "internalType": "uint256",
          "name": "",
          "type": "uint256"
        }
      ],
      "stateMutability": "view",
      "type": "function"
    },
    {
      "inputs": [
        {
          "internalType": "uint256",
          "name": "tokenId",
          "type": "uint256"
        }
      ],
      "name": "getApproved",
      "outputs": [
        {
          "internalType": "address",
          "name": "",
          "type": "address"
        }
      ],
      "stateMutability": "view",
      "type": "function"
    },
    {
      "inputs": [
        {
          "internalType": "address",
          "name": "owner",
          "type": "address"
        },
        {
          "internalType": "address",
          "name": "operator",
          "type": "address"
        }
      ],
      "name": "isApprovedForAll",
      "outputs": [
        {
          "internalType": "bool",
          "name": "",
          "type": "bool"
        }
      ],
      "stateMutability": "view",
      "type": "function"
    },
    {
      "inputs": [],
      "name": "name",
      "outputs": [
        {
          "internalType": "string",
          "name": "",
          "type": "string"
        }
      ],
      "stateMutability": "view",
      "type": "function"
    },
    {
      "inputs": [
        {
          "internalType": "uint256",
          "name": "tokenId",
          "type": "uint256"
        }
      ],
      "name": "ownerOf",
      "outputs": [
        {
          "internalType": "address",
          "name": "",
          "type": "address"
        }
      ],
      "stateMutability": "view",
      "type": "function"
    },
    {
      "inputs": [],
      "name": "registeredLandCount",
      "outputs": [
        {
          "internalType": "uint256",
          "name": "",
          "type": "uint256"
        }
      ],
      "stateMutability": "view",
      "type": "function"
    },
    {
      "inputs": [
        {
          "internalType": "address",
          "name": "from",
          "type": "address"
        },
        {
          "internalType": "address",
          "name": "to",
          "type": "address"
        },
        {
          "internalType": "uint256",
          "name": "tokenId",
          "type": "uint256"
        }
      ],
      "name": "safeTransferFrom",
      "outputs": [],
      "stateMutability": "nonpayable",
      "type": "function"
    },
    {
      "inputs": [
        {
          "internalType": "address",
          "name": "from",
          "type": "address"
        },
        {
          "internalType": "address",
          "name": "to",
          "type": "address"
        },
        {
          "internalType": "uint256",
          "name": "tokenId",
          "type": "uint256"
        },
        {
          "internalType": "bytes",
          "name": "_data",
          "type": "bytes"
        }
      ],
      "name": "safeTransferFrom",
      "outputs": [],
      "stateMutability": "nonpayable",
      "type": "function"
    },
    {
      "inputs": [
        {
          "internalType": "address",
          "name": "operator",
          "type": "address"
        },
        {
          "internalType": "bool",
          "name": "approved",
          "type": "bool"
        }
      ],
      "name": "setApprovalForAll",
      "outputs": [],
      "stateMutability": "nonpayable",
      "type": "function"
    },
    {
      "inputs": [
        {
          "internalType": "bytes4",
          "name": "interfaceId",
          "type": "bytes4"
        }
      ],
      "name": "supportsInterface",
      "outputs": [
        {
          "internalType": "bool",
          "name": "",
          "type": "bool"
        }
      ],
      "stateMutability": "view",
      "type": "function"
    },
    {
      "inputs": [],
      "name": "symbol",
      "outputs": [
        {
          "internalType": "string",
          "name": "",
          "type": "string"
        }
      ],
      "stateMutability": "view",
      "type": "function"
    },
    {
      "inputs": [
        {
          "internalType": "uint256",
          "name": "tokenId",
          "type": "uint256"
        }
      ],
      "name": "tokenURI",
      "outputs": [
        {
          "internalType": "string",
          "name": "",
          "type": "string"
        }
      ],
      "stateMutability": "view",
      "type": "function"
    },
    {
      "inputs": [
        {
          "internalType": "address",
          "name": "from",
          "type": "address"
        },
        {
          "internalType": "address",
          "name": "to",
          "type": "address"
        },
        {
          "internalType": "uint256",
          "name": "tokenId",
          "type": "uint256"
        }
      ],
      "name": "transferFrom",
      "outputs": [],
      "stateMutability": "nonpayable",
      "type": "function"
    },
    {
      "inputs": [
        {
          "internalType": "uint256",
          "name": "surveyNo",
          "type": "uint256"
        },
        {
          "internalType": "string",
          "name": "district",
          "type": "string"
        },
        {
          "internalType": "string",
          "name": "taluk",
          "type": "string"
        },
        {
          "internalType": "string",
          "name": "village",
          "type": "string"
        },
        {
          "internalType": "uint256",
          "name": "blockNo",
          "type": "uint256"
        },
        {
          "internalType": "uint256",
          "name": "landValue",
          "type": "uint256"
        },
        {
          "internalType": "uint256",
          "name": "area",
          "type": "uint256"
        }
      ],
      "name": "registerNewLand",
      "outputs": [],
      "stateMutability": "nonpayable",
      "type": "function"
    },
    {
      "inputs": [
        {
          "internalType": "uint256",
          "name": "landID",
          "type": "uint256"
        }
      ],
      "name": "getLandDetails",
      "outputs": [
        {
          "components": [
            {
              "internalType": "uint256",
              "name": "surveyNo",
              "type": "uint256"
            },
            {
              "internalType": "string",
              "name": "district",
              "type": "string"
            },
            {
              "internalType": "string",
              "name": "taluk",
              "type": "string"
            },
            {
              "internalType": "string",
              "name": "village",
              "type": "string"
            },
            {
              "internalType": "uint256",
              "name": "blockNo",
              "type": "uint256"
            },
            {
              "internalType": "uint256",
              "name": "landValue",
              "type": "uint256"
            },
            {
              "internalType": "uint256",
              "name": "area",
              "type": "uint256"
            },
            {
              "internalType": "bool",
              "name": "salesStatus",
              "type": "bool"
            }
          ],
          "internalType": "struct LandRegistration.LandDetail",
          "name": "",
          "type": "tuple"
        }
      ],
      "stateMutability": "view",
      "type": "function"
    }
  ],
  "bytecode": "0x608060405260006007553480156200001657600080fd5b506040518060400160405280600481526020017f4c616e64000000000000000000000000000000000000000000000000000000008152506040518060400160405280600381526020017f4c4e44000000000000000000000000000000000000000000000000000000000081525081600090805190602001906200009b929190620000bd565b508060019080519060200190620000b4929190620000bd565b505050620001d2565b828054620000cb906200016d565b90600052602060002090601f016020900481019282620000ef57600085556200013b565b82601f106200010a57805160ff19168380011785556200013b565b828001600101855582156200013b579182015b828111156200013a5782518255916020019190600101906200011d565b5b5090506200014a91906200014e565b5090565b5b80821115620001695760008160009055506001016200014f565b5090565b600060028204905060018216806200018657607f821691505b602082108114156200019d576200019c620001a3565b5b50919050565b7f4e487b7100000000000000000000000000000000000000000000000000000000600052602260045260246000fd5b612e1580620001e26000396000f3fe608060405234801561001057600080fd5b50600436106101005760003560e01c806395d89b4111610097578063c87b56dd11610066578063c87b56dd146102ab578063e985e9c5146102db578063f07706651461030b578063fe0cb7dc1461032757610100565b806395d89b4114610237578063a22cb46514610255578063a7613a7d14610271578063b88d4fde1461028f57610100565b806323b872dd116100d357806323b872dd1461019f57806342842e0e146101bb5780636352211e146101d757806370a082311461020757610100565b806301ffc9a71461010557806306fdde0314610135578063081812fc14610153578063095ea7b314610183575b600080fd5b61011f600480360381019061011a9190611db8565b610357565b60405161012c9190612373565b60405180910390f35b61013d610439565b60405161014a919061238e565b60405180910390f35b61016d60048036038101906101689190611e0a565b6104cb565b60405161017a919061230c565b60405180910390f35b61019d60048036038101906101989190611d7c565b610550565b005b6101b960048036038101906101b49190611c76565b610668565b005b6101d560048036038101906101d09190611c76565b6106c8565b005b6101f160048036038101906101ec9190611e0a565b6106e8565b6040516101fe919061230c565b60405180910390f35b610221600480360381019061021c9190611c11565b61079a565b60405161022e9190612592565b60405180910390f35b61023f610852565b60405161024c919061238e565b60405180910390f35b61026f600480360381019061026a9190611d40565b6108e4565b005b6102796108fa565b6040516102869190612592565b60405180910390f35b6102a960048036038101906102a49190611cc5565b610900565b005b6102c560048036038101906102c09190611e0a565b610962565b6040516102d2919061238e565b60405180910390f35b6102f560048036038101906102f09190611c3a565b610a09565b6040516103029190612373565b60405180910390f35b61032560048036038101906103209190611e33565b610a9d565b005b610341600480360381019061033c9190611e0a565b610bc0565b60405161034e9190612570565b60405180910390f35b60007f80ac58cd000000000000000000000000000000000000000000000000000000007bffffffffffffffffffffffffffffffffffffffffffffffffffffffff1916827bffffffffffffffffffffffffffffffffffffffffffffffffffffffff1916148061042257507f5b5e139f000000000000000000000000000000000000000000000000000000007bffffffffffffffffffffffffffffffffffffffffffffffffffffffff1916827bffffffffffffffffffffffffffffffffffffffffffffffffffffffff1916145b80610432575061043182610de7565b5b9050919050565b606060008054610448906127f9565b80601f0160208091040260200160405190810160405280929190818152602001828054610474906127f9565b80156104c15780601f10610496576101008083540402835291602001916104c1565b820191906000526020600020905b8154815290600101906020018083116104a457829003601f168201915b5050505050905090565b60006104d682610e51565b610515576040517f08c379a000000000000000000000000000000000000000000000000000000000815260040161050c906124f0565b60405180910390fd5b6004600083815260200190815260200160002060009054906101000a900473ffffffffffffffffffffffffffffffffffffffff169050919050565b600061055b826106e8565b90508073ffffffffffffffffffffffffffffffffffffffff168373ffffffffffffffffffffffffffffffffffffffff1614156105cc576040517f08c379a00000000000000000000000000000000000000000000000000000000081526004016105c390612530565b60405180910390fd5b8073ffffffffffffffffffffffffffffffffffffffff166105eb610ebd565b73ffffffffffffffffffffffffffffffffffffffff16148061061a575061061981610614610ebd565b610a09565b5b610659576040517f08c379a000000000000000000000000000000000000000000000000000000000815260040161065090612470565b60405180910390fd5b6106638383610ec5565b505050565b610679610673610ebd565b82610f7e565b6106b8576040517f08c379a00000000000000000000000000000000000000000000000000000000081526004016106af90612550565b60405180910390fd5b6106c383838361105c565b505050565b6106e383838360405180602001604052806000815250610900565b505050565b6000806002600084815260200190815260200160002060009054906101000a900473ffffffffffffffffffffffffffffffffffffffff169050600073ffffffffffffffffffffffffffffffffffffffff168173ffffffffffffffffffffffffffffffffffffffff161415610791576040517f08c379a0000000000000000000000000000000000000000000000000000000008152600401610788906124b0565b60405180910390fd5b80915050919050565b60008073ffffffffffffffffffffffffffffffffffffffff168273ffffffffffffffffffffffffffffffffffffffff16141561080b576040517f08c379a000000000000000000000000000000000000000000000000000000000815260040161080290612490565b60405180910390fd5b600360008373ffffffffffffffffffffffffffffffffffffffff1673ffffffffffffffffffffffffffffffffffffffff168152602001908152602001600020549050919050565b606060018054610861906127f9565b80601f016020809104026020016040519081016040528092919081815260200182805461088d906127f9565b80156108da5780601f106108af576101008083540402835291602001916108da565b820191906000526020600020905b8154815290600101906020018083116108bd57829003601f168201915b5050505050905090565b6108f66108ef610ebd565b83836112c3565b5050565b60075481565b61091161090b610ebd565b83610f7e565b610950576040517f08c379a000000000000000000000000000000000000000000000000000000000815260040161094790612550565b60405180910390fd5b61095c84848484611430565b50505050565b606061096d82610e51565b6109ac576040517f08c379a00000000000000000000000000000000000000000000000000000000081526004016109a390612510565b60405180910390fd5b60006109b661148c565b905060008151116109d65760405180602001604052806000815250610a01565b806109e0846114a3565b6040516020016109f19291906122e8565b6040516020818303038152906040525b915050919050565b6000600560008473ffffffffffffffffffffffffffffffffffffffff1673ffffffffffffffffffffffffffffffffffffffff16815260200190815260200160002060008373ffffffffffffffffffffffffffffffffffffffff1673ffffffffffffffffffffffffffffffffffffffff16815260200190815260200160002060009054906101000a900460ff16905092915050565b60405180610100016040528088815260200187815260200186815260200185815260200184815260200183815260200182815260200160001515815250600660006007548152602001908152602001600020600082015181600001556020820151816001019080519060200190610b159291906119ee565b506040820151816002019080519060200190610b329291906119ee565b506060820151816003019080519060200190610b4f9291906119ee565b506080820151816004015560a0820151816005015560c0820151816006015560e08201518160070160006101000a81548160ff021916908315150217905550905050610b9d33600754611650565b600160076000828254610bb09190612688565b9250508190555050505050505050565b610bc8611a74565b600660008381526020019081526020016000206040518061010001604052908160008201548152602001600182018054610c01906127f9565b80601f0160208091040260200160405190810160405280929190818152602001828054610c2d906127f9565b8015610c7a5780601f10610c4f57610100808354040283529160200191610c7a565b820191906000526020600020905b815481529060010190602001808311610c5d57829003601f168201915b50505050508152602001600282018054610c93906127f9565b80601f0160208091040260200160405190810160405280929190818152602001828054610cbf906127f9565b8015610d0c5780601f10610ce157610100808354040283529160200191610d0c565b820191906000526020600020905b815481529060010190602001808311610cef57829003601f168201915b50505050508152602001600382018054610d25906127f9565b80601f0160208091040260200160405190810160405280929190818152602001828054610d51906127f9565b8015610d9e5780601f10610d7357610100808354040283529160200191610d9e565b820191906000526020600020905b815481529060010190602001808311610d8157829003601f168201915b505050505081526020016004820154815260200160058201548152602001600682015481526020016007820160009054906101000a900460ff1615151515815250509050919050565b60007f01ffc9a7000000000000000000000000000000000000000000000000000000007bffffffffffffffffffffffffffffffffffffffffffffffffffffffff1916827bffffffffffffffffffffffffffffffffffffffffffffffffffffffff1916149050919050565b60008073ffffffffffffffffffffffffffffffffffffffff166002600084815260200190815260200160002060009054906101000a900473ffffffffffffffffffffffffffffffffffffffff1673ffffffffffffffffffffffffffffffffffffffff1614159050919050565b600033905090565b816004600083815260200190815260200160002060006101000a81548173ffffffffffffffffffffffffffffffffffffffff021916908373ffffffffffffffffffffffffffffffffffffffff160217905550808273ffffffffffffffffffffffffffffffffffffffff16610f38836106e8565b73ffffffffffffffffffffffffffffffffffffffff167f8c5be1e5ebec7d5bd14f71427d1e84f3dd0314c0f7b2291e5b200ac8c7c3b92560405160405180910390a45050565b6000610f8982610e51565b610fc8576040517f08c379a0000000000000000000000000000000000000000000000000000000008152600401610fbf90612450565b60405180910390fd5b6000610fd3836106e8565b90508073ffffffffffffffffffffffffffffffffffffffff168473ffffffffffffffffffffffffffffffffffffffff16148061104257508373ffffffffffffffffffffffffffffffffffffffff1661102a846104cb565b73ffffffffffffffffffffffffffffffffffffffff16145b8061105357506110528185610a09565b5b91505092915050565b8273ffffffffffffffffffffffffffffffffffffffff1661107c826106e8565b73ffffffffffffffffffffffffffffffffffffffff16146110d2576040517f08c379a00000000000000000000000000000000000000000000000000000000081526004016110c9906123d0565b60405180910390fd5b600073ffffffffffffffffffffffffffffffffffffffff168273ffffffffffffffffffffffffffffffffffffffff161415611142576040517f08c379a000000000000000000000000000000000000000000000000000000000815260040161113990612410565b60405180910390fd5b61114d83838361182a565b611158600082610ec5565b6001600360008573ffffffffffffffffffffffffffffffffffffffff1673ffffffffffffffffffffffffffffffffffffffff16815260200190815260200160002060008282546111a8919061270f565b925050819055506001600360008473ffffffffffffffffffffffffffffffffffffffff1673ffffffffffffffffffffffffffffffffffffffff16815260200190815260200160002060008282546111ff9190612688565b92505081905550816002600083815260200190815260200160002060006101000a81548173ffffffffffffffffffffffffffffffffffffffff021916908373ffffffffffffffffffffffffffffffffffffffff160217905550808273ffffffffffffffffffffffffffffffffffffffff168473ffffffffffffffffffffffffffffffffffffffff167fddf252ad1be2c89b69c2b068fc378daa952ba7f163c4a11628f55a4df523b3ef60405160405180910390a46112be83838361182f565b505050565b8173ffffffffffffffffffffffffffffffffffffffff168373ffffffffffffffffffffffffffffffffffffffff161415611332576040517f08c379a000000000000000000000000000000000000000000000000000000000815260040161132990612430565b60405180910390fd5b80600560008573ffffffffffffffffffffffffffffffffffffffff1673ffffffffffffffffffffffffffffffffffffffff16815260200190815260200160002060008473ffffffffffffffffffffffffffffffffffffffff1673ffffffffffffffffffffffffffffffffffffffff16815260200190815260200160002060006101000a81548160ff0219169083151502179055508173ffffffffffffffffffffffffffffffffffffffff168373ffffffffffffffffffffffffffffffffffffffff167f17307eab39ab6107e8899845ad3d59bd9653f200f220920489ca2b5937696c31836040516114239190612373565b60405180910390a3505050565b61143b84848461105c565b61144784848484611834565b611486576040517f08c379a000000000000000000000000000000000000000000000000000000000815260040161147d906123b0565b60405180910390fd5b50505050565b606060405180602001604052806000815250905090565b606060008214156114eb576040518060400160405280600181526020017f3000000000000000000000000000000000000000000000000000000000000000815250905061164b565b600082905060005b6000821461151d5780806115069061285c565b915050600a8261151691906126de565b91506114f3565b60008167ffffffffffffffff81111561155f577f4e487b7100000000000000000000000000000000000000000000000000000000600052604160045260246000fd5b6040519080825280601f01601f1916602001820160405280156115915781602001600182028036833780820191505090505b5090505b60008514611644576001826115aa919061270f565b9150600a856115b991906128a5565b60306115c59190612688565b60f81b818381518110611601577f4e487b7100000000000000000000000000000000000000000000000000000000600052603260045260246000fd5b60200101907effffffffffffffffffffffffffffffffffffffffffffffffffffffffffffff1916908160001a905350600a8561163d91906126de565b9450611595565b8093505050505b919050565b600073ffffffffffffffffffffffffffffffffffffffff168273ffffffffffffffffffffffffffffffffffffffff1614156116c0576040517f08c379a00000000000000000000000000000000000000000000000000000000081526004016116b7906124d0565b60405180910390fd5b6116c981610e51565b15611709576040517f08c379a0000000000000000000000000000000000000000000000000000000008152600401611700906123f0565b60405180910390fd5b6117156000838361182a565b6001600360008473ffffffffffffffffffffffffffffffffffffffff1673ffffffffffffffffffffffffffffffffffffffff16815260200190815260200160002060008282546117659190612688565b92505081905550816002600083815260200190815260200160002060006101000a81548173ffffffffffffffffffffffffffffffffffffffff021916908373ffffffffffffffffffffffffffffffffffffffff160217905550808273ffffffffffffffffffffffffffffffffffffffff16600073ffffffffffffffffffffffffffffffffffffffff167fddf252ad1be2c89b69c2b068fc378daa952ba7f163c4a11628f55a4df523b3ef60405160405180910390a46118266000838361182f565b5050565b505050565b505050565b60006118558473ffffffffffffffffffffffffffffffffffffffff166119cb565b156119be578373ffffffffffffffffffffffffffffffffffffffff1663150b7a0261187e610ebd565b8786866040518563ffffffff1660e01b81526004016118a09493929190612327565b602060405180830381600087803b1580156118ba57600080fd5b505af19250505080156118eb57506040513d601f19601f820116820180604052508101906118e89190611de1565b60015b61196e573d806000811461191b576040519150601f19603f3d011682016040523d82523d6000602084013e611920565b606091505b50600081511415611966576040517f08c379a000000000000000000000000000000000000000000000000000000000815260040161195d906123b0565b60405180910390fd5b805181602001fd5b63150b7a0260e01b7bffffffffffffffffffffffffffffffffffffffffffffffffffffffff1916817bffffffffffffffffffffffffffffffffffffffffffffffffffffffff1916149150506119c3565b600190505b949350505050565b6000808273ffffffffffffffffffffffffffffffffffffffff163b119050919050565b8280546119fa906127f9565b90600052602060002090601f016020900481019282611a1c5760008555611a63565b82601f10611a3557805160ff1916838001178555611a63565b82800160010185558215611a63579182015b82811115611a62578251825591602001919060010190611a47565b5b509050611a709190611abb565b5090565b604051806101000160405280600081526020016060815260200160608152602001606081526020016000815260200160008152602001600081526020016000151581525090565b5b80821115611ad4576000816000905550600101611abc565b5090565b6000611aeb611ae6846125d2565b6125ad565b905082815260208101848484011115611b0357600080fd5b611b0e8482856127b7565b509392505050565b6000611b29611b2484612603565b6125ad565b905082815260208101848484011115611b4157600080fd5b611b4c8482856127b7565b509392505050565b600081359050611b6381612d83565b92915050565b600081359050611b7881612d9a565b92915050565b600081359050611b8d81612db1565b92915050565b600081519050611ba281612db1565b92915050565b600082601f830112611bb957600080fd5b8135611bc9848260208601611ad8565b91505092915050565b600082601f830112611be357600080fd5b8135611bf3848260208601611b16565b91505092915050565b600081359050611c0b81612dc8565b92915050565b600060208284031215611c2357600080fd5b6000611c3184828501611b54565b91505092915050565b60008060408385031215611c4d57600080fd5b6000611c5b85828601611b54565b9250506020611c6c85828601611b54565b9150509250929050565b600080600060608486031215611c8b57600080fd5b6000611c9986828701611b54565b9350506020611caa86828701611b54565b9250506040611cbb86828701611bfc565b9150509250925092565b60008060008060808587031215611cdb57600080fd5b6000611ce987828801611b54565b9450506020611cfa87828801611b54565b9350506040611d0b87828801611bfc565b925050606085013567ffffffffffffffff811115611d2857600080fd5b611d3487828801611ba8565b91505092959194509250565b60008060408385031215611d5357600080fd5b6000611d6185828601611b54565b9250506020611d7285828601611b69565b9150509250929050565b60008060408385031215611d8f57600080fd5b6000611d9d85828601611b54565b9250506020611dae85828601611bfc565b9150509250929050565b600060208284031215611dca57600080fd5b6000611dd884828501611b7e565b91505092915050565b600060208284031215611df357600080fd5b6000611e0184828501611b93565b91505092915050565b600060208284031215611e1c57600080fd5b6000611e2a84828501611bfc565b91505092915050565b600080600080600080600060e0888a031215611e4e57600080fd5b6000611e5c8a828b01611bfc565b975050602088013567ffffffffffffffff811115611e7957600080fd5b611e858a828b01611bd2565b965050604088013567ffffffffffffffff811115611ea257600080fd5b611eae8a828b01611bd2565b955050606088013567ffffffffffffffff811115611ecb57600080fd5b611ed78a828b01611bd2565b9450506080611ee88a828b01611bfc565b93505060a0611ef98a828b01611bfc565b92505060c0611f0a8a828b01611bfc565b91505092959891949750929550565b611f2281612743565b82525050565b611f3181612755565b82525050565b611f4081612755565b82525050565b6000611f5182612634565b611f5b818561264a565b9350611f6b8185602086016127c6565b611f7481612992565b840191505092915050565b6000611f8a8261263f565b611f94818561265b565b9350611fa48185602086016127c6565b611fad81612992565b840191505092915050565b6000611fc38261263f565b611fcd818561266c565b9350611fdd8185602086016127c6565b611fe681612992565b840191505092915050565b6000611ffc8261263f565b612006818561267d565b93506120168185602086016127c6565b80840191505092915050565b600061202f60328361266c565b915061203a826129a3565b604082019050919050565b600061205260258361266c565b915061205d826129f2565b604082019050919050565b6000612075601c8361266c565b915061208082612a41565b602082019050919050565b600061209860248361266c565b91506120a382612a6a565b604082019050919050565b60006120bb60198361266c565b91506120c682612ab9565b602082019050919050565b60006120de602c8361266c565b91506120e982612ae2565b604082019050919050565b600061210160388361266c565b915061210c82612b31565b604082019050919050565b6000612124602a8361266c565b915061212f82612b80565b604082019050919050565b600061214760298361266c565b915061215282612bcf565b604082019050919050565b600061216a60208361266c565b915061217582612c1e565b602082019050919050565b600061218d602c8361266c565b915061219882612c47565b604082019050919050565b60006121b0602f8361266c565b91506121bb82612c96565b604082019050919050565b60006121d360218361266c565b91506121de82612ce5565b604082019050919050565b60006121f660318361266c565b915061220182612d34565b604082019050919050565b60006101008301600083015161222560008601826122ca565b506020830151848203602086015261223d8282611f7f565b915050604083015184820360408601526122578282611f7f565b915050606083015184820360608601526122718282611f7f565b915050608083015161228660808601826122ca565b5060a083015161229960a08601826122ca565b5060c08301516122ac60c08601826122ca565b5060e08301516122bf60e0860182611f28565b508091505092915050565b6122d3816127ad565b82525050565b6122e2816127ad565b82525050565b60006122f48285611ff1565b91506123008284611ff1565b91508190509392505050565b60006020820190506123216000830184611f19565b92915050565b600060808201905061233c6000830187611f19565b6123496020830186611f19565b61235660408301856122d9565b81810360608301526123688184611f46565b905095945050505050565b60006020820190506123886000830184611f37565b92915050565b600060208201905081810360008301526123a88184611fb8565b905092915050565b600060208201905081810360008301526123c981612022565b9050919050565b600060208201905081810360008301526123e981612045565b9050919050565b6000602082019050818103600083015261240981612068565b9050919050565b600060208201905081810360008301526124298161208b565b9050919050565b60006020820190508181036000830152612449816120ae565b9050919050565b60006020820190508181036000830152612469816120d1565b9050919050565b60006020820190508181036000830152612489816120f4565b9050919050565b600060208201905081810360008301526124a981612117565b9050919050565b600060208201905081810360008301526124c98161213a565b9050919050565b600060208201905081810360008301526124e98161215d565b9050919050565b6000602082019050818103600083015261250981612180565b9050919050565b60006020820190508181036000830152612529816121a3565b9050919050565b60006020820190508181036000830152612549816121c6565b9050919050565b60006020820190508181036000830152612569816121e9565b9050919050565b6000602082019050818103600083015261258a818461220c565b905092915050565b60006020820190506125a760008301846122d9565b92915050565b60006125b76125c8565b90506125c3828261282b565b919050565b6000604051905090565b600067ffffffffffffffff8211156125ed576125ec612963565b5b6125f682612992565b9050602081019050919050565b600067ffffffffffffffff82111561261e5761261d612963565b5b61262782612992565b9050602081019050919050565b600081519050919050565b600081519050919050565b600082825260208201905092915050565b600082825260208201905092915050565b600082825260208201905092915050565b600081905092915050565b6000612693826127ad565b915061269e836127ad565b9250827fffffffffffffffffffffffffffffffffffffffffffffffffffffffffffffffff038211156126d3576126d26128d6565b5b828201905092915050565b60006126e9826127ad565b91506126f4836127ad565b92508261270457612703612905565b5b828204905092915050565b600061271a826127ad565b9150612725836127ad565b925082821015612738576127376128d6565b5b828203905092915050565b600061274e8261278d565b9050919050565b60008115159050919050565b60007fffffffff0000000000000000000000000000000000000000000000000000000082169050919050565b600073ffffffffffffffffffffffffffffffffffffffff82169050919050565b6000819050919050565b82818337600083830152505050565b60005b838110156127e45780820151818401526020810190506127c9565b838111156127f3576000848401525b50505050565b6000600282049050600182168061281157607f821691505b6020821081141561282557612824612934565b5b50919050565b61283482612992565b810181811067ffffffffffffffff8211171561285357612852612963565b5b80604052505050565b6000612867826127ad565b91507fffffffffffffffffffffffffffffffffffffffffffffffffffffffffffffffff82141561289a576128996128d6565b5b600182019050919050565b60006128b0826127ad565b91506128bb836127ad565b9250826128cb576128ca612905565b5b828206905092915050565b7f4e487b7100000000000000000000000000000000000000000000000000000000600052601160045260246000fd5b7f4e487b7100000000000000000000000000000000000000000000000000000000600052601260045260246000fd5b7f4e487b7100000000000000000000000000000000000000000000000000000000600052602260045260246000fd5b7f4e487b7100000000000000000000000000000000000000000000000000000000600052604160045260246000fd5b6000601f19601f8301169050919050565b7f4552433732313a207472616e7366657220746f206e6f6e20455243373231526560008201527f63656976657220696d706c656d656e7465720000000000000000000000000000602082015250565b7f4552433732313a207472616e736665722066726f6d20696e636f72726563742060008201527f6f776e6572000000000000000000000000000000000000000000000000000000602082015250565b7f4552433732313a20746f6b656e20616c7265616479206d696e74656400000000600082015250565b7f4552433732313a207472616e7366657220746f20746865207a65726f2061646460008201527f7265737300000000000000000000000000000000000000000000000000000000602082015250565b7f4552433732313a20617070726f766520746f2063616c6c657200000000000000600082015250565b7f4552433732313a206f70657261746f7220717565727920666f72206e6f6e657860008201527f697374656e7420746f6b656e0000000000000000000000000000000000000000602082015250565b7f4552433732313a20617070726f76652063616c6c6572206973206e6f74206f7760008201527f6e6572206e6f7220617070726f76656420666f7220616c6c0000000000000000602082015250565b7f4552433732313a2062616c616e636520717565727920666f7220746865207a6560008201527f726f206164647265737300000000000000000000000000000000000000000000602082015250565b7f4552433732313a206f776e657220717565727920666f72206e6f6e657869737460008201527f656e7420746f6b656e0000000000000000000000000000000000000000000000602082015250565b7f4552433732313a206d696e7420746f20746865207a65726f2061646472657373600082015250565b7f4552433732313a20617070726f76656420717565727920666f72206e6f6e657860008201527f697374656e7420746f6b656e0000000000000000000000000000000000000000602082015250565b7f4552433732314d657461646174613a2055524920717565727920666f72206e6f60008201527f6e6578697374656e7420746f6b656e0000000000000000000000000000000000602082015250565b7f4552433732313a20617070726f76616c20746f2063757272656e74206f776e6560008201527f7200000000000000000000000000000000000000000000000000000000000000602082015250565b7f4552433732313a207472616e736665722063616c6c6572206973206e6f74206f60008201527f776e6572206e6f7220617070726f766564000000000000000000000000000000602082015250565b612d8c81612743565b8114612d9757600080fd5b50565b612da381612755565b8114612dae57600080fd5b50565b612dba81612761565b8114612dc557600080fd5b50565b612dd1816127ad565b8114612ddc57600080fd5b5056fea2646970667358221220274ab9c12e631571b3978d10d38ed25d7eb67c7b4cc375aebced7658679de7f164736f6c63430008010033",
  "immutableReferences": {},
  "source": "// SPDX-License-Identifier: MIT\r\n\r\npragma solidity ^0.8.1;\r\n\r\nimport \"@openzeppelin/contracts/token/ERC721/ERC721.sol\"; \r\n\r\ncontract LandRegistration is ERC721 {\r\n\r\n    constructor() ERC721(\"Land\",\"LND\"){}\r\n\r\n\r\n    struct LandDetail {\r\n        uint surveyNo;\r\n        string district;\r\n        string taluk;\r\n        string village;\r\n        uint blockNo;\r\n        uint landValue; // in wei\r\n        uint area;\r\n        bool salesStatus;\r\n        //bytes documentHash;\r\n    }\r\n    \r\n    mapping(uint => LandDetail) LandDetails;\r\n    \r\n    uint public registeredLandCount = 0;\r\n    \r\n    \r\n    // function registerNewLand(uint surveyNo, string memory district, string memory taluk, string memory village, uint blockNo, uint landValue, uint area,bytes memory documentHash) public {\r\n        function registerNewLand(uint surveyNo, string memory district, string memory taluk, string memory village, uint blockNo, uint landValue, uint area) public {\r\n        // LandDetails[registeredLandCount] = LandDetail(surveyNo, district, taluk, village, blockNo, landValue, area, false,documentHash);\r\n        LandDetails[registeredLandCount] = LandDetail(surveyNo, district, taluk, village, blockNo, landValue, area, false);\r\n        _mint(msg.sender, registeredLandCount);\r\n        registeredLandCount += 1;\r\n    }\r\n    \r\n    function getLandDetails(uint landID) view public returns(LandDetail memory) {\r\n        return LandDetails[landID];\r\n    }\r\n\r\n}",
  "sourcePath": "D:\\Stack\\blockchain\\Ethereum\\Elab\\LandSale\\contracts\\Land.sol",
  "compiler": {
    "name": "solc",
    "version": "0.8.1+commit.df193b15.Emscripten.clang"
  },
  "schemaVersion": "3.4.5",
  "updatedAt": "2022-02-28T02:53:31.172Z",
  "devdoc": {
    "kind": "dev",
    "methods": {
      "approve(address,uint256)": {
        "details": "See {IERC721-approve}."
      },
      "balanceOf(address)": {
        "details": "See {IERC721-balanceOf}."
      },
      "getApproved(uint256)": {
        "details": "See {IERC721-getApproved}."
      },
      "isApprovedForAll(address,address)": {
        "details": "See {IERC721-isApprovedForAll}."
      },
      "name()": {
        "details": "See {IERC721Metadata-name}."
      },
      "ownerOf(uint256)": {
        "details": "See {IERC721-ownerOf}."
      },
      "safeTransferFrom(address,address,uint256)": {
        "details": "See {IERC721-safeTransferFrom}."
      },
      "safeTransferFrom(address,address,uint256,bytes)": {
        "details": "See {IERC721-safeTransferFrom}."
      },
      "setApprovalForAll(address,bool)": {
        "details": "See {IERC721-setApprovalForAll}."
      },
      "supportsInterface(bytes4)": {
        "details": "See {IERC165-supportsInterface}."
      },
      "symbol()": {
        "details": "See {IERC721Metadata-symbol}."
      },
      "tokenURI(uint256)": {
        "details": "See {IERC721Metadata-tokenURI}."
      },
      "transferFrom(address,address,uint256)": {
        "details": "See {IERC721-transferFrom}."
      }
    },
    "version": 1
  },
  "userdoc": {
    "kind": "user",
    "methods": {},
    "version": 1
  }
}