{
  "contractName": "LandRegistration",
  "abi": [
    {
      "inputs": [],
      "stateMutability": "nonpayable",
      "type": "constructor"
    },
    {
      "anonymous": false,
      "inputs": [
        {
          "indexed": true,
          "internalType": "address",
          "name": "owner",
          "type": "address"
        },
        {
          "indexed": true,
          "internalType": "address",
          "name": "approved",
          "type": "address"
        },
        {
          "indexed": true,
          "internalType": "uint256",
          "name": "tokenId",
          "type": "uint256"
        }
      ],
      "name": "Approval",
      "type": "event"
    },
    {
      "anonymous": false,
      "inputs": [
        {
          "indexed": true,
          "internalType": "address",
          "name": "owner",
          "type": "address"
        },
        {
          "indexed": true,
          "internalType": "address",
          "name": "operator",
          "type": "address"
        },
        {
          "indexed": false,
          "internalType": "bool",
          "name": "approved",
          "type": "bool"
        }
      ],
      "name": "ApprovalForAll",
      "type": "event"
    },
    {
      "anonymous": false,
      "inputs": [
        {
          "indexed": true,
          "internalType": "address",
          "name": "from",
          "type": "address"
        },
        {
          "indexed": true,
          "internalType": "address",
          "name": "to",
          "type": "address"
        },
        {
          "indexed": true,
          "internalType": "uint256",
          "name": "tokenId",
          "type": "uint256"
        }
      ],
      "name": "Transfer",
      "type": "event"
    },
    {
      "inputs": [
        {
          "internalType": "address",
          "name": "to",
          "type": "address"
        },
        {
          "internalType": "uint256",
          "name": "tokenId",
          "type": "uint256"
        }
      ],
      "name": "approve",
      "outputs": [],
      "stateMutability": "nonpayable",
      "type": "function"
    },
    {
      "inputs": [
        {
          "internalType": "address",
          "name": "owner",
          "type": "address"
        }
      ],
      "name": "balanceOf",
      "outputs": [
        {
          "internalType": "uint256",
          "name": "",
          "type": "uint256"
        }
      ],
      "stateMutability": "view",
      "type": "function"
    },
    {
      "inputs": [
        {
          "internalType": "uint256",
          "name": "tokenId",
          "type": "uint256"
        }
      ],
      "name": "getApproved",
      "outputs": [
        {
          "internalType": "address",
          "name": "",
          "type": "address"
        }
      ],
      "stateMutability": "view",
      "type": "function"
    },
    {
      "inputs": [
        {
          "internalType": "address",
          "name": "owner",
          "type": "address"
        },
        {
          "internalType": "address",
          "name": "operator",
          "type": "address"
        }
      ],
      "name": "isApprovedForAll",
      "outputs": [
        {
          "internalType": "bool",
          "name": "",
          "type": "bool"
        }
      ],
      "stateMutability": "view",
      "type": "function"
    },
    {
      "inputs": [],
      "name": "name",
      "outputs": [
        {
          "internalType": "string",
          "name": "",
          "type": "string"
        }
      ],
      "stateMutability": "view",
      "type": "function"
    },
    {
      "inputs": [
        {
          "internalType": "uint256",
          "name": "tokenId",
          "type": "uint256"
        }
      ],
      "name": "ownerOf",
      "outputs": [
        {
          "internalType": "address",
          "name": "",
          "type": "address"
        }
      ],
      "stateMutability": "view",
      "type": "function"
    },
    {
      "inputs": [],
      "name": "registeredLandCount",
      "outputs": [
        {
          "internalType": "uint256",
          "name": "",
          "type": "uint256"
        }
      ],
      "stateMutability": "view",
      "type": "function"
    },
    {
      "inputs": [
        {
          "internalType": "address",
          "name": "from",
          "type": "address"
        },
        {
          "internalType": "address",
          "name": "to",
          "type": "address"
        },
        {
          "internalType": "uint256",
          "name": "tokenId",
          "type": "uint256"
        }
      ],
      "name": "safeTransferFrom",
      "outputs": [],
      "stateMutability": "nonpayable",
      "type": "function"
    },
    {
      "inputs": [
        {
          "internalType": "address",
          "name": "from",
          "type": "address"
        },
        {
          "internalType": "address",
          "name": "to",
          "type": "address"
        },
        {
          "internalType": "uint256",
          "name": "tokenId",
          "type": "uint256"
        },
        {
          "internalType": "bytes",
          "name": "_data",
          "type": "bytes"
        }
      ],
      "name": "safeTransferFrom",
      "outputs": [],
      "stateMutability": "nonpayable",
      "type": "function"
    },
    {
      "inputs": [
        {
          "internalType": "address",
          "name": "operator",
          "type": "address"
        },
        {
          "internalType": "bool",
          "name": "approved",
          "type": "bool"
        }
      ],
      "name": "setApprovalForAll",
      "outputs": [],
      "stateMutability": "nonpayable",
      "type": "function"
    },
    {
      "inputs": [
        {
          "internalType": "bytes4",
          "name": "interfaceId",
          "type": "bytes4"
        }
      ],
      "name": "supportsInterface",
      "outputs": [
        {
          "internalType": "bool",
          "name": "",
          "type": "bool"
        }
      ],
      "stateMutability": "view",
      "type": "function"
    },
    {
      "inputs": [],
      "name": "symbol",
      "outputs": [
        {
          "internalType": "string",
          "name": "",
          "type": "string"
        }
      ],
      "stateMutability": "view",
      "type": "function"
    },
    {
      "inputs": [
        {
          "internalType": "uint256",
          "name": "tokenId",
          "type": "uint256"
        }
      ],
      "name": "tokenURI",
      "outputs": [
        {
          "internalType": "string",
          "name": "",
          "type": "string"
        }
      ],
      "stateMutability": "view",
      "type": "function"
    },
    {
      "inputs": [
        {
          "internalType": "address",
          "name": "from",
          "type": "address"
        },
        {
          "internalType": "address",
          "name": "to",
          "type": "address"
        },
        {
          "internalType": "uint256",
          "name": "tokenId",
          "type": "uint256"
        }
      ],
      "name": "transferFrom",
      "outputs": [],
      "stateMutability": "nonpayable",
      "type": "function"
    },
    {
      "inputs": [
        {
          "internalType": "uint256",
          "name": "surveyNo",
          "type": "uint256"
        },
        {
          "internalType": "string",
          "name": "district",
          "type": "string"
        },
        {
          "internalType": "string",
          "name": "taluk",
          "type": "string"
        },
        {
          "internalType": "string",
          "name": "village",
          "type": "string"
        },
        {
          "internalType": "uint256",
          "name": "blockNo",
          "type": "uint256"
        },
        {
          "internalType": "uint256",
          "name": "landValue",
          "type": "uint256"
        },
        {
          "internalType": "uint256",
          "name": "area",
          "type": "uint256"
        },
        {
          "internalType": "bytes",
          "name": "documentHash",
          "type": "bytes"
        }
      ],
      "name": "registerNewLand",
      "outputs": [],
      "stateMutability": "nonpayable",
      "type": "function"
    },
    {
      "inputs": [
        {
          "internalType": "uint256",
          "name": "landID",
          "type": "uint256"
        }
      ],
      "name": "getLandDetails",
      "outputs": [
        {
          "components": [
            {
              "internalType": "uint256",
              "name": "surveyNo",
              "type": "uint256"
            },
            {
              "internalType": "string",
              "name": "district",
              "type": "string"
            },
            {
              "internalType": "string",
              "name": "taluk",
              "type": "string"
            },
            {
              "internalType": "string",
              "name": "village",
              "type": "string"
            },
            {
              "internalType": "uint256",
              "name": "blockNo",
              "type": "uint256"
            },
            {
              "internalType": "uint256",
              "name": "landValue",
              "type": "uint256"
            },
            {
              "internalType": "uint256",
              "name": "area",
              "type": "uint256"
            },
            {
              "internalType": "bool",
              "name": "salesStatus",
              "type": "bool"
            },
            {
              "internalType": "bytes",
              "name": "documentHash",
              "type": "bytes"
            }
          ],
          "internalType": "struct LandRegistration.LandDetail",
          "name": "",
          "type": "tuple"
        }
      ],
      "stateMutability": "view",
      "type": "function"
    }
  ],
  "bytecode": "0x608060405260006007553480156200001657600080fd5b506040518060400160405280600481526020017f4c616e64000000000000000000000000000000000000000000000000000000008152506040518060400160405280600381526020017f4c4e44000000000000000000000000000000000000000000000000000000000081525081600090805190602001906200009b929190620000bd565b508060019080519060200190620000b4929190620000bd565b505050620001d2565b828054620000cb906200016d565b90600052602060002090601f016020900481019282620000ef57600085556200013b565b82601f106200010a57805160ff19168380011785556200013b565b828001600101855582156200013b579182015b828111156200013a5782518255916020019190600101906200011d565b5b5090506200014a91906200014e565b5090565b5b80821115620001695760008160009055506001016200014f565b5090565b600060028204905060018216806200018657607f821691505b602082108114156200019d576200019c620001a3565b5b50919050565b7f4e487b7100000000000000000000000000000000000000000000000000000000600052602260045260246000fd5b612feb80620001e26000396000f3fe608060405234801561001057600080fd5b50600436106101005760003560e01c806370a0823111610097578063b88d4fde11610066578063b88d4fde146102ab578063c87b56dd146102c7578063e985e9c5146102f7578063fe0cb7dc1461032757610100565b806370a082311461022357806395d89b4114610253578063a22cb46514610271578063a7613a7d1461028d57610100565b806310d10780116100d357806310d107801461019f57806323b872dd146101bb57806342842e0e146101d75780636352211e146101f357610100565b806301ffc9a71461010557806306fdde0314610135578063081812fc14610153578063095ea7b314610183575b600080fd5b61011f600480360381019061011a9190611efc565b610357565b60405161012c9190612538565b60405180910390f35b61013d610439565b60405161014a9190612553565b60405180910390f35b61016d60048036038101906101689190611f4e565b6104cb565b60405161017a91906124d1565b60405180910390f35b61019d60048036038101906101989190611ec0565b610550565b005b6101b960048036038101906101b49190611f77565b610668565b005b6101d560048036038101906101d09190611dba565b6107b0565b005b6101f160048036038101906101ec9190611dba565b610810565b005b61020d60048036038101906102089190611f4e565b610830565b60405161021a91906124d1565b60405180910390f35b61023d60048036038101906102389190611d55565b6108e2565b60405161024a9190612757565b60405180910390f35b61025b61099a565b6040516102689190612553565b60405180910390f35b61028b60048036038101906102869190611e84565b610a2c565b005b610295610a42565b6040516102a29190612757565b60405180910390f35b6102c560048036038101906102c09190611e09565b610a48565b005b6102e160048036038101906102dc9190611f4e565b610aaa565b6040516102ee9190612553565b60405180910390f35b610311600480360381019061030c9190611d7e565b610b51565b60405161031e9190612538565b60405180910390f35b610341600480360381019061033c9190611f4e565b610be5565b60405161034e9190612735565b60405180910390f35b60007f80ac58cd000000000000000000000000000000000000000000000000000000007bffffffffffffffffffffffffffffffffffffffffffffffffffffffff1916827bffffffffffffffffffffffffffffffffffffffffffffffffffffffff1916148061042257507f5b5e139f000000000000000000000000000000000000000000000000000000007bffffffffffffffffffffffffffffffffffffffffffffffffffffffff1916827bffffffffffffffffffffffffffffffffffffffffffffffffffffffff1916145b80610432575061043182610e9e565b5b9050919050565b606060008054610448906129cf565b80601f0160208091040260200160405190810160405280929190818152602001828054610474906129cf565b80156104c15780601f10610496576101008083540402835291602001916104c1565b820191906000526020600020905b8154815290600101906020018083116104a457829003601f168201915b5050505050905090565b60006104d682610f08565b610515576040517f08c379a000000000000000000000000000000000000000000000000000000000815260040161050c906126b5565b60405180910390fd5b6004600083815260200190815260200160002060009054906101000a900473ffffffffffffffffffffffffffffffffffffffff169050919050565b600061055b82610830565b90508073ffffffffffffffffffffffffffffffffffffffff168373ffffffffffffffffffffffffffffffffffffffff1614156105cc576040517f08c379a00000000000000000000000000000000000000000000000000000000081526004016105c3906126f5565b60405180910390fd5b8073ffffffffffffffffffffffffffffffffffffffff166105eb610f74565b73ffffffffffffffffffffffffffffffffffffffff16148061061a575061061981610614610f74565b610b51565b5b610659576040517f08c379a000000000000000000000000000000000000000000000000000000000815260040161065090612635565b60405180910390fd5b6106638383610f7c565b505050565b604051806101200160405280898152602001888152602001878152602001868152602001858152602001848152602001838152602001600015158152602001828152506006600060075481526020019081526020016000206000820151816000015560208201518160010190805190602001906106e6929190611aa5565b506040820151816002019080519060200190610703929190611aa5565b506060820151816003019080519060200190610720929190611aa5565b506080820151816004015560a0820151816005015560c0820151816006015560e08201518160070160006101000a81548160ff02191690831515021790555061010082015181600801908051906020019061077c929190611b2b565b5090505061078c33600754611035565b60016007600082825461079f919061285e565b925050819055505050505050505050565b6107c16107bb610f74565b8261120f565b610800576040517f08c379a00000000000000000000000000000000000000000000000000000000081526004016107f790612715565b60405180910390fd5b61080b8383836112ed565b505050565b61082b83838360405180602001604052806000815250610a48565b505050565b6000806002600084815260200190815260200160002060009054906101000a900473ffffffffffffffffffffffffffffffffffffffff169050600073ffffffffffffffffffffffffffffffffffffffff168173ffffffffffffffffffffffffffffffffffffffff1614156108d9576040517f08c379a00000000000000000000000000000000000000000000000000000000081526004016108d090612675565b60405180910390fd5b80915050919050565b60008073ffffffffffffffffffffffffffffffffffffffff168273ffffffffffffffffffffffffffffffffffffffff161415610953576040517f08c379a000000000000000000000000000000000000000000000000000000000815260040161094a90612655565b60405180910390fd5b600360008373ffffffffffffffffffffffffffffffffffffffff1673ffffffffffffffffffffffffffffffffffffffff168152602001908152602001600020549050919050565b6060600180546109a9906129cf565b80601f01602080910402602001604051908101604052809291908181526020018280546109d5906129cf565b8015610a225780601f106109f757610100808354040283529160200191610a22565b820191906000526020600020905b815481529060010190602001808311610a0557829003601f168201915b5050505050905090565b610a3e610a37610f74565b8383611554565b5050565b60075481565b610a59610a53610f74565b8361120f565b610a98576040517f08c379a0000000000000000000000000000000000000000000000000000000008152600401610a8f90612715565b60405180910390fd5b610aa4848484846116c1565b50505050565b6060610ab582610f08565b610af4576040517f08c379a0000000000000000000000000000000000000000000000000000000008152600401610aeb906126d5565b60405180910390fd5b6000610afe61171d565b90506000815111610b1e5760405180602001604052806000815250610b49565b80610b2884611734565b604051602001610b399291906124ad565b6040516020818303038152906040525b915050919050565b6000600560008473ffffffffffffffffffffffffffffffffffffffff1673ffffffffffffffffffffffffffffffffffffffff16815260200190815260200160002060008373ffffffffffffffffffffffffffffffffffffffff1673ffffffffffffffffffffffffffffffffffffffff16815260200190815260200160002060009054906101000a900460ff16905092915050565b610bed611bb1565b600660008381526020019081526020016000206040518061012001604052908160008201548152602001600182018054610c26906129cf565b80601f0160208091040260200160405190810160405280929190818152602001828054610c52906129cf565b8015610c9f5780601f10610c7457610100808354040283529160200191610c9f565b820191906000526020600020905b815481529060010190602001808311610c8257829003601f168201915b50505050508152602001600282018054610cb8906129cf565b80601f0160208091040260200160405190810160405280929190818152602001828054610ce4906129cf565b8015610d315780601f10610d0657610100808354040283529160200191610d31565b820191906000526020600020905b815481529060010190602001808311610d1457829003601f168201915b50505050508152602001600382018054610d4a906129cf565b80601f0160208091040260200160405190810160405280929190818152602001828054610d76906129cf565b8015610dc35780601f10610d9857610100808354040283529160200191610dc3565b820191906000526020600020905b815481529060010190602001808311610da657829003601f168201915b505050505081526020016004820154815260200160058201548152602001600682015481526020016007820160009054906101000a900460ff16151515158152602001600882018054610e15906129cf565b80601f0160208091040260200160405190810160405280929190818152602001828054610e41906129cf565b8015610e8e5780601f10610e6357610100808354040283529160200191610e8e565b820191906000526020600020905b815481529060010190602001808311610e7157829003601f168201915b5050505050815250509050919050565b60007f01ffc9a7000000000000000000000000000000000000000000000000000000007bffffffffffffffffffffffffffffffffffffffffffffffffffffffff1916827bffffffffffffffffffffffffffffffffffffffffffffffffffffffff1916149050919050565b60008073ffffffffffffffffffffffffffffffffffffffff166002600084815260200190815260200160002060009054906101000a900473ffffffffffffffffffffffffffffffffffffffff1673ffffffffffffffffffffffffffffffffffffffff1614159050919050565b600033905090565b816004600083815260200190815260200160002060006101000a81548173ffffffffffffffffffffffffffffffffffffffff021916908373ffffffffffffffffffffffffffffffffffffffff160217905550808273ffffffffffffffffffffffffffffffffffffffff16610fef83610830565b73ffffffffffffffffffffffffffffffffffffffff167f8c5be1e5ebec7d5bd14f71427d1e84f3dd0314c0f7b2291e5b200ac8c7c3b92560405160405180910390a45050565b600073ffffffffffffffffffffffffffffffffffffffff168273ffffffffffffffffffffffffffffffffffffffff1614156110a5576040517f08c379a000000000000000000000000000000000000000000000000000000000815260040161109c90612695565b60405180910390fd5b6110ae81610f08565b156110ee576040517f08c379a00000000000000000000000000000000000000000000000000000000081526004016110e5906125b5565b60405180910390fd5b6110fa600083836118e1565b6001600360008473ffffffffffffffffffffffffffffffffffffffff1673ffffffffffffffffffffffffffffffffffffffff168152602001908152602001600020600082825461114a919061285e565b92505081905550816002600083815260200190815260200160002060006101000a81548173ffffffffffffffffffffffffffffffffffffffff021916908373ffffffffffffffffffffffffffffffffffffffff160217905550808273ffffffffffffffffffffffffffffffffffffffff16600073ffffffffffffffffffffffffffffffffffffffff167fddf252ad1be2c89b69c2b068fc378daa952ba7f163c4a11628f55a4df523b3ef60405160405180910390a461120b600083836118e6565b5050565b600061121a82610f08565b611259576040517f08c379a000000000000000000000000000000000000000000000000000000000815260040161125090612615565b60405180910390fd5b600061126483610830565b90508073ffffffffffffffffffffffffffffffffffffffff168473ffffffffffffffffffffffffffffffffffffffff1614806112d357508373ffffffffffffffffffffffffffffffffffffffff166112bb846104cb565b73ffffffffffffffffffffffffffffffffffffffff16145b806112e457506112e38185610b51565b5b91505092915050565b8273ffffffffffffffffffffffffffffffffffffffff1661130d82610830565b73ffffffffffffffffffffffffffffffffffffffff1614611363576040517f08c379a000000000000000000000000000000000000000000000000000000000815260040161135a90612595565b60405180910390fd5b600073ffffffffffffffffffffffffffffffffffffffff168273ffffffffffffffffffffffffffffffffffffffff1614156113d3576040517f08c379a00000000000000000000000000000000000000000000000000000000081526004016113ca906125d5565b60405180910390fd5b6113de8383836118e1565b6113e9600082610f7c565b6001600360008573ffffffffffffffffffffffffffffffffffffffff1673ffffffffffffffffffffffffffffffffffffffff168152602001908152602001600020600082825461143991906128e5565b925050819055506001600360008473ffffffffffffffffffffffffffffffffffffffff1673ffffffffffffffffffffffffffffffffffffffff1681526020019081526020016000206000828254611490919061285e565b92505081905550816002600083815260200190815260200160002060006101000a81548173ffffffffffffffffffffffffffffffffffffffff021916908373ffffffffffffffffffffffffffffffffffffffff160217905550808273ffffffffffffffffffffffffffffffffffffffff168473ffffffffffffffffffffffffffffffffffffffff167fddf252ad1be2c89b69c2b068fc378daa952ba7f163c4a11628f55a4df523b3ef60405160405180910390a461154f8383836118e6565b505050565b8173ffffffffffffffffffffffffffffffffffffffff168373ffffffffffffffffffffffffffffffffffffffff1614156115c3576040517f08c379a00000000000000000000000000000000000000000000000000000000081526004016115ba906125f5565b60405180910390fd5b80600560008573ffffffffffffffffffffffffffffffffffffffff1673ffffffffffffffffffffffffffffffffffffffff16815260200190815260200160002060008473ffffffffffffffffffffffffffffffffffffffff1673ffffffffffffffffffffffffffffffffffffffff16815260200190815260200160002060006101000a81548160ff0219169083151502179055508173ffffffffffffffffffffffffffffffffffffffff168373ffffffffffffffffffffffffffffffffffffffff167f17307eab39ab6107e8899845ad3d59bd9653f200f220920489ca2b5937696c31836040516116b49190612538565b60405180910390a3505050565b6116cc8484846112ed565b6116d8848484846118eb565b611717576040517f08c379a000000000000000000000000000000000000000000000000000000000815260040161170e90612575565b60405180910390fd5b50505050565b606060405180602001604052806000815250905090565b6060600082141561177c576040518060400160405280600181526020017f300000000000000000000000000000000000000000000000000000000000000081525090506118dc565b600082905060005b600082146117ae57808061179790612a32565b915050600a826117a791906128b4565b9150611784565b60008167ffffffffffffffff8111156117f0577f4e487b7100000000000000000000000000000000000000000000000000000000600052604160045260246000fd5b6040519080825280601f01601f1916602001820160405280156118225781602001600182028036833780820191505090505b5090505b600085146118d55760018261183b91906128e5565b9150600a8561184a9190612a7b565b6030611856919061285e565b60f81b818381518110611892577f4e487b7100000000000000000000000000000000000000000000000000000000600052603260045260246000fd5b60200101907effffffffffffffffffffffffffffffffffffffffffffffffffffffffffffff1916908160001a905350600a856118ce91906128b4565b9450611826565b8093505050505b919050565b505050565b505050565b600061190c8473ffffffffffffffffffffffffffffffffffffffff16611a82565b15611a75578373ffffffffffffffffffffffffffffffffffffffff1663150b7a02611935610f74565b8786866040518563ffffffff1660e01b815260040161195794939291906124ec565b602060405180830381600087803b15801561197157600080fd5b505af19250505080156119a257506040513d601f19601f8201168201806040525081019061199f9190611f25565b60015b611a25573d80600081146119d2576040519150601f19603f3d011682016040523d82523d6000602084013e6119d7565b606091505b50600081511415611a1d576040517f08c379a0000000000000000000000000000000000000000000000000000000008152600401611a1490612575565b60405180910390fd5b805181602001fd5b63150b7a0260e01b7bffffffffffffffffffffffffffffffffffffffffffffffffffffffff1916817bffffffffffffffffffffffffffffffffffffffffffffffffffffffff191614915050611a7a565b600190505b949350505050565b6000808273ffffffffffffffffffffffffffffffffffffffff163b119050919050565b828054611ab1906129cf565b90600052602060002090601f016020900481019282611ad35760008555611b1a565b82601f10611aec57805160ff1916838001178555611b1a565b82800160010185558215611b1a579182015b82811115611b19578251825591602001919060010190611afe565b5b509050611b279190611bff565b5090565b828054611b37906129cf565b90600052602060002090601f016020900481019282611b595760008555611ba0565b82601f10611b7257805160ff1916838001178555611ba0565b82800160010185558215611ba0579182015b82811115611b9f578251825591602001919060010190611b84565b5b509050611bad9190611bff565b5090565b60405180610120016040528060008152602001606081526020016060815260200160608152602001600081526020016000815260200160008152602001600015158152602001606081525090565b5b80821115611c18576000816000905550600101611c00565b5090565b6000611c2f611c2a84612797565b612772565b905082815260208101848484011115611c4757600080fd5b611c5284828561298d565b509392505050565b6000611c6d611c68846127c8565b612772565b905082815260208101848484011115611c8557600080fd5b611c9084828561298d565b509392505050565b600081359050611ca781612f59565b92915050565b600081359050611cbc81612f70565b92915050565b600081359050611cd181612f87565b92915050565b600081519050611ce681612f87565b92915050565b600082601f830112611cfd57600080fd5b8135611d0d848260208601611c1c565b91505092915050565b600082601f830112611d2757600080fd5b8135611d37848260208601611c5a565b91505092915050565b600081359050611d4f81612f9e565b92915050565b600060208284031215611d6757600080fd5b6000611d7584828501611c98565b91505092915050565b60008060408385031215611d9157600080fd5b6000611d9f85828601611c98565b9250506020611db085828601611c98565b9150509250929050565b600080600060608486031215611dcf57600080fd5b6000611ddd86828701611c98565b9350506020611dee86828701611c98565b9250506040611dff86828701611d40565b9150509250925092565b60008060008060808587031215611e1f57600080fd5b6000611e2d87828801611c98565b9450506020611e3e87828801611c98565b9350506040611e4f87828801611d40565b925050606085013567ffffffffffffffff811115611e6c57600080fd5b611e7887828801611cec565b91505092959194509250565b60008060408385031215611e9757600080fd5b6000611ea585828601611c98565b9250506020611eb685828601611cad565b9150509250929050565b60008060408385031215611ed357600080fd5b6000611ee185828601611c98565b9250506020611ef285828601611d40565b9150509250929050565b600060208284031215611f0e57600080fd5b6000611f1c84828501611cc2565b91505092915050565b600060208284031215611f3757600080fd5b6000611f4584828501611cd7565b91505092915050565b600060208284031215611f6057600080fd5b6000611f6e84828501611d40565b91505092915050565b600080600080600080600080610100898b031215611f9457600080fd5b6000611fa28b828c01611d40565b985050602089013567ffffffffffffffff811115611fbf57600080fd5b611fcb8b828c01611d16565b975050604089013567ffffffffffffffff811115611fe857600080fd5b611ff48b828c01611d16565b965050606089013567ffffffffffffffff81111561201157600080fd5b61201d8b828c01611d16565b955050608061202e8b828c01611d40565b94505060a061203f8b828c01611d40565b93505060c06120508b828c01611d40565b92505060e089013567ffffffffffffffff81111561206d57600080fd5b6120798b828c01611cec565b9150509295985092959890939650565b61209281612919565b82525050565b6120a18161292b565b82525050565b6120b08161292b565b82525050565b60006120c1826127f9565b6120cb818561280f565b93506120db81856020860161299c565b6120e481612b68565b840191505092915050565b60006120fa826127f9565b6121048185612820565b935061211481856020860161299c565b61211d81612b68565b840191505092915050565b600061213382612804565b61213d8185612831565b935061214d81856020860161299c565b61215681612b68565b840191505092915050565b600061216c82612804565b6121768185612842565b935061218681856020860161299c565b61218f81612b68565b840191505092915050565b60006121a582612804565b6121af8185612853565b93506121bf81856020860161299c565b80840191505092915050565b60006121d8603283612842565b91506121e382612b79565b604082019050919050565b60006121fb602583612842565b915061220682612bc8565b604082019050919050565b600061221e601c83612842565b915061222982612c17565b602082019050919050565b6000612241602483612842565b915061224c82612c40565b604082019050919050565b6000612264601983612842565b915061226f82612c8f565b602082019050919050565b6000612287602c83612842565b915061229282612cb8565b604082019050919050565b60006122aa603883612842565b91506122b582612d07565b604082019050919050565b60006122cd602a83612842565b91506122d882612d56565b604082019050919050565b60006122f0602983612842565b91506122fb82612da5565b604082019050919050565b6000612313602083612842565b915061231e82612df4565b602082019050919050565b6000612336602c83612842565b915061234182612e1d565b604082019050919050565b6000612359602f83612842565b915061236482612e6c565b604082019050919050565b600061237c602183612842565b915061238782612ebb565b604082019050919050565b600061239f603183612842565b91506123aa82612f0a565b604082019050919050565b6000610120830160008301516123ce600086018261248f565b50602083015184820360208601526123e68282612128565b915050604083015184820360408601526124008282612128565b9150506060830151848203606086015261241a8282612128565b915050608083015161242f608086018261248f565b5060a083015161244260a086018261248f565b5060c083015161245560c086018261248f565b5060e083015161246860e0860182612098565b5061010083015184820361010086015261248282826120b6565b9150508091505092915050565b61249881612983565b82525050565b6124a781612983565b82525050565b60006124b9828561219a565b91506124c5828461219a565b91508190509392505050565b60006020820190506124e66000830184612089565b92915050565b60006080820190506125016000830187612089565b61250e6020830186612089565b61251b604083018561249e565b818103606083015261252d81846120ef565b905095945050505050565b600060208201905061254d60008301846120a7565b92915050565b6000602082019050818103600083015261256d8184612161565b905092915050565b6000602082019050818103600083015261258e816121cb565b9050919050565b600060208201905081810360008301526125ae816121ee565b9050919050565b600060208201905081810360008301526125ce81612211565b9050919050565b600060208201905081810360008301526125ee81612234565b9050919050565b6000602082019050818103600083015261260e81612257565b9050919050565b6000602082019050818103600083015261262e8161227a565b9050919050565b6000602082019050818103600083015261264e8161229d565b9050919050565b6000602082019050818103600083015261266e816122c0565b9050919050565b6000602082019050818103600083015261268e816122e3565b9050919050565b600060208201905081810360008301526126ae81612306565b9050919050565b600060208201905081810360008301526126ce81612329565b9050919050565b600060208201905081810360008301526126ee8161234c565b9050919050565b6000602082019050818103600083015261270e8161236f565b9050919050565b6000602082019050818103600083015261272e81612392565b9050919050565b6000602082019050818103600083015261274f81846123b5565b905092915050565b600060208201905061276c600083018461249e565b92915050565b600061277c61278d565b90506127888282612a01565b919050565b6000604051905090565b600067ffffffffffffffff8211156127b2576127b1612b39565b5b6127bb82612b68565b9050602081019050919050565b600067ffffffffffffffff8211156127e3576127e2612b39565b5b6127ec82612b68565b9050602081019050919050565b600081519050919050565b600081519050919050565b600082825260208201905092915050565b600082825260208201905092915050565b600082825260208201905092915050565b600082825260208201905092915050565b600081905092915050565b600061286982612983565b915061287483612983565b9250827fffffffffffffffffffffffffffffffffffffffffffffffffffffffffffffffff038211156128a9576128a8612aac565b5b828201905092915050565b60006128bf82612983565b91506128ca83612983565b9250826128da576128d9612adb565b5b828204905092915050565b60006128f082612983565b91506128fb83612983565b92508282101561290e5761290d612aac565b5b828203905092915050565b600061292482612963565b9050919050565b60008115159050919050565b60007fffffffff0000000000000000000000000000000000000000000000000000000082169050919050565b600073ffffffffffffffffffffffffffffffffffffffff82169050919050565b6000819050919050565b82818337600083830152505050565b60005b838110156129ba57808201518184015260208101905061299f565b838111156129c9576000848401525b50505050565b600060028204905060018216806129e757607f821691505b602082108114156129fb576129fa612b0a565b5b50919050565b612a0a82612b68565b810181811067ffffffffffffffff82111715612a2957612a28612b39565b5b80604052505050565b6000612a3d82612983565b91507fffffffffffffffffffffffffffffffffffffffffffffffffffffffffffffffff821415612a7057612a6f612aac565b5b600182019050919050565b6000612a8682612983565b9150612a9183612983565b925082612aa157612aa0612adb565b5b828206905092915050565b7f4e487b7100000000000000000000000000000000000000000000000000000000600052601160045260246000fd5b7f4e487b7100000000000000000000000000000000000000000000000000000000600052601260045260246000fd5b7f4e487b7100000000000000000000000000000000000000000000000000000000600052602260045260246000fd5b7f4e487b7100000000000000000000000000000000000000000000000000000000600052604160045260246000fd5b6000601f19601f8301169050919050565b7f4552433732313a207472616e7366657220746f206e6f6e20455243373231526560008201527f63656976657220696d706c656d656e7465720000000000000000000000000000602082015250565b7f4552433732313a207472616e736665722066726f6d20696e636f72726563742060008201527f6f776e6572000000000000000000000000000000000000000000000000000000602082015250565b7f4552433732313a20746f6b656e20616c7265616479206d696e74656400000000600082015250565b7f4552433732313a207472616e7366657220746f20746865207a65726f2061646460008201527f7265737300000000000000000000000000000000000000000000000000000000602082015250565b7f4552433732313a20617070726f766520746f2063616c6c657200000000000000600082015250565b7f4552433732313a206f70657261746f7220717565727920666f72206e6f6e657860008201527f697374656e7420746f6b656e0000000000000000000000000000000000000000602082015250565b7f4552433732313a20617070726f76652063616c6c6572206973206e6f74206f7760008201527f6e6572206e6f7220617070726f76656420666f7220616c6c0000000000000000602082015250565b7f4552433732313a2062616c616e636520717565727920666f7220746865207a6560008201527f726f206164647265737300000000000000000000000000000000000000000000602082015250565b7f4552433732313a206f776e657220717565727920666f72206e6f6e657869737460008201527f656e7420746f6b656e0000000000000000000000000000000000000000000000602082015250565b7f4552433732313a206d696e7420746f20746865207a65726f2061646472657373600082015250565b7f4552433732313a20617070726f76656420717565727920666f72206e6f6e657860008201527f697374656e7420746f6b656e0000000000000000000000000000000000000000602082015250565b7f4552433732314d657461646174613a2055524920717565727920666f72206e6f60008201527f6e6578697374656e7420746f6b656e0000000000000000000000000000000000602082015250565b7f4552433732313a20617070726f76616c20746f2063757272656e74206f776e6560008201527f7200000000000000000000000000000000000000000000000000000000000000602082015250565b7f4552433732313a207472616e736665722063616c6c6572206973206e6f74206f60008201527f776e6572206e6f7220617070726f766564000000000000000000000000000000602082015250565b612f6281612919565b8114612f6d57600080fd5b50565b612f798161292b565b8114612f8457600080fd5b50565b612f9081612937565b8114612f9b57600080fd5b50565b612fa781612983565b8114612fb257600080fd5b5056fea2646970667358221220e89d531bb98b7b16d0c958a273b1e6ad3a4a6ee08cb41b1785cba73d9d75c18c64736f6c63430008010033",
  "immutableReferences": {},
  "source": "// SPDX-License-Identifier: MIT\r\n\r\npragma solidity ^0.8.1;\r\n\r\nimport \"@openzeppelin/contracts/token/ERC721/ERC721.sol\"; \r\n\r\ncontract LandRegistration is ERC721 {\r\n\r\n    constructor() ERC721(\"Land\",\"LND\"){}\r\n\r\n\r\n    struct LandDetail {\r\n        uint surveyNo;\r\n        string district;\r\n        string taluk;\r\n        string village;\r\n        uint blockNo;\r\n        uint landValue; // in wei\r\n        uint area;\r\n        bool salesStatus;\r\n        bytes documentHash;\r\n    }\r\n    \r\n    mapping(uint => LandDetail) LandDetails;\r\n    \r\n    uint public registeredLandCount = 0;\r\n    \r\n    \r\n    function registerNewLand(uint surveyNo, string memory district, string memory taluk, string memory village, uint blockNo, uint landValue, uint area,bytes memory documentHash) public {\r\n        //function registerNewLand(uint surveyNo, string memory district, string memory taluk, string memory village, uint blockNo, uint landValue, uint area) public {\r\n        LandDetails[registeredLandCount] = LandDetail(surveyNo, district, taluk, village, blockNo, landValue, area, false,documentHash);\r\n        //LandDetails[registeredLandCount] = LandDetail(surveyNo, district, taluk, village, blockNo, landValue, area, false);\r\n        _mint(msg.sender, registeredLandCount);\r\n        registeredLandCount += 1;\r\n    }\r\n    \r\n    function getLandDetails(uint landID) view public returns(LandDetail memory) {\r\n        return LandDetails[landID];\r\n    }\r\n\r\n}",
  "sourcePath": "D:\\GitHub\\Ethereum-LandSale\\contracts\\Land.sol",
  "compiler": {
    "name": "solc",
    "version": "0.8.1+commit.df193b15.Emscripten.clang"
  },
  "schemaVersion": "3.4.5",
  "updatedAt": "2022-03-01T16:56:18.521Z",
  "devdoc": {
    "kind": "dev",
    "methods": {
      "approve(address,uint256)": {
        "details": "See {IERC721-approve}."
      },
      "balanceOf(address)": {
        "details": "See {IERC721-balanceOf}."
      },
      "getApproved(uint256)": {
        "details": "See {IERC721-getApproved}."
      },
      "isApprovedForAll(address,address)": {
        "details": "See {IERC721-isApprovedForAll}."
      },
      "name()": {
        "details": "See {IERC721Metadata-name}."
      },
      "ownerOf(uint256)": {
        "details": "See {IERC721-ownerOf}."
      },
      "safeTransferFrom(address,address,uint256)": {
        "details": "See {IERC721-safeTransferFrom}."
      },
      "safeTransferFrom(address,address,uint256,bytes)": {
        "details": "See {IERC721-safeTransferFrom}."
      },
      "setApprovalForAll(address,bool)": {
        "details": "See {IERC721-setApprovalForAll}."
      },
      "supportsInterface(bytes4)": {
        "details": "See {IERC165-supportsInterface}."
      },
      "symbol()": {
        "details": "See {IERC721Metadata-symbol}."
      },
      "tokenURI(uint256)": {
        "details": "See {IERC721Metadata-tokenURI}."
      },
      "transferFrom(address,address,uint256)": {
        "details": "See {IERC721-transferFrom}."
      }
    },
    "version": 1
  },
  "userdoc": {
    "kind": "user",
    "methods": {},
    "version": 1
  }
}