{
  "contractName": "LandSale",
  "abi": [
    {
      "anonymous": false,
      "inputs": [
        {
          "indexed": true,
          "internalType": "address",
          "name": "owner",
          "type": "address"
        },
        {
          "indexed": true,
          "internalType": "address",
          "name": "approved",
          "type": "address"
        },
        {
          "indexed": true,
          "internalType": "uint256",
          "name": "tokenId",
          "type": "uint256"
        }
      ],
      "name": "Approval",
      "type": "event"
    },
    {
      "anonymous": false,
      "inputs": [
        {
          "indexed": true,
          "internalType": "address",
          "name": "owner",
          "type": "address"
        },
        {
          "indexed": true,
          "internalType": "address",
          "name": "operator",
          "type": "address"
        },
        {
          "indexed": false,
          "internalType": "bool",
          "name": "approved",
          "type": "bool"
        }
      ],
      "name": "ApprovalForAll",
      "type": "event"
    },
    {
      "anonymous": false,
      "inputs": [
        {
          "indexed": true,
          "internalType": "uint256",
          "name": "landID",
          "type": "uint256"
        },
        {
          "indexed": false,
          "internalType": "address",
          "name": "highestBidder",
          "type": "address"
        },
        {
          "indexed": false,
          "internalType": "uint256",
          "name": "highestBid",
          "type": "uint256"
        }
      ],
      "name": "BidEvent",
      "type": "event"
    },
    {
      "anonymous": false,
      "inputs": [
        {
          "indexed": true,
          "internalType": "address",
          "name": "from",
          "type": "address"
        },
        {
          "indexed": true,
          "internalType": "address",
          "name": "to",
          "type": "address"
        },
        {
          "indexed": true,
          "internalType": "uint256",
          "name": "tokenId",
          "type": "uint256"
        }
      ],
      "name": "Transfer",
      "type": "event"
    },
    {
      "stateMutability": "nonpayable",
      "type": "fallback"
    },
    {
      "inputs": [
        {
          "internalType": "address",
          "name": "to",
          "type": "address"
        },
        {
          "internalType": "uint256",
          "name": "tokenId",
          "type": "uint256"
        }
      ],
      "name": "approve",
      "outputs": [],
      "stateMutability": "nonpayable",
      "type": "function"
    },
    {
      "inputs": [
        {
          "internalType": "address",
          "name": "owner",
          "type": "address"
        }
      ],
      "name": "balanceOf",
      "outputs": [
        {
          "internalType": "uint256",
          "name": "",
          "type": "uint256"
        }
      ],
      "stateMutability": "view",
      "type": "function",
      "constant": true
    },
    {
      "inputs": [
        {
          "internalType": "uint256",
          "name": "tokenId",
          "type": "uint256"
        }
      ],
      "name": "getApproved",
      "outputs": [
        {
          "internalType": "address",
          "name": "",
          "type": "address"
        }
      ],
      "stateMutability": "view",
      "type": "function",
      "constant": true
    },
    {
      "inputs": [
        {
          "internalType": "uint256",
          "name": "landID",
          "type": "uint256"
        }
      ],
      "name": "getLandDetails",
      "outputs": [
        {
          "components": [
            {
              "internalType": "uint256",
              "name": "surveyNo",
              "type": "uint256"
            },
            {
              "internalType": "string",
              "name": "district",
              "type": "string"
            },
            {
              "internalType": "string",
              "name": "taluk",
              "type": "string"
            },
            {
              "internalType": "string",
              "name": "village",
              "type": "string"
            },
            {
              "internalType": "uint256",
              "name": "blockNo",
              "type": "uint256"
            },
            {
              "internalType": "uint256",
              "name": "landValue",
              "type": "uint256"
            },
            {
              "internalType": "uint256",
              "name": "area",
              "type": "uint256"
            },
            {
              "internalType": "bool",
              "name": "salesStatus",
              "type": "bool"
            },
            {
              "internalType": "bytes",
              "name": "documentHash",
              "type": "bytes"
            }
          ],
          "internalType": "struct LandRegistration.LandDetail",
          "name": "",
          "type": "tuple"
        }
      ],
      "stateMutability": "view",
      "type": "function",
      "constant": true
    },
    {
      "inputs": [
        {
          "internalType": "address",
          "name": "owner",
          "type": "address"
        },
        {
          "internalType": "address",
          "name": "operator",
          "type": "address"
        }
      ],
      "name": "isApprovedForAll",
      "outputs": [
        {
          "internalType": "bool",
          "name": "",
          "type": "bool"
        }
      ],
      "stateMutability": "view",
      "type": "function",
      "constant": true
    },
    {
      "inputs": [],
      "name": "name",
      "outputs": [
        {
          "internalType": "string",
          "name": "",
          "type": "string"
        }
      ],
      "stateMutability": "view",
      "type": "function",
      "constant": true
    },
    {
      "inputs": [
        {
          "internalType": "uint256",
          "name": "tokenId",
          "type": "uint256"
        }
      ],
      "name": "ownerOf",
      "outputs": [
        {
          "internalType": "address",
          "name": "",
          "type": "address"
        }
      ],
      "stateMutability": "view",
      "type": "function",
      "constant": true
    },
    {
      "inputs": [
        {
          "internalType": "uint256",
          "name": "surveyNo",
          "type": "uint256"
        },
        {
          "internalType": "string",
          "name": "district",
          "type": "string"
        },
        {
          "internalType": "string",
          "name": "taluk",
          "type": "string"
        },
        {
          "internalType": "string",
          "name": "village",
          "type": "string"
        },
        {
          "internalType": "uint256",
          "name": "blockNo",
          "type": "uint256"
        },
        {
          "internalType": "uint256",
          "name": "landValue",
          "type": "uint256"
        },
        {
          "internalType": "uint256",
          "name": "area",
          "type": "uint256"
        },
        {
          "internalType": "bytes",
          "name": "documentHash",
          "type": "bytes"
        }
      ],
      "name": "registerNewLand",
      "outputs": [],
      "stateMutability": "nonpayable",
      "type": "function"
    },
    {
      "inputs": [],
      "name": "registeredLandCount",
      "outputs": [
        {
          "internalType": "uint256",
          "name": "",
          "type": "uint256"
        }
      ],
      "stateMutability": "view",
      "type": "function",
      "constant": true
    },
    {
      "inputs": [
        {
          "internalType": "address",
          "name": "from",
          "type": "address"
        },
        {
          "internalType": "address",
          "name": "to",
          "type": "address"
        },
        {
          "internalType": "uint256",
          "name": "tokenId",
          "type": "uint256"
        }
      ],
      "name": "safeTransferFrom",
      "outputs": [],
      "stateMutability": "nonpayable",
      "type": "function"
    },
    {
      "inputs": [
        {
          "internalType": "address",
          "name": "from",
          "type": "address"
        },
        {
          "internalType": "address",
          "name": "to",
          "type": "address"
        },
        {
          "internalType": "uint256",
          "name": "tokenId",
          "type": "uint256"
        },
        {
          "internalType": "bytes",
          "name": "_data",
          "type": "bytes"
        }
      ],
      "name": "safeTransferFrom",
      "outputs": [],
      "stateMutability": "nonpayable",
      "type": "function"
    },
    {
      "inputs": [
        {
          "internalType": "address",
          "name": "operator",
          "type": "address"
        },
        {
          "internalType": "bool",
          "name": "approved",
          "type": "bool"
        }
      ],
      "name": "setApprovalForAll",
      "outputs": [],
      "stateMutability": "nonpayable",
      "type": "function"
    },
    {
      "inputs": [
        {
          "internalType": "bytes4",
          "name": "interfaceId",
          "type": "bytes4"
        }
      ],
      "name": "supportsInterface",
      "outputs": [
        {
          "internalType": "bool",
          "name": "",
          "type": "bool"
        }
      ],
      "stateMutability": "view",
      "type": "function",
      "constant": true
    },
    {
      "inputs": [],
      "name": "symbol",
      "outputs": [
        {
          "internalType": "string",
          "name": "",
          "type": "string"
        }
      ],
      "stateMutability": "view",
      "type": "function",
      "constant": true
    },
    {
      "inputs": [
        {
          "internalType": "uint256",
          "name": "tokenId",
          "type": "uint256"
        }
      ],
      "name": "tokenURI",
      "outputs": [
        {
          "internalType": "string",
          "name": "",
          "type": "string"
        }
      ],
      "stateMutability": "view",
      "type": "function",
      "constant": true
    },
    {
      "inputs": [
        {
          "internalType": "address",
          "name": "from",
          "type": "address"
        },
        {
          "internalType": "address",
          "name": "to",
          "type": "address"
        },
        {
          "internalType": "uint256",
          "name": "tokenId",
          "type": "uint256"
        }
      ],
      "name": "transferFrom",
      "outputs": [],
      "stateMutability": "nonpayable",
      "type": "function"
    },
    {
      "inputs": [
        {
          "internalType": "uint256",
          "name": "landID",
          "type": "uint256"
        }
      ],
      "name": "bid",
      "outputs": [],
      "stateMutability": "payable",
      "type": "function",
      "payable": true
    },
    {
      "inputs": [
        {
          "internalType": "uint256",
          "name": "landID",
          "type": "uint256"
        }
      ],
      "name": "acceptBid",
      "outputs": [],
      "stateMutability": "nonpayable",
      "type": "function"
    }
  ],
  "bytecode": "0x608060405260006007553480156200001657600080fd5b506040518060400160405280600481526020017f4c616e64000000000000000000000000000000000000000000000000000000008152506040518060400160405280600381526020017f4c4e44000000000000000000000000000000000000000000000000000000000081525081600090805190602001906200009b929190620000bd565b508060019080519060200190620000b4929190620000bd565b505050620001d2565b828054620000cb906200016d565b90600052602060002090601f016020900481019282620000ef57600085556200013b565b82601f106200010a57805160ff19168380011785556200013b565b828001600101855582156200013b579182015b828111156200013a5782518255916020019190600101906200011d565b5b5090506200014a91906200014e565b5090565b5b80821115620001695760008160009055506001016200014f565b5090565b600060028204905060018216806200018657607f821691505b602082108114156200019d576200019c620001a3565b5b50919050565b7f4e487b7100000000000000000000000000000000000000000000000000000000600052602260045260246000fd5b61385980620001e26000396000f3fe60806040526004361061010d5760003560e01c80636352211e11610095578063a7613a7d11610064578063a7613a7d1461037c578063b88d4fde146103a7578063c87b56dd146103d0578063e985e9c51461040d578063fe0cb7dc1461044a5761010e565b80636352211e146102ae57806370a08231146102eb57806395d89b4114610328578063a22cb465146103535761010e565b806310d10780116100dc57806310d10780146101ee57806323b872dd146102175780632b1fd58a1461024057806342842e0e14610269578063454a2ab3146102925761010e565b806301ffc9a71461012057806306fdde031461015d578063081812fc14610188578063095ea7b3146101c55761010e565b5b34801561011a57600080fd5b50600080fd5b34801561012c57600080fd5b50610147600480360381019061014291906126d5565b610487565b6040516101549190612d5d565b60405180910390f35b34801561016957600080fd5b50610172610569565b60405161017f9190612d78565b60405180910390f35b34801561019457600080fd5b506101af60048036038101906101aa9190612727565b6105fb565b6040516101bc9190612ccd565b60405180910390f35b3480156101d157600080fd5b506101ec60048036038101906101e79190612699565b610680565b005b3480156101fa57600080fd5b5061021560048036038101906102109190612750565b610798565b005b34801561022357600080fd5b5061023e60048036038101906102399190612593565b6108e0565b005b34801561024c57600080fd5b5061026760048036038101906102629190612727565b610940565b005b34801561027557600080fd5b50610290600480360381019061028b9190612593565b610cba565b005b6102ac60048036038101906102a79190612727565b610cda565b005b3480156102ba57600080fd5b506102d560048036038101906102d09190612727565b611009565b6040516102e29190612ccd565b60405180910390f35b3480156102f757600080fd5b50610312600480360381019061030d919061252e565b6110bb565b60405161031f9190612f9c565b60405180910390f35b34801561033457600080fd5b5061033d611173565b60405161034a9190612d78565b60405180910390f35b34801561035f57600080fd5b5061037a6004803603810190610375919061265d565b611205565b005b34801561038857600080fd5b5061039161121b565b60405161039e9190612f9c565b60405180910390f35b3480156103b357600080fd5b506103ce60048036038101906103c991906125e2565b611221565b005b3480156103dc57600080fd5b506103f760048036038101906103f29190612727565b611283565b6040516104049190612d78565b60405180910390f35b34801561041957600080fd5b50610434600480360381019061042f9190612557565b61132a565b6040516104419190612d5d565b60405180910390f35b34801561045657600080fd5b50610471600480360381019061046c9190612727565b6113be565b60405161047e9190612f7a565b60405180910390f35b60007f80ac58cd000000000000000000000000000000000000000000000000000000007bffffffffffffffffffffffffffffffffffffffffffffffffffffffff1916827bffffffffffffffffffffffffffffffffffffffffffffffffffffffff1916148061055257507f5b5e139f000000000000000000000000000000000000000000000000000000007bffffffffffffffffffffffffffffffffffffffffffffffffffffffff1916827bffffffffffffffffffffffffffffffffffffffffffffffffffffffff1916145b80610562575061056182611677565b5b9050919050565b60606000805461057890613214565b80601f01602080910402602001604051908101604052809291908181526020018280546105a490613214565b80156105f15780601f106105c6576101008083540402835291602001916105f1565b820191906000526020600020905b8154815290600101906020018083116105d457829003601f168201915b5050505050905090565b6000610606826116e1565b610645576040517f08c379a000000000000000000000000000000000000000000000000000000000815260040161063c90612eda565b60405180910390fd5b6004600083815260200190815260200160002060009054906101000a900473ffffffffffffffffffffffffffffffffffffffff169050919050565b600061068b82611009565b90508073ffffffffffffffffffffffffffffffffffffffff168373ffffffffffffffffffffffffffffffffffffffff1614156106fc576040517f08c379a00000000000000000000000000000000000000000000000000000000081526004016106f390612f1a565b60405180910390fd5b8073ffffffffffffffffffffffffffffffffffffffff1661071b61174d565b73ffffffffffffffffffffffffffffffffffffffff16148061074a57506107498161074461174d565b61132a565b5b610789576040517f08c379a000000000000000000000000000000000000000000000000000000000815260040161078090612e5a565b60405180910390fd5b6107938383611755565b505050565b6040518061012001604052808981526020018881526020018781526020018681526020018581526020018481526020018381526020016000151581526020018281525060066000600754815260200190815260200160002060008201518160000155602082015181600101908051906020019061081692919061227e565b50604082015181600201908051906020019061083392919061227e565b50606082015181600301908051906020019061085092919061227e565b506080820151816004015560a0820151816005015560c0820151816006015560e08201518160070160006101000a81548160ff0219169083151502179055506101008201518160080190805190602001906108ac929190612304565b509050506108bc3360075461180e565b6001600760008282546108cf91906130a3565b925050819055505050505050505050565b6108f16108eb61174d565b826119e8565b610930576040517f08c379a000000000000000000000000000000000000000000000000000000000815260040161092790612f5a565b60405180910390fd5b61093b838383611ac6565b505050565b3373ffffffffffffffffffffffffffffffffffffffff166108fc60086000848152602001908152602001600020600001549081150290604051600060405180830381858888f1935050505015801561099c573d6000803e3d6000fd5b506109de336008600084815260200190815260200160002060010160009054906101000a900473ffffffffffffffffffffffffffffffffffffffff1683610cba565b60005b6008600083815260200190815260200160002060030180549050811015610c87576008600083815260200190815260200160002060010160009054906101000a900473ffffffffffffffffffffffffffffffffffffffff1673ffffffffffffffffffffffffffffffffffffffff16600860008481526020019081526020016000206003018281548110610a9d577f4e487b7100000000000000000000000000000000000000000000000000000000600052603260045260246000fd5b9060005260206000200160009054906101000a900473ffffffffffffffffffffffffffffffffffffffff1673ffffffffffffffffffffffffffffffffffffffff161415610ae957610c74565b600860008381526020019081526020016000206003018181548110610b37577f4e487b7100000000000000000000000000000000000000000000000000000000600052603260045260246000fd5b9060005260206000200160009054906101000a900473ffffffffffffffffffffffffffffffffffffffff1673ffffffffffffffffffffffffffffffffffffffff166108fc600860008581526020019081526020016000206002016000600860008781526020019081526020016000206003018581548110610be1577f4e487b7100000000000000000000000000000000000000000000000000000000600052603260045260246000fd5b9060005260206000200160009054906101000a900473ffffffffffffffffffffffffffffffffffffffff1673ffffffffffffffffffffffffffffffffffffffff1673ffffffffffffffffffffffffffffffffffffffff168152602001908152602001600020549081150290604051600060405180830381858888f19350505050158015610c72573d6000803e3d6000fd5b505b8080610c7f90613277565b9150506109e1565b5060016006600083815260200190815260200160002060070160006101000a81548160ff02191690831515021790555050565b610cd583838360405180602001604052806000815250611221565b505050565b610ce381611009565b73ffffffffffffffffffffffffffffffffffffffff163373ffffffffffffffffffffffffffffffffffffffff161415610d1b57600080fd5b6008600082815260200190815260200160002060000154346008600084815260200190815260200160002060020160003373ffffffffffffffffffffffffffffffffffffffff1673ffffffffffffffffffffffffffffffffffffffff16815260200190815260200160002054610d9191906130a3565b11610dd1576040517f08c379a0000000000000000000000000000000000000000000000000000000008152600401610dc890612f3a565b60405180910390fd5b336008600083815260200190815260200160002060010160006101000a81548173ffffffffffffffffffffffffffffffffffffffff021916908373ffffffffffffffffffffffffffffffffffffffff16021790555060086000828152602001908152602001600020600301339080600181540180825580915050600190039060005260206000200160009091909190916101000a81548173ffffffffffffffffffffffffffffffffffffffff021916908373ffffffffffffffffffffffffffffffffffffffff160217905550346008600083815260200190815260200160002060020160003373ffffffffffffffffffffffffffffffffffffffff1673ffffffffffffffffffffffffffffffffffffffff16815260200190815260200160002054610efc91906130a3565b6008600083815260200190815260200160002060000181905550346008600083815260200190815260200160002060020160003373ffffffffffffffffffffffffffffffffffffffff1673ffffffffffffffffffffffffffffffffffffffff1681526020019081526020016000206000828254610f7991906130a3565b92505081905550807faba11c5dfdb797eb6f7328f5f70a9b390c19e34a3927e10f1925839d442c42936008600084815260200190815260200160002060010160009054906101000a900473ffffffffffffffffffffffffffffffffffffffff166008600085815260200190815260200160002060000154604051610ffe929190612d34565b60405180910390a250565b6000806002600084815260200190815260200160002060009054906101000a900473ffffffffffffffffffffffffffffffffffffffff169050600073ffffffffffffffffffffffffffffffffffffffff168173ffffffffffffffffffffffffffffffffffffffff1614156110b2576040517f08c379a00000000000000000000000000000000000000000000000000000000081526004016110a990612e9a565b60405180910390fd5b80915050919050565b60008073ffffffffffffffffffffffffffffffffffffffff168273ffffffffffffffffffffffffffffffffffffffff16141561112c576040517f08c379a000000000000000000000000000000000000000000000000000000000815260040161112390612e7a565b60405180910390fd5b600360008373ffffffffffffffffffffffffffffffffffffffff1673ffffffffffffffffffffffffffffffffffffffff168152602001908152602001600020549050919050565b60606001805461118290613214565b80601f01602080910402602001604051908101604052809291908181526020018280546111ae90613214565b80156111fb5780601f106111d0576101008083540402835291602001916111fb565b820191906000526020600020905b8154815290600101906020018083116111de57829003601f168201915b5050505050905090565b61121761121061174d565b8383611d2d565b5050565b60075481565b61123261122c61174d565b836119e8565b611271576040517f08c379a000000000000000000000000000000000000000000000000000000000815260040161126890612f5a565b60405180910390fd5b61127d84848484611e9a565b50505050565b606061128e826116e1565b6112cd576040517f08c379a00000000000000000000000000000000000000000000000000000000081526004016112c490612efa565b60405180910390fd5b60006112d7611ef6565b905060008151116112f75760405180602001604052806000815250611322565b8061130184611f0d565b604051602001611312929190612ca9565b6040516020818303038152906040525b915050919050565b6000600560008473ffffffffffffffffffffffffffffffffffffffff1673ffffffffffffffffffffffffffffffffffffffff16815260200190815260200160002060008373ffffffffffffffffffffffffffffffffffffffff1673ffffffffffffffffffffffffffffffffffffffff16815260200190815260200160002060009054906101000a900460ff16905092915050565b6113c661238a565b6006600083815260200190815260200160002060405180610120016040529081600082015481526020016001820180546113ff90613214565b80601f016020809104026020016040519081016040528092919081815260200182805461142b90613214565b80156114785780601f1061144d57610100808354040283529160200191611478565b820191906000526020600020905b81548152906001019060200180831161145b57829003601f168201915b5050505050815260200160028201805461149190613214565b80601f01602080910402602001604051908101604052809291908181526020018280546114bd90613214565b801561150a5780601f106114df5761010080835404028352916020019161150a565b820191906000526020600020905b8154815290600101906020018083116114ed57829003601f168201915b5050505050815260200160038201805461152390613214565b80601f016020809104026020016040519081016040528092919081815260200182805461154f90613214565b801561159c5780601f106115715761010080835404028352916020019161159c565b820191906000526020600020905b81548152906001019060200180831161157f57829003601f168201915b505050505081526020016004820154815260200160058201548152602001600682015481526020016007820160009054906101000a900460ff161515151581526020016008820180546115ee90613214565b80601f016020809104026020016040519081016040528092919081815260200182805461161a90613214565b80156116675780601f1061163c57610100808354040283529160200191611667565b820191906000526020600020905b81548152906001019060200180831161164a57829003601f168201915b5050505050815250509050919050565b60007f01ffc9a7000000000000000000000000000000000000000000000000000000007bffffffffffffffffffffffffffffffffffffffffffffffffffffffff1916827bffffffffffffffffffffffffffffffffffffffffffffffffffffffff1916149050919050565b60008073ffffffffffffffffffffffffffffffffffffffff166002600084815260200190815260200160002060009054906101000a900473ffffffffffffffffffffffffffffffffffffffff1673ffffffffffffffffffffffffffffffffffffffff1614159050919050565b600033905090565b816004600083815260200190815260200160002060006101000a81548173ffffffffffffffffffffffffffffffffffffffff021916908373ffffffffffffffffffffffffffffffffffffffff160217905550808273ffffffffffffffffffffffffffffffffffffffff166117c883611009565b73ffffffffffffffffffffffffffffffffffffffff167f8c5be1e5ebec7d5bd14f71427d1e84f3dd0314c0f7b2291e5b200ac8c7c3b92560405160405180910390a45050565b600073ffffffffffffffffffffffffffffffffffffffff168273ffffffffffffffffffffffffffffffffffffffff16141561187e576040517f08c379a000000000000000000000000000000000000000000000000000000000815260040161187590612eba565b60405180910390fd5b611887816116e1565b156118c7576040517f08c379a00000000000000000000000000000000000000000000000000000000081526004016118be90612dda565b60405180910390fd5b6118d3600083836120ba565b6001600360008473ffffffffffffffffffffffffffffffffffffffff1673ffffffffffffffffffffffffffffffffffffffff168152602001908152602001600020600082825461192391906130a3565b92505081905550816002600083815260200190815260200160002060006101000a81548173ffffffffffffffffffffffffffffffffffffffff021916908373ffffffffffffffffffffffffffffffffffffffff160217905550808273ffffffffffffffffffffffffffffffffffffffff16600073ffffffffffffffffffffffffffffffffffffffff167fddf252ad1be2c89b69c2b068fc378daa952ba7f163c4a11628f55a4df523b3ef60405160405180910390a46119e4600083836120bf565b5050565b60006119f3826116e1565b611a32576040517f08c379a0000000000000000000000000000000000000000000000000000000008152600401611a2990612e3a565b60405180910390fd5b6000611a3d83611009565b90508073ffffffffffffffffffffffffffffffffffffffff168473ffffffffffffffffffffffffffffffffffffffff161480611aac57508373ffffffffffffffffffffffffffffffffffffffff16611a94846105fb565b73ffffffffffffffffffffffffffffffffffffffff16145b80611abd5750611abc818561132a565b5b91505092915050565b8273ffffffffffffffffffffffffffffffffffffffff16611ae682611009565b73ffffffffffffffffffffffffffffffffffffffff1614611b3c576040517f08c379a0000000000000000000000000000000000000000000000000000000008152600401611b3390612dba565b60405180910390fd5b600073ffffffffffffffffffffffffffffffffffffffff168273ffffffffffffffffffffffffffffffffffffffff161415611bac576040517f08c379a0000000000000000000000000000000000000000000000000000000008152600401611ba390612dfa565b60405180910390fd5b611bb78383836120ba565b611bc2600082611755565b6001600360008573ffffffffffffffffffffffffffffffffffffffff1673ffffffffffffffffffffffffffffffffffffffff1681526020019081526020016000206000828254611c12919061312a565b925050819055506001600360008473ffffffffffffffffffffffffffffffffffffffff1673ffffffffffffffffffffffffffffffffffffffff1681526020019081526020016000206000828254611c6991906130a3565b92505081905550816002600083815260200190815260200160002060006101000a81548173ffffffffffffffffffffffffffffffffffffffff021916908373ffffffffffffffffffffffffffffffffffffffff160217905550808273ffffffffffffffffffffffffffffffffffffffff168473ffffffffffffffffffffffffffffffffffffffff167fddf252ad1be2c89b69c2b068fc378daa952ba7f163c4a11628f55a4df523b3ef60405160405180910390a4611d288383836120bf565b505050565b8173ffffffffffffffffffffffffffffffffffffffff168373ffffffffffffffffffffffffffffffffffffffff161415611d9c576040517f08c379a0000000000000000000000000000000000000000000000000000000008152600401611d9390612e1a565b60405180910390fd5b80600560008573ffffffffffffffffffffffffffffffffffffffff1673ffffffffffffffffffffffffffffffffffffffff16815260200190815260200160002060008473ffffffffffffffffffffffffffffffffffffffff1673ffffffffffffffffffffffffffffffffffffffff16815260200190815260200160002060006101000a81548160ff0219169083151502179055508173ffffffffffffffffffffffffffffffffffffffff168373ffffffffffffffffffffffffffffffffffffffff167f17307eab39ab6107e8899845ad3d59bd9653f200f220920489ca2b5937696c3183604051611e8d9190612d5d565b60405180910390a3505050565b611ea5848484611ac6565b611eb1848484846120c4565b611ef0576040517f08c379a0000000000000000000000000000000000000000000000000000000008152600401611ee790612d9a565b60405180910390fd5b50505050565b606060405180602001604052806000815250905090565b60606000821415611f55576040518060400160405280600181526020017f300000000000000000000000000000000000000000000000000000000000000081525090506120b5565b600082905060005b60008214611f87578080611f7090613277565b915050600a82611f8091906130f9565b9150611f5d565b60008167ffffffffffffffff811115611fc9577f4e487b7100000000000000000000000000000000000000000000000000000000600052604160045260246000fd5b6040519080825280601f01601f191660200182016040528015611ffb5781602001600182028036833780820191505090505b5090505b600085146120ae57600182612014919061312a565b9150600a8561202391906132c0565b603061202f91906130a3565b60f81b81838151811061206b577f4e487b7100000000000000000000000000000000000000000000000000000000600052603260045260246000fd5b60200101907effffffffffffffffffffffffffffffffffffffffffffffffffffffffffffff1916908160001a905350600a856120a791906130f9565b9450611fff565b8093505050505b919050565b505050565b505050565b60006120e58473ffffffffffffffffffffffffffffffffffffffff1661225b565b1561224e578373ffffffffffffffffffffffffffffffffffffffff1663150b7a0261210e61174d565b8786866040518563ffffffff1660e01b81526004016121309493929190612ce8565b602060405180830381600087803b15801561214a57600080fd5b505af192505050801561217b57506040513d601f19601f8201168201806040525081019061217891906126fe565b60015b6121fe573d80600081146121ab576040519150601f19603f3d011682016040523d82523d6000602084013e6121b0565b606091505b506000815114156121f6576040517f08c379a00000000000000000000000000000000000000000000000000000000081526004016121ed90612d9a565b60405180910390fd5b805181602001fd5b63150b7a0260e01b7bffffffffffffffffffffffffffffffffffffffffffffffffffffffff1916817bffffffffffffffffffffffffffffffffffffffffffffffffffffffff191614915050612253565b600190505b949350505050565b6000808273ffffffffffffffffffffffffffffffffffffffff163b119050919050565b82805461228a90613214565b90600052602060002090601f0160209004810192826122ac57600085556122f3565b82601f106122c557805160ff19168380011785556122f3565b828001600101855582156122f3579182015b828111156122f25782518255916020019190600101906122d7565b5b50905061230091906123d8565b5090565b82805461231090613214565b90600052602060002090601f0160209004810192826123325760008555612379565b82601f1061234b57805160ff1916838001178555612379565b82800160010185558215612379579182015b8281111561237857825182559160200191906001019061235d565b5b50905061238691906123d8565b5090565b60405180610120016040528060008152602001606081526020016060815260200160608152602001600081526020016000815260200160008152602001600015158152602001606081525090565b5b808211156123f15760008160009055506001016123d9565b5090565b600061240861240384612fdc565b612fb7565b90508281526020810184848401111561242057600080fd5b61242b8482856131d2565b509392505050565b60006124466124418461300d565b612fb7565b90508281526020810184848401111561245e57600080fd5b6124698482856131d2565b509392505050565b600081359050612480816137c7565b92915050565b600081359050612495816137de565b92915050565b6000813590506124aa816137f5565b92915050565b6000815190506124bf816137f5565b92915050565b600082601f8301126124d657600080fd5b81356124e68482602086016123f5565b91505092915050565b600082601f83011261250057600080fd5b8135612510848260208601612433565b91505092915050565b6000813590506125288161380c565b92915050565b60006020828403121561254057600080fd5b600061254e84828501612471565b91505092915050565b6000806040838503121561256a57600080fd5b600061257885828601612471565b925050602061258985828601612471565b9150509250929050565b6000806000606084860312156125a857600080fd5b60006125b686828701612471565b93505060206125c786828701612471565b92505060406125d886828701612519565b9150509250925092565b600080600080608085870312156125f857600080fd5b600061260687828801612471565b945050602061261787828801612471565b935050604061262887828801612519565b925050606085013567ffffffffffffffff81111561264557600080fd5b612651878288016124c5565b91505092959194509250565b6000806040838503121561267057600080fd5b600061267e85828601612471565b925050602061268f85828601612486565b9150509250929050565b600080604083850312156126ac57600080fd5b60006126ba85828601612471565b92505060206126cb85828601612519565b9150509250929050565b6000602082840312156126e757600080fd5b60006126f58482850161249b565b91505092915050565b60006020828403121561271057600080fd5b600061271e848285016124b0565b91505092915050565b60006020828403121561273957600080fd5b600061274784828501612519565b91505092915050565b600080600080600080600080610100898b03121561276d57600080fd5b600061277b8b828c01612519565b985050602089013567ffffffffffffffff81111561279857600080fd5b6127a48b828c016124ef565b975050604089013567ffffffffffffffff8111156127c157600080fd5b6127cd8b828c016124ef565b965050606089013567ffffffffffffffff8111156127ea57600080fd5b6127f68b828c016124ef565b95505060806128078b828c01612519565b94505060a06128188b828c01612519565b93505060c06128298b828c01612519565b92505060e089013567ffffffffffffffff81111561284657600080fd5b6128528b828c016124c5565b9150509295985092959890939650565b61286b8161315e565b82525050565b61287a81613170565b82525050565b61288981613170565b82525050565b600061289a8261303e565b6128a48185613054565b93506128b48185602086016131e1565b6128bd816133ad565b840191505092915050565b60006128d38261303e565b6128dd8185613065565b93506128ed8185602086016131e1565b6128f6816133ad565b840191505092915050565b600061290c82613049565b6129168185613076565b93506129268185602086016131e1565b61292f816133ad565b840191505092915050565b600061294582613049565b61294f8185613087565b935061295f8185602086016131e1565b612968816133ad565b840191505092915050565b600061297e82613049565b6129888185613098565b93506129988185602086016131e1565b80840191505092915050565b60006129b1603283613087565b91506129bc826133be565b604082019050919050565b60006129d4602583613087565b91506129df8261340d565b604082019050919050565b60006129f7601c83613087565b9150612a028261345c565b602082019050919050565b6000612a1a602483613087565b9150612a2582613485565b604082019050919050565b6000612a3d601983613087565b9150612a48826134d4565b602082019050919050565b6000612a60602c83613087565b9150612a6b826134fd565b604082019050919050565b6000612a83603883613087565b9150612a8e8261354c565b604082019050919050565b6000612aa6602a83613087565b9150612ab18261359b565b604082019050919050565b6000612ac9602983613087565b9150612ad4826135ea565b604082019050919050565b6000612aec602083613087565b9150612af782613639565b602082019050919050565b6000612b0f602c83613087565b9150612b1a82613662565b604082019050919050565b6000612b32602f83613087565b9150612b3d826136b1565b604082019050919050565b6000612b55602183613087565b9150612b6082613700565b604082019050919050565b6000612b78601d83613087565b9150612b838261374f565b602082019050919050565b6000612b9b603183613087565b9150612ba682613778565b604082019050919050565b600061012083016000830151612bca6000860182612c8b565b5060208301518482036020860152612be28282612901565b91505060408301518482036040860152612bfc8282612901565b91505060608301518482036060860152612c168282612901565b9150506080830151612c2b6080860182612c8b565b5060a0830151612c3e60a0860182612c8b565b5060c0830151612c5160c0860182612c8b565b5060e0830151612c6460e0860182612871565b50610100830151848203610100860152612c7e828261288f565b9150508091505092915050565b612c94816131c8565b82525050565b612ca3816131c8565b82525050565b6000612cb58285612973565b9150612cc18284612973565b91508190509392505050565b6000602082019050612ce26000830184612862565b92915050565b6000608082019050612cfd6000830187612862565b612d0a6020830186612862565b612d176040830185612c9a565b8181036060830152612d2981846128c8565b905095945050505050565b6000604082019050612d496000830185612862565b612d566020830184612c9a565b9392505050565b6000602082019050612d726000830184612880565b92915050565b60006020820190508181036000830152612d92818461293a565b905092915050565b60006020820190508181036000830152612db3816129a4565b9050919050565b60006020820190508181036000830152612dd3816129c7565b9050919050565b60006020820190508181036000830152612df3816129ea565b9050919050565b60006020820190508181036000830152612e1381612a0d565b9050919050565b60006020820190508181036000830152612e3381612a30565b9050919050565b60006020820190508181036000830152612e5381612a53565b9050919050565b60006020820190508181036000830152612e7381612a76565b9050919050565b60006020820190508181036000830152612e9381612a99565b9050919050565b60006020820190508181036000830152612eb381612abc565b9050919050565b60006020820190508181036000830152612ed381612adf565b9050919050565b60006020820190508181036000830152612ef381612b02565b9050919050565b60006020820190508181036000830152612f1381612b25565b9050919050565b60006020820190508181036000830152612f3381612b48565b9050919050565b60006020820190508181036000830152612f5381612b6b565b9050919050565b60006020820190508181036000830152612f7381612b8e565b9050919050565b60006020820190508181036000830152612f948184612bb1565b905092915050565b6000602082019050612fb16000830184612c9a565b92915050565b6000612fc1612fd2565b9050612fcd8282613246565b919050565b6000604051905090565b600067ffffffffffffffff821115612ff757612ff661337e565b5b613000826133ad565b9050602081019050919050565b600067ffffffffffffffff8211156130285761302761337e565b5b613031826133ad565b9050602081019050919050565b600081519050919050565b600081519050919050565b600082825260208201905092915050565b600082825260208201905092915050565b600082825260208201905092915050565b600082825260208201905092915050565b600081905092915050565b60006130ae826131c8565b91506130b9836131c8565b9250827fffffffffffffffffffffffffffffffffffffffffffffffffffffffffffffffff038211156130ee576130ed6132f1565b5b828201905092915050565b6000613104826131c8565b915061310f836131c8565b92508261311f5761311e613320565b5b828204905092915050565b6000613135826131c8565b9150613140836131c8565b925082821015613153576131526132f1565b5b828203905092915050565b6000613169826131a8565b9050919050565b60008115159050919050565b60007fffffffff0000000000000000000000000000000000000000000000000000000082169050919050565b600073ffffffffffffffffffffffffffffffffffffffff82169050919050565b6000819050919050565b82818337600083830152505050565b60005b838110156131ff5780820151818401526020810190506131e4565b8381111561320e576000848401525b50505050565b6000600282049050600182168061322c57607f821691505b602082108114156132405761323f61334f565b5b50919050565b61324f826133ad565b810181811067ffffffffffffffff8211171561326e5761326d61337e565b5b80604052505050565b6000613282826131c8565b91507fffffffffffffffffffffffffffffffffffffffffffffffffffffffffffffffff8214156132b5576132b46132f1565b5b600182019050919050565b60006132cb826131c8565b91506132d6836131c8565b9250826132e6576132e5613320565b5b828206905092915050565b7f4e487b7100000000000000000000000000000000000000000000000000000000600052601160045260246000fd5b7f4e487b7100000000000000000000000000000000000000000000000000000000600052601260045260246000fd5b7f4e487b7100000000000000000000000000000000000000000000000000000000600052602260045260246000fd5b7f4e487b7100000000000000000000000000000000000000000000000000000000600052604160045260246000fd5b6000601f19601f8301169050919050565b7f4552433732313a207472616e7366657220746f206e6f6e20455243373231526560008201527f63656976657220696d706c656d656e7465720000000000000000000000000000602082015250565b7f4552433732313a207472616e736665722066726f6d20696e636f72726563742060008201527f6f776e6572000000000000000000000000000000000000000000000000000000602082015250565b7f4552433732313a20746f6b656e20616c7265616479206d696e74656400000000600082015250565b7f4552433732313a207472616e7366657220746f20746865207a65726f2061646460008201527f7265737300000000000000000000000000000000000000000000000000000000602082015250565b7f4552433732313a20617070726f766520746f2063616c6c657200000000000000600082015250565b7f4552433732313a206f70657261746f7220717565727920666f72206e6f6e657860008201527f697374656e7420746f6b656e0000000000000000000000000000000000000000602082015250565b7f4552433732313a20617070726f76652063616c6c6572206973206e6f74206f7760008201527f6e6572206e6f7220617070726f76656420666f7220616c6c0000000000000000602082015250565b7f4552433732313a2062616c616e636520717565727920666f7220746865207a6560008201527f726f206164647265737300000000000000000000000000000000000000000000602082015250565b7f4552433732313a206f776e657220717565727920666f72206e6f6e657869737460008201527f656e7420746f6b656e0000000000000000000000000000000000000000000000602082015250565b7f4552433732313a206d696e7420746f20746865207a65726f2061646472657373600082015250565b7f4552433732313a20617070726f76656420717565727920666f72206e6f6e657860008201527f697374656e7420746f6b656e0000000000000000000000000000000000000000602082015250565b7f4552433732314d657461646174613a2055524920717565727920666f72206e6f60008201527f6e6578697374656e7420746f6b656e0000000000000000000000000000000000602082015250565b7f4552433732313a20617070726f76616c20746f2063757272656e74206f776e6560008201527f7200000000000000000000000000000000000000000000000000000000000000602082015250565b7f63616e742774206269642c206d616b6520612068696768657220426964000000600082015250565b7f4552433732313a207472616e736665722063616c6c6572206973206e6f74206f60008201527f776e6572206e6f7220617070726f766564000000000000000000000000000000602082015250565b6137d08161315e565b81146137db57600080fd5b50565b6137e781613170565b81146137f257600080fd5b50565b6137fe8161317c565b811461380957600080fd5b50565b613815816131c8565b811461382057600080fd5b5056fea26469706673582212201a56ff5d2fefa7a34339656f217c6e14a620b7eb92b8560dd0fd6e5dd5d7f2c464736f6c63430008010033",
  "immutableReferences": {},
  "source": "// SPDX-License-Identifier: MIT\r\n\r\npragma solidity ^0.8.1;\r\n\r\nimport \"./Land.sol\"; \r\n\r\ncontract LandSale is LandRegistration {\r\n    \r\n    struct BidDetail {\r\n        uint256 highestBid;\r\n        address highestBidder;\r\n        mapping(address => uint256) bids;\r\n        address[] bidders;\r\n    }\r\n\r\n    mapping(uint256 => BidDetail) BidDetails;\r\n    \r\n    function bid(uint256 landID) public payable {\r\n        require(msg.sender!=ownerOf(landID));\r\n        require(BidDetails[landID].bids[msg.sender] + msg.value > BidDetails[landID].highestBid, \"cant't bid, make a higher Bid\");\r\n        BidDetails[landID].highestBidder = msg.sender;\r\n        BidDetails[landID].bidders.push(msg.sender);\r\n        BidDetails[landID].highestBid = BidDetails[landID].bids[msg.sender] + msg.value;\r\n        BidDetails[landID].bids[msg.sender] += msg.value;\r\n        emit BidEvent(landID, BidDetails[landID].highestBidder, BidDetails[landID].highestBid);\r\n    }\r\n    \r\n    \r\n    function acceptBid(uint256 landID) public  {\r\n        payable(msg.sender).transfer(BidDetails[landID].highestBid);\r\n        safeTransferFrom(msg.sender, BidDetails[landID].highestBidder,landID);\r\n        for (uint256 i = 0; i < BidDetails[landID].bidders.length; i++) {\r\n            if (BidDetails[landID].bidders[i] == BidDetails[landID].highestBidder) {\r\n                continue;\r\n            }\r\n            payable(BidDetails[landID].bidders[i]).transfer(BidDetails[landID].bids[BidDetails[landID].bidders[i]]);\r\n        }\r\n        LandDetails[landID].salesStatus = true;\r\n    }\r\n    \r\n    fallback () external {\r\n        revert();\r\n    }\r\n    event BidEvent(uint256 indexed landID, address highestBidder, uint256 highestBid);\r\n\r\n\r\n}",
  "sourcePath": "D:\\GitHub\\Ethereum-LandSale\\contracts\\LandSale.sol",
  "compiler": {
    "name": "solc",
    "version": "0.8.1+commit.df193b15.Emscripten.clang"
  },
  "schemaVersion": "3.4.5",
  "updatedAt": "2022-03-01T16:57:00.892Z",
  "networkType": "ethereum",
  "devdoc": {
    "kind": "dev",
    "methods": {
      "approve(address,uint256)": {
        "details": "See {IERC721-approve}."
      },
      "balanceOf(address)": {
        "details": "See {IERC721-balanceOf}."
      },
      "getApproved(uint256)": {
        "details": "See {IERC721-getApproved}."
      },
      "isApprovedForAll(address,address)": {
        "details": "See {IERC721-isApprovedForAll}."
      },
      "name()": {
        "details": "See {IERC721Metadata-name}."
      },
      "ownerOf(uint256)": {
        "details": "See {IERC721-ownerOf}."
      },
      "safeTransferFrom(address,address,uint256)": {
        "details": "See {IERC721-safeTransferFrom}."
      },
      "safeTransferFrom(address,address,uint256,bytes)": {
        "details": "See {IERC721-safeTransferFrom}."
      },
      "setApprovalForAll(address,bool)": {
        "details": "See {IERC721-setApprovalForAll}."
      },
      "supportsInterface(bytes4)": {
        "details": "See {IERC165-supportsInterface}."
      },
      "symbol()": {
        "details": "See {IERC721Metadata-symbol}."
      },
      "tokenURI(uint256)": {
        "details": "See {IERC721Metadata-tokenURI}."
      },
      "transferFrom(address,address,uint256)": {
        "details": "See {IERC721-transferFrom}."
      }
    },
    "version": 1
  },
  "userdoc": {
    "kind": "user",
    "methods": {},
    "version": 1
  }
}