{
  "contractName": "LandSale",
  "abi": [
    {
      "anonymous": false,
      "inputs": [
        {
          "indexed": true,
          "internalType": "address",
          "name": "owner",
          "type": "address"
        },
        {
          "indexed": true,
          "internalType": "address",
          "name": "approved",
          "type": "address"
        },
        {
          "indexed": true,
          "internalType": "uint256",
          "name": "tokenId",
          "type": "uint256"
        }
      ],
      "name": "Approval",
      "type": "event"
    },
    {
      "anonymous": false,
      "inputs": [
        {
          "indexed": true,
          "internalType": "address",
          "name": "owner",
          "type": "address"
        },
        {
          "indexed": true,
          "internalType": "address",
          "name": "operator",
          "type": "address"
        },
        {
          "indexed": false,
          "internalType": "bool",
          "name": "approved",
          "type": "bool"
        }
      ],
      "name": "ApprovalForAll",
      "type": "event"
    },
    {
      "anonymous": false,
      "inputs": [
        {
          "indexed": true,
          "internalType": "uint256",
          "name": "landID",
          "type": "uint256"
        },
        {
          "indexed": false,
          "internalType": "address",
          "name": "highestBidder",
          "type": "address"
        },
        {
          "indexed": false,
          "internalType": "uint256",
          "name": "highestBid",
          "type": "uint256"
        }
      ],
      "name": "BidEvent",
      "type": "event"
    },
    {
      "anonymous": false,
      "inputs": [
        {
          "indexed": true,
          "internalType": "address",
          "name": "previousOwner",
          "type": "address"
        },
        {
          "indexed": true,
          "internalType": "address",
          "name": "newOwner",
          "type": "address"
        }
      ],
      "name": "OwnershipTransferred",
      "type": "event"
    },
    {
      "anonymous": false,
      "inputs": [
        {
          "indexed": true,
          "internalType": "address",
          "name": "from",
          "type": "address"
        },
        {
          "indexed": true,
          "internalType": "address",
          "name": "to",
          "type": "address"
        },
        {
          "indexed": true,
          "internalType": "uint256",
          "name": "tokenId",
          "type": "uint256"
        }
      ],
      "name": "Transfer",
      "type": "event"
    },
    {
      "stateMutability": "nonpayable",
      "type": "fallback"
    },
    {
      "inputs": [
        {
          "internalType": "address",
          "name": "to",
          "type": "address"
        },
        {
          "internalType": "uint256",
          "name": "tokenId",
          "type": "uint256"
        }
      ],
      "name": "approve",
      "outputs": [],
      "stateMutability": "nonpayable",
      "type": "function"
    },
    {
      "inputs": [
        {
          "internalType": "address",
          "name": "owner",
          "type": "address"
        }
      ],
      "name": "balanceOf",
      "outputs": [
        {
          "internalType": "uint256",
          "name": "",
          "type": "uint256"
        }
      ],
      "stateMutability": "view",
      "type": "function",
      "constant": true
    },
    {
      "inputs": [
        {
          "internalType": "uint256",
          "name": "tokenId",
          "type": "uint256"
        }
      ],
      "name": "getApproved",
      "outputs": [
        {
          "internalType": "address",
          "name": "",
          "type": "address"
        }
      ],
      "stateMutability": "view",
      "type": "function",
      "constant": true
    },
    {
      "inputs": [
        {
          "internalType": "uint256",
          "name": "landID",
          "type": "uint256"
        }
      ],
      "name": "getLandDetails",
      "outputs": [
        {
          "components": [
            {
              "internalType": "uint256",
              "name": "surveyNo",
              "type": "uint256"
            },
            {
              "internalType": "string",
              "name": "district",
              "type": "string"
            },
            {
              "internalType": "string",
              "name": "taluk",
              "type": "string"
            },
            {
              "internalType": "string",
              "name": "village",
              "type": "string"
            },
            {
              "internalType": "uint256",
              "name": "blockNo",
              "type": "uint256"
            },
            {
              "internalType": "uint256",
              "name": "landValue",
              "type": "uint256"
            },
            {
              "internalType": "uint256",
              "name": "area",
              "type": "uint256"
            },
            {
              "internalType": "bool",
              "name": "salesStatus",
              "type": "bool"
            },
            {
              "internalType": "bytes",
              "name": "documentHash",
              "type": "bytes"
            },
            {
              "internalType": "uint256",
              "name": "expiry",
              "type": "uint256"
            },
            {
              "internalType": "string",
              "name": "bidType",
              "type": "string"
            },
            {
              "internalType": "bool",
              "name": "expired",
              "type": "bool"
            }
          ],
          "internalType": "struct LandRegistration.LandDetail",
          "name": "",
          "type": "tuple"
        }
      ],
      "stateMutability": "view",
      "type": "function",
      "constant": true
    },
    {
      "inputs": [
        {
          "internalType": "address",
          "name": "owner",
          "type": "address"
        },
        {
          "internalType": "address",
          "name": "operator",
          "type": "address"
        }
      ],
      "name": "isApprovedForAll",
      "outputs": [
        {
          "internalType": "bool",
          "name": "",
          "type": "bool"
        }
      ],
      "stateMutability": "view",
      "type": "function",
      "constant": true
    },
    {
      "inputs": [],
      "name": "name",
      "outputs": [
        {
          "internalType": "string",
          "name": "",
          "type": "string"
        }
      ],
      "stateMutability": "view",
      "type": "function",
      "constant": true
    },
    {
      "inputs": [],
      "name": "owner",
      "outputs": [
        {
          "internalType": "address",
          "name": "",
          "type": "address"
        }
      ],
      "stateMutability": "view",
      "type": "function",
      "constant": true
    },
    {
      "inputs": [
        {
          "internalType": "uint256",
          "name": "tokenId",
          "type": "uint256"
        }
      ],
      "name": "ownerOf",
      "outputs": [
        {
          "internalType": "address",
          "name": "",
          "type": "address"
        }
      ],
      "stateMutability": "view",
      "type": "function",
      "constant": true
    },
    {
      "inputs": [
        {
          "internalType": "uint256",
          "name": "surveyNo",
          "type": "uint256"
        },
        {
          "internalType": "string",
          "name": "district",
          "type": "string"
        },
        {
          "internalType": "string",
          "name": "taluk",
          "type": "string"
        },
        {
          "internalType": "string",
          "name": "village",
          "type": "string"
        },
        {
          "internalType": "uint256",
          "name": "blockNo",
          "type": "uint256"
        },
        {
          "internalType": "uint256",
          "name": "landValue",
          "type": "uint256"
        },
        {
          "internalType": "uint256",
          "name": "area",
          "type": "uint256"
        },
        {
          "internalType": "bytes",
          "name": "documentHash",
          "type": "bytes"
        },
        {
          "internalType": "uint256",
          "name": "expiry",
          "type": "uint256"
        },
        {
          "internalType": "string",
          "name": "bidType",
          "type": "string"
        },
        {
          "internalType": "bool",
          "name": "expired",
          "type": "bool"
        }
      ],
      "name": "registerNewLand",
      "outputs": [
        {
          "internalType": "uint256",
          "name": "",
          "type": "uint256"
        }
      ],
      "stateMutability": "nonpayable",
      "type": "function"
    },
    {
      "inputs": [],
      "name": "registeredLandCount",
      "outputs": [
        {
          "internalType": "uint256",
          "name": "",
          "type": "uint256"
        }
      ],
      "stateMutability": "view",
      "type": "function",
      "constant": true
    },
    {
      "inputs": [],
      "name": "renounceOwnership",
      "outputs": [],
      "stateMutability": "nonpayable",
      "type": "function"
    },
    {
      "inputs": [
        {
          "internalType": "address",
          "name": "from",
          "type": "address"
        },
        {
          "internalType": "address",
          "name": "to",
          "type": "address"
        },
        {
          "internalType": "uint256",
          "name": "tokenId",
          "type": "uint256"
        }
      ],
      "name": "safeTransferFrom",
      "outputs": [],
      "stateMutability": "nonpayable",
      "type": "function"
    },
    {
      "inputs": [
        {
          "internalType": "address",
          "name": "from",
          "type": "address"
        },
        {
          "internalType": "address",
          "name": "to",
          "type": "address"
        },
        {
          "internalType": "uint256",
          "name": "tokenId",
          "type": "uint256"
        },
        {
          "internalType": "bytes",
          "name": "_data",
          "type": "bytes"
        }
      ],
      "name": "safeTransferFrom",
      "outputs": [],
      "stateMutability": "nonpayable",
      "type": "function"
    },
    {
      "inputs": [
        {
          "internalType": "address",
          "name": "operator",
          "type": "address"
        },
        {
          "internalType": "bool",
          "name": "approved",
          "type": "bool"
        }
      ],
      "name": "setApprovalForAll",
      "outputs": [],
      "stateMutability": "nonpayable",
      "type": "function"
    },
    {
      "inputs": [
        {
          "internalType": "bytes4",
          "name": "interfaceId",
          "type": "bytes4"
        }
      ],
      "name": "supportsInterface",
      "outputs": [
        {
          "internalType": "bool",
          "name": "",
          "type": "bool"
        }
      ],
      "stateMutability": "view",
      "type": "function",
      "constant": true
    },
    {
      "inputs": [],
      "name": "symbol",
      "outputs": [
        {
          "internalType": "string",
          "name": "",
          "type": "string"
        }
      ],
      "stateMutability": "view",
      "type": "function",
      "constant": true
    },
    {
      "inputs": [
        {
          "internalType": "uint256",
          "name": "tokenId",
          "type": "uint256"
        }
      ],
      "name": "tokenURI",
      "outputs": [
        {
          "internalType": "string",
          "name": "",
          "type": "string"
        }
      ],
      "stateMutability": "view",
      "type": "function",
      "constant": true
    },
    {
      "inputs": [
        {
          "internalType": "address",
          "name": "from",
          "type": "address"
        },
        {
          "internalType": "address",
          "name": "to",
          "type": "address"
        },
        {
          "internalType": "uint256",
          "name": "tokenId",
          "type": "uint256"
        }
      ],
      "name": "transferFrom",
      "outputs": [],
      "stateMutability": "nonpayable",
      "type": "function"
    },
    {
      "inputs": [
        {
          "internalType": "address",
          "name": "newOwner",
          "type": "address"
        }
      ],
      "name": "transferOwnership",
      "outputs": [],
      "stateMutability": "nonpayable",
      "type": "function"
    },
    {
      "inputs": [
        {
          "internalType": "uint256",
          "name": "landID",
          "type": "uint256"
        }
      ],
      "name": "bid",
      "outputs": [],
      "stateMutability": "payable",
      "type": "function",
      "payable": true
    },
    {
      "inputs": [
        {
          "internalType": "uint256",
          "name": "landID",
          "type": "uint256"
        }
      ],
      "name": "acceptBid",
      "outputs": [],
      "stateMutability": "nonpayable",
      "type": "function"
    },
    {
      "inputs": [
        {
          "internalType": "uint256",
          "name": "landID",
          "type": "uint256"
        }
      ],
      "name": "instantBuy",
      "outputs": [],
      "stateMutability": "payable",
      "type": "function",
      "payable": true
    },
    {
      "inputs": [
        {
          "internalType": "uint256",
          "name": "landID",
          "type": "uint256"
        }
      ],
      "name": "assetTransfer",
      "outputs": [],
      "stateMutability": "nonpayable",
      "type": "function"
    },
    {
      "inputs": [
        {
          "internalType": "uint256",
          "name": "landID",
          "type": "uint256"
        }
      ],
      "name": "approveforSale",
      "outputs": [],
      "stateMutability": "nonpayable",
      "type": "function"
    }
  ],
  "bytecode": "0x608060405260006008553480156200001657600080fd5b506040518060400160405280600481526020017f4c616e64000000000000000000000000000000000000000000000000000000008152506040518060400160405280600381526020017f4c4e44000000000000000000000000000000000000000000000000000000000081525081600090805190602001906200009b929190620001ab565b508060019080519060200190620000b4929190620001ab565b505050620000d7620000cb620000dd60201b60201c565b620000e560201b60201c565b620002c0565b600033905090565b6000600660009054906101000a900473ffffffffffffffffffffffffffffffffffffffff16905081600660006101000a81548173ffffffffffffffffffffffffffffffffffffffff021916908373ffffffffffffffffffffffffffffffffffffffff1602179055508173ffffffffffffffffffffffffffffffffffffffff168173ffffffffffffffffffffffffffffffffffffffff167f8be0079c531659141344cd1fd0a4f28419497f9722a3daafe3b4186f6b6457e060405160405180910390a35050565b828054620001b9906200025b565b90600052602060002090601f016020900481019282620001dd576000855562000229565b82601f10620001f857805160ff191683800117855562000229565b8280016001018555821562000229579182015b82811115620002285782518255916020019190600101906200020b565b5b5090506200023891906200023c565b5090565b5b80821115620002575760008160009055506001016200023d565b5090565b600060028204905060018216806200027457607f821691505b602082108114156200028b576200028a62000291565b5b50919050565b7f4e487b7100000000000000000000000000000000000000000000000000000000600052602260045260246000fd5b6143e080620002d06000396000f3fe60806040526004361061014f5760003560e01c8063852a38bc116100b6578063c6f675db1161006f578063c6f675db14610470578063c87b56dd146104ad578063da989b05146104ea578063e985e9c514610513578063f2fde38b14610550578063fe0cb7dc1461057957610150565b8063852a38bc146103815780638da5cb5b1461039d57806395d89b41146103c8578063a22cb465146103f3578063a7613a7d1461041c578063b88d4fde1461044757610150565b80632b1fd58a116101085780632b1fd58a1461028257806342842e0e146102ab578063454a2ab3146102d45780636352211e146102f057806370a082311461032d578063715018a61461036a57610150565b806301ffc9a71461016257806306fdde031461019f578063081812fc146101ca578063095ea7b314610207578063169420ae1461023057806323b872dd1461025957610150565b5b34801561015c57600080fd5b50600080fd5b34801561016e57600080fd5b5061018960048036038101906101849190613068565b6105b6565b60405161019691906137d2565b60405180910390f35b3480156101ab57600080fd5b506101b4610698565b6040516101c191906137ed565b60405180910390f35b3480156101d657600080fd5b506101f160048036038101906101ec91906130ba565b61072a565b6040516101fe9190613742565b60405180910390f35b34801561021357600080fd5b5061022e6004803603810190610229919061302c565b6107af565b005b34801561023c57600080fd5b50610257600480360381019061025291906130ba565b6108c7565b005b34801561026557600080fd5b50610280600480360381019061027b9190612f26565b610982565b005b34801561028e57600080fd5b506102a960048036038101906102a491906130ba565b6109e2565b005b3480156102b757600080fd5b506102d260048036038101906102cd9190612f26565b610d5c565b005b6102ee60048036038101906102e991906130ba565b610d7c565b005b3480156102fc57600080fd5b50610317600480360381019061031291906130ba565b61106a565b6040516103249190613742565b60405180910390f35b34801561033957600080fd5b50610354600480360381019061034f9190612ec1565b61111c565b6040516103619190613a51565b60405180910390f35b34801561037657600080fd5b5061037f6111d4565b005b61039b600480360381019061039691906130ba565b61125c565b005b3480156103a957600080fd5b506103b26114c3565b6040516103bf9190613742565b60405180910390f35b3480156103d457600080fd5b506103dd6114ed565b6040516103ea91906137ed565b60405180910390f35b3480156103ff57600080fd5b5061041a60048036038101906104159190612ff0565b61157f565b005b34801561042857600080fd5b50610431611595565b60405161043e9190613a51565b60405180910390f35b34801561045357600080fd5b5061046e60048036038101906104699190612f75565b61159b565b005b34801561047c57600080fd5b50610497600480360381019061049291906130e3565b6115fd565b6040516104a49190613a51565b60405180910390f35b3480156104b957600080fd5b506104d460048036038101906104cf91906130ba565b6117ce565b6040516104e191906137ed565b60405180910390f35b3480156104f657600080fd5b50610511600480360381019061050c91906130ba565b611875565b005b34801561051f57600080fd5b5061053a60048036038101906105359190612eea565b611a05565b60405161054791906137d2565b60405180910390f35b34801561055c57600080fd5b5061057760048036038101906105729190612ec1565b611a99565b005b34801561058557600080fd5b506105a0600480360381019061059b91906130ba565b611b91565b6040516105ad9190613a2f565b60405180910390f35b60007f80ac58cd000000000000000000000000000000000000000000000000000000007bffffffffffffffffffffffffffffffffffffffffffffffffffffffff1916827bffffffffffffffffffffffffffffffffffffffffffffffffffffffff1916148061068157507f5b5e139f000000000000000000000000000000000000000000000000000000007bffffffffffffffffffffffffffffffffffffffffffffffffffffffff1916827bffffffffffffffffffffffffffffffffffffffffffffffffffffffff1916145b80610691575061069082611f01565b5b9050919050565b6060600080546106a790613d23565b80601f01602080910402602001604051908101604052809291908181526020018280546106d390613d23565b80156107205780601f106106f557610100808354040283529160200191610720565b820191906000526020600020905b81548152906001019060200180831161070357829003601f168201915b5050505050905090565b600061073582611f6b565b610774576040517f08c379a000000000000000000000000000000000000000000000000000000000815260040161076b9061396f565b60405180910390fd5b6004600083815260200190815260200160002060009054906101000a900473ffffffffffffffffffffffffffffffffffffffff169050919050565b60006107ba8261106a565b90508073ffffffffffffffffffffffffffffffffffffffff168373ffffffffffffffffffffffffffffffffffffffff16141561082b576040517f08c379a0000000000000000000000000000000000000000000000000000000008152600401610822906139cf565b60405180910390fd5b8073ffffffffffffffffffffffffffffffffffffffff1661084a611fd7565b73ffffffffffffffffffffffffffffffffffffffff161480610879575061087881610873611fd7565b611a05565b5b6108b8576040517f08c379a00000000000000000000000000000000000000000000000000000000081526004016108af906138ef565b60405180910390fd5b6108c28383611fdf565b505050565b6109076009600083815260200190815260200160002060010160009054906101000a900473ffffffffffffffffffffffffffffffffffffffff16826107af565b6109506109138261106a565b6009600084815260200190815260200160002060010160009054906101000a900473ffffffffffffffffffffffffffffffffffffffff1683610d5c565b60016007600083815260200190815260200160002060070160006101000a81548160ff02191690831515021790555050565b61099361098d611fd7565b82612098565b6109d2576040517f08c379a00000000000000000000000000000000000000000000000000000000081526004016109c990613a0f565b60405180910390fd5b6109dd838383612176565b505050565b3373ffffffffffffffffffffffffffffffffffffffff166108fc60096000848152602001908152602001600020600001549081150290604051600060405180830381858888f19350505050158015610a3e573d6000803e3d6000fd5b50610a80336009600084815260200190815260200160002060010160009054906101000a900473ffffffffffffffffffffffffffffffffffffffff1683610d5c565b60005b6009600083815260200190815260200160002060030180549050811015610d29576009600083815260200190815260200160002060010160009054906101000a900473ffffffffffffffffffffffffffffffffffffffff1673ffffffffffffffffffffffffffffffffffffffff16600960008481526020019081526020016000206003018281548110610b3f577f4e487b7100000000000000000000000000000000000000000000000000000000600052603260045260246000fd5b9060005260206000200160009054906101000a900473ffffffffffffffffffffffffffffffffffffffff1673ffffffffffffffffffffffffffffffffffffffff161415610b8b57610d16565b600960008381526020019081526020016000206003018181548110610bd9577f4e487b7100000000000000000000000000000000000000000000000000000000600052603260045260246000fd5b9060005260206000200160009054906101000a900473ffffffffffffffffffffffffffffffffffffffff1673ffffffffffffffffffffffffffffffffffffffff166108fc600960008581526020019081526020016000206002016000600960008781526020019081526020016000206003018581548110610c83577f4e487b7100000000000000000000000000000000000000000000000000000000600052603260045260246000fd5b9060005260206000200160009054906101000a900473ffffffffffffffffffffffffffffffffffffffff1673ffffffffffffffffffffffffffffffffffffffff1673ffffffffffffffffffffffffffffffffffffffff168152602001908152602001600020549081150290604051600060405180830381858888f19350505050158015610d14573d6000803e3d6000fd5b505b8080610d2190613d86565b915050610a83565b5060016007600083815260200190815260200160002060070160006101000a81548160ff02191690831515021790555050565b610d778383836040518060200160405280600081525061159b565b505050565b6009600082815260200190815260200160002060000154346009600084815260200190815260200160002060020160003373ffffffffffffffffffffffffffffffffffffffff1673ffffffffffffffffffffffffffffffffffffffff16815260200190815260200160002054610df29190613b58565b11610e32576040517f08c379a0000000000000000000000000000000000000000000000000000000008152600401610e29906139ef565b60405180910390fd5b336009600083815260200190815260200160002060010160006101000a81548173ffffffffffffffffffffffffffffffffffffffff021916908373ffffffffffffffffffffffffffffffffffffffff16021790555060096000828152602001908152602001600020600301339080600181540180825580915050600190039060005260206000200160009091909190916101000a81548173ffffffffffffffffffffffffffffffffffffffff021916908373ffffffffffffffffffffffffffffffffffffffff160217905550346009600083815260200190815260200160002060020160003373ffffffffffffffffffffffffffffffffffffffff1673ffffffffffffffffffffffffffffffffffffffff16815260200190815260200160002054610f5d9190613b58565b6009600083815260200190815260200160002060000181905550346009600083815260200190815260200160002060020160003373ffffffffffffffffffffffffffffffffffffffff1673ffffffffffffffffffffffffffffffffffffffff1681526020019081526020016000206000828254610fda9190613b58565b92505081905550807faba11c5dfdb797eb6f7328f5f70a9b390c19e34a3927e10f1925839d442c42936009600084815260200190815260200160002060010160009054906101000a900473ffffffffffffffffffffffffffffffffffffffff16600960008581526020019081526020016000206000015460405161105f9291906137a9565b60405180910390a250565b6000806002600084815260200190815260200160002060009054906101000a900473ffffffffffffffffffffffffffffffffffffffff169050600073ffffffffffffffffffffffffffffffffffffffff168173ffffffffffffffffffffffffffffffffffffffff161415611113576040517f08c379a000000000000000000000000000000000000000000000000000000000815260040161110a9061392f565b60405180910390fd5b80915050919050565b60008073ffffffffffffffffffffffffffffffffffffffff168273ffffffffffffffffffffffffffffffffffffffff16141561118d576040517f08c379a00000000000000000000000000000000000000000000000000000000081526004016111849061390f565b60405180910390fd5b600360008373ffffffffffffffffffffffffffffffffffffffff1673ffffffffffffffffffffffffffffffffffffffff168152602001908152602001600020549050919050565b6111dc611fd7565b73ffffffffffffffffffffffffffffffffffffffff166111fa6114c3565b73ffffffffffffffffffffffffffffffffffffffff1614611250576040517f08c379a00000000000000000000000000000000000000000000000000000000081526004016112479061398f565b60405180910390fd5b61125a60006123dd565b565b336009600083815260200190815260200160002060010160006101000a81548173ffffffffffffffffffffffffffffffffffffffff021916908373ffffffffffffffffffffffffffffffffffffffff16021790555060096000828152602001908152602001600020600301339080600181540180825580915050600190039060005260206000200160009091909190916101000a81548173ffffffffffffffffffffffffffffffffffffffff021916908373ffffffffffffffffffffffffffffffffffffffff160217905550346009600083815260200190815260200160002060020160003373ffffffffffffffffffffffffffffffffffffffff1673ffffffffffffffffffffffffffffffffffffffff168152602001908152602001600020546113879190613b58565b6009600083815260200190815260200160002060000181905550346009600083815260200190815260200160002060020160003373ffffffffffffffffffffffffffffffffffffffff1673ffffffffffffffffffffffffffffffffffffffff16815260200190815260200160002060008282546114049190613b58565b9250508190555060016007600083815260200190815260200160002060070160006101000a81548160ff021916908315150217905550807faba11c5dfdb797eb6f7328f5f70a9b390c19e34a3927e10f1925839d442c42936009600084815260200190815260200160002060010160009054906101000a900473ffffffffffffffffffffffffffffffffffffffff1660096000858152602001908152602001600020600001546040516114b89291906137a9565b60405180910390a250565b6000600660009054906101000a900473ffffffffffffffffffffffffffffffffffffffff16905090565b6060600180546114fc90613d23565b80601f016020809104026020016040519081016040528092919081815260200182805461152890613d23565b80156115755780601f1061154a57610100808354040283529160200191611575565b820191906000526020600020905b81548152906001019060200180831161155857829003601f168201915b5050505050905090565b61159161158a611fd7565b83836124a3565b5050565b60085481565b6115ac6115a6611fd7565b83612098565b6115eb576040517f08c379a00000000000000000000000000000000000000000000000000000000081526004016115e290613a0f565b60405180910390fd5b6115f784848484612610565b50505050565b60006040518061018001604052808d81526020018c81526020018b81526020018a8152602001898152602001888152602001878152602001600015158152602001868152602001858152602001848152602001831515815250600760006008548152602001908152602001600020600082015181600001556020820151816001019080519060200190611691929190612bfa565b5060408201518160020190805190602001906116ae929190612bfa565b5060608201518160030190805190602001906116cb929190612bfa565b506080820151816004015560a0820151816005015560c0820151816006015560e08201518160070160006101000a81548160ff021916908315150217905550610100820151816008019080519060200190611727929190612c80565b50610120820151816009015561014082015181600a019080519060200190611750929190612bfa565b5061016082015181600b0160006101000a81548160ff0219169083151502179055509050506117813360085461266c565b61179461178c6114c3565b6008546107af565b6001600860008282546117a79190613b58565b9250508190555060016008546117bd9190613c39565b90509b9a5050505050505050505050565b60606117d982611f6b565b611818576040517f08c379a000000000000000000000000000000000000000000000000000000000815260040161180f906139af565b60405180910390fd5b6000611822612846565b90506000815111611842576040518060200160405280600081525061186d565b8061184c8461285d565b60405160200161185d92919061371e565b6040516020818303038152906040525b915050919050565b61187e8161106a565b73ffffffffffffffffffffffffffffffffffffffff166108fc6118d460056118c660046009600088815260200190815260200160002060000154612a0a90919063ffffffff16565b612a2090919063ffffffff16565b9081150290604051600060405180830381858888f193505050501580156118ff573d6000803e3d6000fd5b506119086114c3565b73ffffffffffffffffffffffffffffffffffffffff166108fc61195e600561195060016009600088815260200190815260200160002060000154612a0a90919063ffffffff16565b612a2090919063ffffffff16565b9081150290604051600060405180830381858888f19350505050158015611989573d6000803e3d6000fd5b506119d36119968261106a565b6009600084815260200190815260200160002060010160009054906101000a900473ffffffffffffffffffffffffffffffffffffffff1683610d5c565b60016007600083815260200190815260200160002060070160006101000a81548160ff02191690831515021790555050565b6000600560008473ffffffffffffffffffffffffffffffffffffffff1673ffffffffffffffffffffffffffffffffffffffff16815260200190815260200160002060008373ffffffffffffffffffffffffffffffffffffffff1673ffffffffffffffffffffffffffffffffffffffff16815260200190815260200160002060009054906101000a900460ff16905092915050565b611aa1611fd7565b73ffffffffffffffffffffffffffffffffffffffff16611abf6114c3565b73ffffffffffffffffffffffffffffffffffffffff1614611b15576040517f08c379a0000000000000000000000000000000000000000000000000000000008152600401611b0c9061398f565b60405180910390fd5b600073ffffffffffffffffffffffffffffffffffffffff168173ffffffffffffffffffffffffffffffffffffffff161415611b85576040517f08c379a0000000000000000000000000000000000000000000000000000000008152600401611b7c9061382f565b60405180910390fd5b611b8e816123dd565b50565b611b99612d06565b600760008381526020019081526020016000206040518061018001604052908160008201548152602001600182018054611bd290613d23565b80601f0160208091040260200160405190810160405280929190818152602001828054611bfe90613d23565b8015611c4b5780601f10611c2057610100808354040283529160200191611c4b565b820191906000526020600020905b815481529060010190602001808311611c2e57829003601f168201915b50505050508152602001600282018054611c6490613d23565b80601f0160208091040260200160405190810160405280929190818152602001828054611c9090613d23565b8015611cdd5780601f10611cb257610100808354040283529160200191611cdd565b820191906000526020600020905b815481529060010190602001808311611cc057829003601f168201915b50505050508152602001600382018054611cf690613d23565b80601f0160208091040260200160405190810160405280929190818152602001828054611d2290613d23565b8015611d6f5780601f10611d4457610100808354040283529160200191611d6f565b820191906000526020600020905b815481529060010190602001808311611d5257829003601f168201915b505050505081526020016004820154815260200160058201548152602001600682015481526020016007820160009054906101000a900460ff16151515158152602001600882018054611dc190613d23565b80601f0160208091040260200160405190810160405280929190818152602001828054611ded90613d23565b8015611e3a5780601f10611e0f57610100808354040283529160200191611e3a565b820191906000526020600020905b815481529060010190602001808311611e1d57829003601f168201915b5050505050815260200160098201548152602001600a82018054611e5d90613d23565b80601f0160208091040260200160405190810160405280929190818152602001828054611e8990613d23565b8015611ed65780601f10611eab57610100808354040283529160200191611ed6565b820191906000526020600020905b815481529060010190602001808311611eb957829003601f168201915b50505050508152602001600b820160009054906101000a900460ff1615151515815250509050919050565b60007f01ffc9a7000000000000000000000000000000000000000000000000000000007bffffffffffffffffffffffffffffffffffffffffffffffffffffffff1916827bffffffffffffffffffffffffffffffffffffffffffffffffffffffff1916149050919050565b60008073ffffffffffffffffffffffffffffffffffffffff166002600084815260200190815260200160002060009054906101000a900473ffffffffffffffffffffffffffffffffffffffff1673ffffffffffffffffffffffffffffffffffffffff1614159050919050565b600033905090565b816004600083815260200190815260200160002060006101000a81548173ffffffffffffffffffffffffffffffffffffffff021916908373ffffffffffffffffffffffffffffffffffffffff160217905550808273ffffffffffffffffffffffffffffffffffffffff166120528361106a565b73ffffffffffffffffffffffffffffffffffffffff167f8c5be1e5ebec7d5bd14f71427d1e84f3dd0314c0f7b2291e5b200ac8c7c3b92560405160405180910390a45050565b60006120a382611f6b565b6120e2576040517f08c379a00000000000000000000000000000000000000000000000000000000081526004016120d9906138cf565b60405180910390fd5b60006120ed8361106a565b90508073ffffffffffffffffffffffffffffffffffffffff168473ffffffffffffffffffffffffffffffffffffffff16148061215c57508373ffffffffffffffffffffffffffffffffffffffff166121448461072a565b73ffffffffffffffffffffffffffffffffffffffff16145b8061216d575061216c8185611a05565b5b91505092915050565b8273ffffffffffffffffffffffffffffffffffffffff166121968261106a565b73ffffffffffffffffffffffffffffffffffffffff16146121ec576040517f08c379a00000000000000000000000000000000000000000000000000000000081526004016121e39061384f565b60405180910390fd5b600073ffffffffffffffffffffffffffffffffffffffff168273ffffffffffffffffffffffffffffffffffffffff16141561225c576040517f08c379a00000000000000000000000000000000000000000000000000000000081526004016122539061388f565b60405180910390fd5b612267838383612a36565b612272600082611fdf565b6001600360008573ffffffffffffffffffffffffffffffffffffffff1673ffffffffffffffffffffffffffffffffffffffff16815260200190815260200160002060008282546122c29190613c39565b925050819055506001600360008473ffffffffffffffffffffffffffffffffffffffff1673ffffffffffffffffffffffffffffffffffffffff16815260200190815260200160002060008282546123199190613b58565b92505081905550816002600083815260200190815260200160002060006101000a81548173ffffffffffffffffffffffffffffffffffffffff021916908373ffffffffffffffffffffffffffffffffffffffff160217905550808273ffffffffffffffffffffffffffffffffffffffff168473ffffffffffffffffffffffffffffffffffffffff167fddf252ad1be2c89b69c2b068fc378daa952ba7f163c4a11628f55a4df523b3ef60405160405180910390a46123d8838383612a3b565b505050565b6000600660009054906101000a900473ffffffffffffffffffffffffffffffffffffffff16905081600660006101000a81548173ffffffffffffffffffffffffffffffffffffffff021916908373ffffffffffffffffffffffffffffffffffffffff1602179055508173ffffffffffffffffffffffffffffffffffffffff168173ffffffffffffffffffffffffffffffffffffffff167f8be0079c531659141344cd1fd0a4f28419497f9722a3daafe3b4186f6b6457e060405160405180910390a35050565b8173ffffffffffffffffffffffffffffffffffffffff168373ffffffffffffffffffffffffffffffffffffffff161415612512576040517f08c379a0000000000000000000000000000000000000000000000000000000008152600401612509906138af565b60405180910390fd5b80600560008573ffffffffffffffffffffffffffffffffffffffff1673ffffffffffffffffffffffffffffffffffffffff16815260200190815260200160002060008473ffffffffffffffffffffffffffffffffffffffff1673ffffffffffffffffffffffffffffffffffffffff16815260200190815260200160002060006101000a81548160ff0219169083151502179055508173ffffffffffffffffffffffffffffffffffffffff168373ffffffffffffffffffffffffffffffffffffffff167f17307eab39ab6107e8899845ad3d59bd9653f200f220920489ca2b5937696c318360405161260391906137d2565b60405180910390a3505050565b61261b848484612176565b61262784848484612a40565b612666576040517f08c379a000000000000000000000000000000000000000000000000000000000815260040161265d9061380f565b60405180910390fd5b50505050565b600073ffffffffffffffffffffffffffffffffffffffff168273ffffffffffffffffffffffffffffffffffffffff1614156126dc576040517f08c379a00000000000000000000000000000000000000000000000000000000081526004016126d39061394f565b60405180910390fd5b6126e581611f6b565b15612725576040517f08c379a000000000000000000000000000000000000000000000000000000000815260040161271c9061386f565b60405180910390fd5b61273160008383612a36565b6001600360008473ffffffffffffffffffffffffffffffffffffffff1673ffffffffffffffffffffffffffffffffffffffff16815260200190815260200160002060008282546127819190613b58565b92505081905550816002600083815260200190815260200160002060006101000a81548173ffffffffffffffffffffffffffffffffffffffff021916908373ffffffffffffffffffffffffffffffffffffffff160217905550808273ffffffffffffffffffffffffffffffffffffffff16600073ffffffffffffffffffffffffffffffffffffffff167fddf252ad1be2c89b69c2b068fc378daa952ba7f163c4a11628f55a4df523b3ef60405160405180910390a461284260008383612a3b565b5050565b606060405180602001604052806000815250905090565b606060008214156128a5576040518060400160405280600181526020017f30000000000000000000000000000000000000000000000000000000000000008152509050612a05565b600082905060005b600082146128d75780806128c090613d86565b915050600a826128d09190613bae565b91506128ad565b60008167ffffffffffffffff811115612919577f4e487b7100000000000000000000000000000000000000000000000000000000600052604160045260246000fd5b6040519080825280601f01601f19166020018201604052801561294b5781602001600182028036833780820191505090505b5090505b600085146129fe576001826129649190613c39565b9150600a856129739190613dcf565b603061297f9190613b58565b60f81b8183815181106129bb577f4e487b7100000000000000000000000000000000000000000000000000000000600052603260045260246000fd5b60200101907effffffffffffffffffffffffffffffffffffffffffffffffffffffffffffff1916908160001a905350600a856129f79190613bae565b945061294f565b8093505050505b919050565b60008183612a189190613bdf565b905092915050565b60008183612a2e9190613bae565b905092915050565b505050565b505050565b6000612a618473ffffffffffffffffffffffffffffffffffffffff16612bd7565b15612bca578373ffffffffffffffffffffffffffffffffffffffff1663150b7a02612a8a611fd7565b8786866040518563ffffffff1660e01b8152600401612aac949392919061375d565b602060405180830381600087803b158015612ac657600080fd5b505af1925050508015612af757506040513d601f19601f82011682018060405250810190612af49190613091565b60015b612b7a573d8060008114612b27576040519150601f19603f3d011682016040523d82523d6000602084013e612b2c565b606091505b50600081511415612b72576040517f08c379a0000000000000000000000000000000000000000000000000000000008152600401612b699061380f565b60405180910390fd5b805181602001fd5b63150b7a0260e01b7bffffffffffffffffffffffffffffffffffffffffffffffffffffffff1916817bffffffffffffffffffffffffffffffffffffffffffffffffffffffff191614915050612bcf565b600190505b949350505050565b6000808273ffffffffffffffffffffffffffffffffffffffff163b119050919050565b828054612c0690613d23565b90600052602060002090601f016020900481019282612c285760008555612c6f565b82601f10612c4157805160ff1916838001178555612c6f565b82800160010185558215612c6f579182015b82811115612c6e578251825591602001919060010190612c53565b5b509050612c7c9190612d6b565b5090565b828054612c8c90613d23565b90600052602060002090601f016020900481019282612cae5760008555612cf5565b82601f10612cc757805160ff1916838001178555612cf5565b82800160010185558215612cf5579182015b82811115612cf4578251825591602001919060010190612cd9565b5b509050612d029190612d6b565b5090565b604051806101800160405280600081526020016060815260200160608152602001606081526020016000815260200160008152602001600081526020016000151581526020016060815260200160008152602001606081526020016000151581525090565b5b80821115612d84576000816000905550600101612d6c565b5090565b6000612d9b612d9684613a91565b613a6c565b905082815260208101848484011115612db357600080fd5b612dbe848285613ce1565b509392505050565b6000612dd9612dd484613ac2565b613a6c565b905082815260208101848484011115612df157600080fd5b612dfc848285613ce1565b509392505050565b600081359050612e138161434e565b92915050565b600081359050612e2881614365565b92915050565b600081359050612e3d8161437c565b92915050565b600081519050612e528161437c565b92915050565b600082601f830112612e6957600080fd5b8135612e79848260208601612d88565b91505092915050565b600082601f830112612e9357600080fd5b8135612ea3848260208601612dc6565b91505092915050565b600081359050612ebb81614393565b92915050565b600060208284031215612ed357600080fd5b6000612ee184828501612e04565b91505092915050565b60008060408385031215612efd57600080fd5b6000612f0b85828601612e04565b9250506020612f1c85828601612e04565b9150509250929050565b600080600060608486031215612f3b57600080fd5b6000612f4986828701612e04565b9350506020612f5a86828701612e04565b9250506040612f6b86828701612eac565b9150509250925092565b60008060008060808587031215612f8b57600080fd5b6000612f9987828801612e04565b9450506020612faa87828801612e04565b9350506040612fbb87828801612eac565b925050606085013567ffffffffffffffff811115612fd857600080fd5b612fe487828801612e58565b91505092959194509250565b6000806040838503121561300357600080fd5b600061301185828601612e04565b925050602061302285828601612e19565b9150509250929050565b6000806040838503121561303f57600080fd5b600061304d85828601612e04565b925050602061305e85828601612eac565b9150509250929050565b60006020828403121561307a57600080fd5b600061308884828501612e2e565b91505092915050565b6000602082840312156130a357600080fd5b60006130b184828501612e43565b91505092915050565b6000602082840312156130cc57600080fd5b60006130da84828501612eac565b91505092915050565b60008060008060008060008060008060006101608c8e03121561310557600080fd5b60006131138e828f01612eac565b9b505060208c013567ffffffffffffffff81111561313057600080fd5b61313c8e828f01612e82565b9a505060408c013567ffffffffffffffff81111561315957600080fd5b6131658e828f01612e82565b99505060608c013567ffffffffffffffff81111561318257600080fd5b61318e8e828f01612e82565b985050608061319f8e828f01612eac565b97505060a06131b08e828f01612eac565b96505060c06131c18e828f01612eac565b95505060e08c013567ffffffffffffffff8111156131de57600080fd5b6131ea8e828f01612e58565b9450506101006131fc8e828f01612eac565b9350506101208c013567ffffffffffffffff81111561321a57600080fd5b6132268e828f01612e82565b9250506101406132388e828f01612e19565b9150509295989b509295989b9093969950565b61325481613c6d565b82525050565b61326381613c7f565b82525050565b61327281613c7f565b82525050565b600061328382613af3565b61328d8185613b09565b935061329d818560208601613cf0565b6132a681613ebc565b840191505092915050565b60006132bc82613af3565b6132c68185613b1a565b93506132d6818560208601613cf0565b6132df81613ebc565b840191505092915050565b60006132f582613afe565b6132ff8185613b2b565b935061330f818560208601613cf0565b61331881613ebc565b840191505092915050565b600061332e82613afe565b6133388185613b3c565b9350613348818560208601613cf0565b61335181613ebc565b840191505092915050565b600061336782613afe565b6133718185613b4d565b9350613381818560208601613cf0565b80840191505092915050565b600061339a603283613b3c565b91506133a582613ecd565b604082019050919050565b60006133bd602683613b3c565b91506133c882613f1c565b604082019050919050565b60006133e0602583613b3c565b91506133eb82613f6b565b604082019050919050565b6000613403601c83613b3c565b915061340e82613fba565b602082019050919050565b6000613426602483613b3c565b915061343182613fe3565b604082019050919050565b6000613449601983613b3c565b915061345482614032565b602082019050919050565b600061346c602c83613b3c565b91506134778261405b565b604082019050919050565b600061348f603883613b3c565b915061349a826140aa565b604082019050919050565b60006134b2602a83613b3c565b91506134bd826140f9565b604082019050919050565b60006134d5602983613b3c565b91506134e082614148565b604082019050919050565b60006134f8602083613b3c565b915061350382614197565b602082019050919050565b600061351b602c83613b3c565b9150613526826141c0565b604082019050919050565b600061353e602083613b3c565b91506135498261420f565b602082019050919050565b6000613561602f83613b3c565b915061356c82614238565b604082019050919050565b6000613584602183613b3c565b915061358f82614287565b604082019050919050565b60006135a7601d83613b3c565b91506135b2826142d6565b602082019050919050565b60006135ca603183613b3c565b91506135d5826142ff565b604082019050919050565b6000610180830160008301516135f96000860182613700565b506020830151848203602086015261361182826132ea565b9150506040830151848203604086015261362b82826132ea565b9150506060830151848203606086015261364582826132ea565b915050608083015161365a6080860182613700565b5060a083015161366d60a0860182613700565b5060c083015161368060c0860182613700565b5060e083015161369360e086018261325a565b506101008301518482036101008601526136ad8282613278565b9150506101208301516136c4610120860182613700565b506101408301518482036101408601526136de82826132ea565b9150506101608301516136f561016086018261325a565b508091505092915050565b61370981613cd7565b82525050565b61371881613cd7565b82525050565b600061372a828561335c565b9150613736828461335c565b91508190509392505050565b6000602082019050613757600083018461324b565b92915050565b6000608082019050613772600083018761324b565b61377f602083018661324b565b61378c604083018561370f565b818103606083015261379e81846132b1565b905095945050505050565b60006040820190506137be600083018561324b565b6137cb602083018461370f565b9392505050565b60006020820190506137e76000830184613269565b92915050565b600060208201905081810360008301526138078184613323565b905092915050565b600060208201905081810360008301526138288161338d565b9050919050565b60006020820190508181036000830152613848816133b0565b9050919050565b60006020820190508181036000830152613868816133d3565b9050919050565b60006020820190508181036000830152613888816133f6565b9050919050565b600060208201905081810360008301526138a881613419565b9050919050565b600060208201905081810360008301526138c88161343c565b9050919050565b600060208201905081810360008301526138e88161345f565b9050919050565b6000602082019050818103600083015261390881613482565b9050919050565b60006020820190508181036000830152613928816134a5565b9050919050565b60006020820190508181036000830152613948816134c8565b9050919050565b60006020820190508181036000830152613968816134eb565b9050919050565b600060208201905081810360008301526139888161350e565b9050919050565b600060208201905081810360008301526139a881613531565b9050919050565b600060208201905081810360008301526139c881613554565b9050919050565b600060208201905081810360008301526139e881613577565b9050919050565b60006020820190508181036000830152613a088161359a565b9050919050565b60006020820190508181036000830152613a28816135bd565b9050919050565b60006020820190508181036000830152613a4981846135e0565b905092915050565b6000602082019050613a66600083018461370f565b92915050565b6000613a76613a87565b9050613a828282613d55565b919050565b6000604051905090565b600067ffffffffffffffff821115613aac57613aab613e8d565b5b613ab582613ebc565b9050602081019050919050565b600067ffffffffffffffff821115613add57613adc613e8d565b5b613ae682613ebc565b9050602081019050919050565b600081519050919050565b600081519050919050565b600082825260208201905092915050565b600082825260208201905092915050565b600082825260208201905092915050565b600082825260208201905092915050565b600081905092915050565b6000613b6382613cd7565b9150613b6e83613cd7565b9250827fffffffffffffffffffffffffffffffffffffffffffffffffffffffffffffffff03821115613ba357613ba2613e00565b5b828201905092915050565b6000613bb982613cd7565b9150613bc483613cd7565b925082613bd457613bd3613e2f565b5b828204905092915050565b6000613bea82613cd7565b9150613bf583613cd7565b9250817fffffffffffffffffffffffffffffffffffffffffffffffffffffffffffffffff0483118215151615613c2e57613c2d613e00565b5b828202905092915050565b6000613c4482613cd7565b9150613c4f83613cd7565b925082821015613c6257613c61613e00565b5b828203905092915050565b6000613c7882613cb7565b9050919050565b60008115159050919050565b60007fffffffff0000000000000000000000000000000000000000000000000000000082169050919050565b600073ffffffffffffffffffffffffffffffffffffffff82169050919050565b6000819050919050565b82818337600083830152505050565b60005b83811015613d0e578082015181840152602081019050613cf3565b83811115613d1d576000848401525b50505050565b60006002820490506001821680613d3b57607f821691505b60208210811415613d4f57613d4e613e5e565b5b50919050565b613d5e82613ebc565b810181811067ffffffffffffffff82111715613d7d57613d7c613e8d565b5b80604052505050565b6000613d9182613cd7565b91507fffffffffffffffffffffffffffffffffffffffffffffffffffffffffffffffff821415613dc457613dc3613e00565b5b600182019050919050565b6000613dda82613cd7565b9150613de583613cd7565b925082613df557613df4613e2f565b5b828206905092915050565b7f4e487b7100000000000000000000000000000000000000000000000000000000600052601160045260246000fd5b7f4e487b7100000000000000000000000000000000000000000000000000000000600052601260045260246000fd5b7f4e487b7100000000000000000000000000000000000000000000000000000000600052602260045260246000fd5b7f4e487b7100000000000000000000000000000000000000000000000000000000600052604160045260246000fd5b6000601f19601f8301169050919050565b7f4552433732313a207472616e7366657220746f206e6f6e20455243373231526560008201527f63656976657220696d706c656d656e7465720000000000000000000000000000602082015250565b7f4f776e61626c653a206e6577206f776e657220697320746865207a65726f206160008201527f6464726573730000000000000000000000000000000000000000000000000000602082015250565b7f4552433732313a207472616e736665722066726f6d20696e636f72726563742060008201527f6f776e6572000000000000000000000000000000000000000000000000000000602082015250565b7f4552433732313a20746f6b656e20616c7265616479206d696e74656400000000600082015250565b7f4552433732313a207472616e7366657220746f20746865207a65726f2061646460008201527f7265737300000000000000000000000000000000000000000000000000000000602082015250565b7f4552433732313a20617070726f766520746f2063616c6c657200000000000000600082015250565b7f4552433732313a206f70657261746f7220717565727920666f72206e6f6e657860008201527f697374656e7420746f6b656e0000000000000000000000000000000000000000602082015250565b7f4552433732313a20617070726f76652063616c6c6572206973206e6f74206f7760008201527f6e6572206e6f7220617070726f76656420666f7220616c6c0000000000000000602082015250565b7f4552433732313a2062616c616e636520717565727920666f7220746865207a6560008201527f726f206164647265737300000000000000000000000000000000000000000000602082015250565b7f4552433732313a206f776e657220717565727920666f72206e6f6e657869737460008201527f656e7420746f6b656e0000000000000000000000000000000000000000000000602082015250565b7f4552433732313a206d696e7420746f20746865207a65726f2061646472657373600082015250565b7f4552433732313a20617070726f76656420717565727920666f72206e6f6e657860008201527f697374656e7420746f6b656e0000000000000000000000000000000000000000602082015250565b7f4f776e61626c653a2063616c6c6572206973206e6f7420746865206f776e6572600082015250565b7f4552433732314d657461646174613a2055524920717565727920666f72206e6f60008201527f6e6578697374656e7420746f6b656e0000000000000000000000000000000000602082015250565b7f4552433732313a20617070726f76616c20746f2063757272656e74206f776e6560008201527f7200000000000000000000000000000000000000000000000000000000000000602082015250565b7f63616e742774206269642c206d616b6520612068696768657220426964000000600082015250565b7f4552433732313a207472616e736665722063616c6c6572206973206e6f74206f60008201527f776e6572206e6f7220617070726f766564000000000000000000000000000000602082015250565b61435781613c6d565b811461436257600080fd5b50565b61436e81613c7f565b811461437957600080fd5b50565b61438581613c8b565b811461439057600080fd5b50565b61439c81613cd7565b81146143a757600080fd5b5056fea2646970667358221220bcca1cdd74c47d13d000bb238b39a4d6a4d3252898d1753d86d71f2af3819ac464736f6c63430008010033",
  "immutableReferences": {},
  "source": "// SPDX-License-Identifier: MIT\r\n\r\npragma solidity ^0.8.1;\r\n\r\nimport \"./Land.sol\";\r\nimport \"@openzeppelin/contracts/utils/math/SafeMath.sol\";\r\n\r\ncontract LandSale is LandRegistration {\r\n    //address public owner;\r\n    struct BidDetail {\r\n        uint256 highestBid;\r\n        address highestBidder;\r\n        mapping(address => uint256) bids;\r\n        address[] bidders;\r\n    }\r\n\r\n    // constructor() {\r\n    //     owner = msg.sender;\r\n    // }\r\n\r\n    mapping(uint256 => BidDetail) BidDetails;\r\n\r\n    modifier ownerRestricted() {\r\n        if (msg.sender != owner()) _;\r\n    }\r\n\r\n    function bid(uint256 landID) public payable {\r\n        require(\r\n            BidDetails[landID].bids[msg.sender] + msg.value >\r\n                BidDetails[landID].highestBid,\r\n            \"cant't bid, make a higher Bid\"\r\n        );\r\n        BidDetails[landID].highestBidder = msg.sender;\r\n        BidDetails[landID].bidders.push(msg.sender);\r\n        BidDetails[landID].highestBid =\r\n            BidDetails[landID].bids[msg.sender] +\r\n            msg.value;\r\n        BidDetails[landID].bids[msg.sender] += msg.value;\r\n        emit BidEvent(\r\n            landID,\r\n            BidDetails[landID].highestBidder,\r\n            BidDetails[landID].highestBid\r\n        );\r\n    }\r\n\r\n    function acceptBid(uint256 landID) public {\r\n        payable(msg.sender).transfer(BidDetails[landID].highestBid);\r\n        safeTransferFrom(msg.sender, BidDetails[landID].highestBidder, landID);\r\n        for (uint256 i = 0; i < BidDetails[landID].bidders.length; i++) {\r\n            if (\r\n                BidDetails[landID].bidders[i] ==\r\n                BidDetails[landID].highestBidder\r\n            ) {\r\n                continue;\r\n            }\r\n            payable(BidDetails[landID].bidders[i]).transfer(\r\n                BidDetails[landID].bids[BidDetails[landID].bidders[i]]\r\n            );\r\n        }\r\n        LandDetails[landID].salesStatus = true;\r\n    }\r\n\r\n    function instantBuy(uint256 landID) public payable {\r\n        //require(msg.sender!=ownerOf(landID));\r\n        BidDetails[landID].highestBidder = msg.sender;\r\n        BidDetails[landID].bidders.push(msg.sender);\r\n        BidDetails[landID].highestBid =\r\n            BidDetails[landID].bids[msg.sender] +\r\n            msg.value;\r\n        BidDetails[landID].bids[msg.sender] += msg.value;\r\n        LandDetails[landID].salesStatus = true;\r\n        emit BidEvent(\r\n            landID,\r\n            BidDetails[landID].highestBidder,\r\n            BidDetails[landID].highestBid\r\n        );\r\n    }\r\n\r\n    using SafeMath for uint256;\r\n\r\n    function assetTransfer(uint256 landID) public {\r\n        payable(ownerOf(landID)).transfer(\r\n            BidDetails[landID].highestBid.mul(4).div(5)\r\n        );\r\n        payable(owner()).transfer(BidDetails[landID].highestBid.mul(1).div(5));\r\n        safeTransferFrom(\r\n            ownerOf(landID),\r\n            BidDetails[landID].highestBidder,\r\n            landID\r\n        );\r\n        LandDetails[landID].salesStatus = true;\r\n    }\r\n\r\n    function approveforSale(uint256 landID) public {\r\n        approve(BidDetails[landID].highestBidder, landID);\r\n        safeTransferFrom(\r\n            ownerOf(landID),\r\n            BidDetails[landID].highestBidder,\r\n            landID\r\n        );\r\n        LandDetails[landID].salesStatus = true;\r\n    }\r\n\r\n    fallback() external {\r\n        revert();\r\n    }\r\n\r\n    event BidEvent(\r\n        uint256 indexed landID,\r\n        address highestBidder,\r\n        uint256 highestBid\r\n    );\r\n}\r\n",
  "sourcePath": "D:\\GitHub\\Ethereum-LandSale\\contracts\\LandSale.sol",
  "compiler": {
    "name": "solc",
    "version": "0.8.1+commit.df193b15.Emscripten.clang"
  },
  "schemaVersion": "3.4.5",
  "updatedAt": "2022-03-19T10:05:30.405Z",
  "networkType": "ethereum",
  "devdoc": {
    "kind": "dev",
    "methods": {
      "approve(address,uint256)": {
        "details": "See {IERC721-approve}."
      },
      "balanceOf(address)": {
        "details": "See {IERC721-balanceOf}."
      },
      "getApproved(uint256)": {
        "details": "See {IERC721-getApproved}."
      },
      "isApprovedForAll(address,address)": {
        "details": "See {IERC721-isApprovedForAll}."
      },
      "name()": {
        "details": "See {IERC721Metadata-name}."
      },
      "owner()": {
        "details": "Returns the address of the current owner."
      },
      "ownerOf(uint256)": {
        "details": "See {IERC721-ownerOf}."
      },
      "renounceOwnership()": {
        "details": "Leaves the contract without owner. It will not be possible to call `onlyOwner` functions anymore. Can only be called by the current owner. NOTE: Renouncing ownership will leave the contract without an owner, thereby removing any functionality that is only available to the owner."
      },
      "safeTransferFrom(address,address,uint256)": {
        "details": "See {IERC721-safeTransferFrom}."
      },
      "safeTransferFrom(address,address,uint256,bytes)": {
        "details": "See {IERC721-safeTransferFrom}."
      },
      "setApprovalForAll(address,bool)": {
        "details": "See {IERC721-setApprovalForAll}."
      },
      "supportsInterface(bytes4)": {
        "details": "See {IERC165-supportsInterface}."
      },
      "symbol()": {
        "details": "See {IERC721Metadata-symbol}."
      },
      "tokenURI(uint256)": {
        "details": "See {IERC721Metadata-tokenURI}."
      },
      "transferFrom(address,address,uint256)": {
        "details": "See {IERC721-transferFrom}."
      },
      "transferOwnership(address)": {
        "details": "Transfers ownership of the contract to a new account (`newOwner`). Can only be called by the current owner."
      }
    },
    "version": 1
  },
  "userdoc": {
    "kind": "user",
    "methods": {},
    "version": 1
  }
}