{
  "contractName": "LandSale",
  "abi": [
    {
      "anonymous": false,
      "inputs": [
        {
          "indexed": true,
          "internalType": "address",
          "name": "owner",
          "type": "address"
        },
        {
          "indexed": true,
          "internalType": "address",
          "name": "approved",
          "type": "address"
        },
        {
          "indexed": true,
          "internalType": "uint256",
          "name": "tokenId",
          "type": "uint256"
        }
      ],
      "name": "Approval",
      "type": "event"
    },
    {
      "anonymous": false,
      "inputs": [
        {
          "indexed": true,
          "internalType": "address",
          "name": "owner",
          "type": "address"
        },
        {
          "indexed": true,
          "internalType": "address",
          "name": "operator",
          "type": "address"
        },
        {
          "indexed": false,
          "internalType": "bool",
          "name": "approved",
          "type": "bool"
        }
      ],
      "name": "ApprovalForAll",
      "type": "event"
    },
    {
      "anonymous": false,
      "inputs": [
        {
          "indexed": true,
          "internalType": "uint256",
          "name": "landID",
          "type": "uint256"
        },
        {
          "indexed": false,
          "internalType": "address",
          "name": "highestBidder",
          "type": "address"
        },
        {
          "indexed": false,
          "internalType": "uint256",
          "name": "highestBid",
          "type": "uint256"
        }
      ],
      "name": "BidEvent",
      "type": "event"
    },
    {
      "anonymous": false,
      "inputs": [
        {
          "indexed": true,
          "internalType": "address",
          "name": "from",
          "type": "address"
        },
        {
          "indexed": true,
          "internalType": "address",
          "name": "to",
          "type": "address"
        },
        {
          "indexed": true,
          "internalType": "uint256",
          "name": "tokenId",
          "type": "uint256"
        }
      ],
      "name": "Transfer",
      "type": "event"
    },
    {
      "stateMutability": "nonpayable",
      "type": "fallback"
    },
    {
      "inputs": [
        {
          "internalType": "address",
          "name": "to",
          "type": "address"
        },
        {
          "internalType": "uint256",
          "name": "tokenId",
          "type": "uint256"
        }
      ],
      "name": "approve",
      "outputs": [],
      "stateMutability": "nonpayable",
      "type": "function"
    },
    {
      "inputs": [
        {
          "internalType": "address",
          "name": "owner",
          "type": "address"
        }
      ],
      "name": "balanceOf",
      "outputs": [
        {
          "internalType": "uint256",
          "name": "",
          "type": "uint256"
        }
      ],
      "stateMutability": "view",
      "type": "function",
      "constant": true
    },
    {
      "inputs": [
        {
          "internalType": "uint256",
          "name": "tokenId",
          "type": "uint256"
        }
      ],
      "name": "getApproved",
      "outputs": [
        {
          "internalType": "address",
          "name": "",
          "type": "address"
        }
      ],
      "stateMutability": "view",
      "type": "function",
      "constant": true
    },
    {
      "inputs": [
        {
          "internalType": "uint256",
          "name": "landID",
          "type": "uint256"
        }
      ],
      "name": "getLandDetails",
      "outputs": [
        {
          "components": [
            {
              "internalType": "uint256",
              "name": "surveyNo",
              "type": "uint256"
            },
            {
              "internalType": "string",
              "name": "district",
              "type": "string"
            },
            {
              "internalType": "string",
              "name": "taluk",
              "type": "string"
            },
            {
              "internalType": "string",
              "name": "village",
              "type": "string"
            },
            {
              "internalType": "uint256",
              "name": "blockNo",
              "type": "uint256"
            },
            {
              "internalType": "uint256",
              "name": "landValue",
              "type": "uint256"
            },
            {
              "internalType": "uint256",
              "name": "area",
              "type": "uint256"
            },
            {
              "internalType": "bool",
              "name": "salesStatus",
              "type": "bool"
            }
          ],
          "internalType": "struct LandRegistration.LandDetail",
          "name": "",
          "type": "tuple"
        }
      ],
      "stateMutability": "view",
      "type": "function",
      "constant": true
    },
    {
      "inputs": [
        {
          "internalType": "address",
          "name": "owner",
          "type": "address"
        },
        {
          "internalType": "address",
          "name": "operator",
          "type": "address"
        }
      ],
      "name": "isApprovedForAll",
      "outputs": [
        {
          "internalType": "bool",
          "name": "",
          "type": "bool"
        }
      ],
      "stateMutability": "view",
      "type": "function",
      "constant": true
    },
    {
      "inputs": [],
      "name": "name",
      "outputs": [
        {
          "internalType": "string",
          "name": "",
          "type": "string"
        }
      ],
      "stateMutability": "view",
      "type": "function",
      "constant": true
    },
    {
      "inputs": [
        {
          "internalType": "uint256",
          "name": "tokenId",
          "type": "uint256"
        }
      ],
      "name": "ownerOf",
      "outputs": [
        {
          "internalType": "address",
          "name": "",
          "type": "address"
        }
      ],
      "stateMutability": "view",
      "type": "function",
      "constant": true
    },
    {
      "inputs": [
        {
          "internalType": "uint256",
          "name": "surveyNo",
          "type": "uint256"
        },
        {
          "internalType": "string",
          "name": "district",
          "type": "string"
        },
        {
          "internalType": "string",
          "name": "taluk",
          "type": "string"
        },
        {
          "internalType": "string",
          "name": "village",
          "type": "string"
        },
        {
          "internalType": "uint256",
          "name": "blockNo",
          "type": "uint256"
        },
        {
          "internalType": "uint256",
          "name": "landValue",
          "type": "uint256"
        },
        {
          "internalType": "uint256",
          "name": "area",
          "type": "uint256"
        }
      ],
      "name": "registerNewLand",
      "outputs": [],
      "stateMutability": "nonpayable",
      "type": "function"
    },
    {
      "inputs": [],
      "name": "registeredLandCount",
      "outputs": [
        {
          "internalType": "uint256",
          "name": "",
          "type": "uint256"
        }
      ],
      "stateMutability": "view",
      "type": "function",
      "constant": true
    },
    {
      "inputs": [
        {
          "internalType": "address",
          "name": "from",
          "type": "address"
        },
        {
          "internalType": "address",
          "name": "to",
          "type": "address"
        },
        {
          "internalType": "uint256",
          "name": "tokenId",
          "type": "uint256"
        }
      ],
      "name": "safeTransferFrom",
      "outputs": [],
      "stateMutability": "nonpayable",
      "type": "function"
    },
    {
      "inputs": [
        {
          "internalType": "address",
          "name": "from",
          "type": "address"
        },
        {
          "internalType": "address",
          "name": "to",
          "type": "address"
        },
        {
          "internalType": "uint256",
          "name": "tokenId",
          "type": "uint256"
        },
        {
          "internalType": "bytes",
          "name": "_data",
          "type": "bytes"
        }
      ],
      "name": "safeTransferFrom",
      "outputs": [],
      "stateMutability": "nonpayable",
      "type": "function"
    },
    {
      "inputs": [
        {
          "internalType": "address",
          "name": "operator",
          "type": "address"
        },
        {
          "internalType": "bool",
          "name": "approved",
          "type": "bool"
        }
      ],
      "name": "setApprovalForAll",
      "outputs": [],
      "stateMutability": "nonpayable",
      "type": "function"
    },
    {
      "inputs": [
        {
          "internalType": "bytes4",
          "name": "interfaceId",
          "type": "bytes4"
        }
      ],
      "name": "supportsInterface",
      "outputs": [
        {
          "internalType": "bool",
          "name": "",
          "type": "bool"
        }
      ],
      "stateMutability": "view",
      "type": "function",
      "constant": true
    },
    {
      "inputs": [],
      "name": "symbol",
      "outputs": [
        {
          "internalType": "string",
          "name": "",
          "type": "string"
        }
      ],
      "stateMutability": "view",
      "type": "function",
      "constant": true
    },
    {
      "inputs": [
        {
          "internalType": "uint256",
          "name": "tokenId",
          "type": "uint256"
        }
      ],
      "name": "tokenURI",
      "outputs": [
        {
          "internalType": "string",
          "name": "",
          "type": "string"
        }
      ],
      "stateMutability": "view",
      "type": "function",
      "constant": true
    },
    {
      "inputs": [
        {
          "internalType": "address",
          "name": "from",
          "type": "address"
        },
        {
          "internalType": "address",
          "name": "to",
          "type": "address"
        },
        {
          "internalType": "uint256",
          "name": "tokenId",
          "type": "uint256"
        }
      ],
      "name": "transferFrom",
      "outputs": [],
      "stateMutability": "nonpayable",
      "type": "function"
    },
    {
      "inputs": [
        {
          "internalType": "uint256",
          "name": "landID",
          "type": "uint256"
        }
      ],
      "name": "bid",
      "outputs": [],
      "stateMutability": "payable",
      "type": "function",
      "payable": true
    },
    {
      "inputs": [
        {
          "internalType": "uint256",
          "name": "landID",
          "type": "uint256"
        }
      ],
      "name": "acceptBid",
      "outputs": [],
      "stateMutability": "nonpayable",
      "type": "function"
    }
  ],
  "bytecode": "0x608060405260006007553480156200001657600080fd5b506040518060400160405280600481526020017f4c616e64000000000000000000000000000000000000000000000000000000008152506040518060400160405280600381526020017f4c4e44000000000000000000000000000000000000000000000000000000000081525081600090805190602001906200009b929190620000bd565b508060019080519060200190620000b4929190620000bd565b505050620001d2565b828054620000cb906200016d565b90600052602060002090601f016020900481019282620000ef57600085556200013b565b82601f106200010a57805160ff19168380011785556200013b565b828001600101855582156200013b579182015b828111156200013a5782518255916020019190600101906200011d565b5b5090506200014a91906200014e565b5090565b5b80821115620001695760008160009055506001016200014f565b5090565b600060028204905060018216806200018657607f821691505b602082108114156200019d576200019c620001a3565b5b50919050565b7f4e487b7100000000000000000000000000000000000000000000000000000000600052602260045260246000fd5b61368380620001e26000396000f3fe60806040526004361061010d5760003560e01c806370a0823111610095578063b88d4fde11610064578063b88d4fde1461037e578063c87b56dd146103a7578063e985e9c5146103e4578063f077066514610421578063fe0cb7dc1461044a5761010e565b806370a08231146102c257806395d89b41146102ff578063a22cb4651461032a578063a7613a7d146103535761010e565b806323b872dd116100dc57806323b872dd146101ee5780632b1fd58a1461021757806342842e0e14610240578063454a2ab3146102695780636352211e146102855761010e565b806301ffc9a71461012057806306fdde031461015d578063081812fc14610188578063095ea7b3146101c55761010e565b5b34801561011a57600080fd5b50600080fd5b34801561012c57600080fd5b5061014760048036038101906101429190612591565b610487565b6040516101549190612b98565b60405180910390f35b34801561016957600080fd5b50610172610569565b60405161017f9190612bb3565b60405180910390f35b34801561019457600080fd5b506101af60048036038101906101aa91906125e3565b6105fb565b6040516101bc9190612b08565b60405180910390f35b3480156101d157600080fd5b506101ec60048036038101906101e79190612555565b610680565b005b3480156101fa57600080fd5b506102156004803603810190610210919061244f565b610798565b005b34801561022357600080fd5b5061023e600480360381019061023991906125e3565b6107f8565b005b34801561024c57600080fd5b506102676004803603810190610262919061244f565b610b72565b005b610283600480360381019061027e91906125e3565b610b92565b005b34801561029157600080fd5b506102ac60048036038101906102a791906125e3565b610ec1565b6040516102b99190612b08565b60405180910390f35b3480156102ce57600080fd5b506102e960048036038101906102e491906123ea565b610f73565b6040516102f69190612dd7565b60405180910390f35b34801561030b57600080fd5b5061031461102b565b6040516103219190612bb3565b60405180910390f35b34801561033657600080fd5b50610351600480360381019061034c9190612519565b6110bd565b005b34801561035f57600080fd5b506103686110d3565b6040516103759190612dd7565b60405180910390f35b34801561038a57600080fd5b506103a560048036038101906103a0919061249e565b6110d9565b005b3480156103b357600080fd5b506103ce60048036038101906103c991906125e3565b61113b565b6040516103db9190612bb3565b60405180910390f35b3480156103f057600080fd5b5061040b60048036038101906104069190612413565b6111e2565b6040516104189190612b98565b60405180910390f35b34801561042d57600080fd5b506104486004803603810190610443919061260c565b611276565b005b34801561045657600080fd5b50610471600480360381019061046c91906125e3565b611399565b60405161047e9190612db5565b60405180910390f35b60007f80ac58cd000000000000000000000000000000000000000000000000000000007bffffffffffffffffffffffffffffffffffffffffffffffffffffffff1916827bffffffffffffffffffffffffffffffffffffffffffffffffffffffff1916148061055257507f5b5e139f000000000000000000000000000000000000000000000000000000007bffffffffffffffffffffffffffffffffffffffffffffffffffffffff1916827bffffffffffffffffffffffffffffffffffffffffffffffffffffffff1916145b806105625750610561826115c0565b5b9050919050565b6060600080546105789061303e565b80601f01602080910402602001604051908101604052809291908181526020018280546105a49061303e565b80156105f15780601f106105c6576101008083540402835291602001916105f1565b820191906000526020600020905b8154815290600101906020018083116105d457829003601f168201915b5050505050905090565b60006106068261162a565b610645576040517f08c379a000000000000000000000000000000000000000000000000000000000815260040161063c90612d15565b60405180910390fd5b6004600083815260200190815260200160002060009054906101000a900473ffffffffffffffffffffffffffffffffffffffff169050919050565b600061068b82610ec1565b90508073ffffffffffffffffffffffffffffffffffffffff168373ffffffffffffffffffffffffffffffffffffffff1614156106fc576040517f08c379a00000000000000000000000000000000000000000000000000000000081526004016106f390612d55565b60405180910390fd5b8073ffffffffffffffffffffffffffffffffffffffff1661071b611696565b73ffffffffffffffffffffffffffffffffffffffff16148061074a575061074981610744611696565b6111e2565b5b610789576040517f08c379a000000000000000000000000000000000000000000000000000000000815260040161078090612c95565b60405180910390fd5b610793838361169e565b505050565b6107a96107a3611696565b82611757565b6107e8576040517f08c379a00000000000000000000000000000000000000000000000000000000081526004016107df90612d95565b60405180910390fd5b6107f3838383611835565b505050565b3373ffffffffffffffffffffffffffffffffffffffff166108fc60086000848152602001908152602001600020600001549081150290604051600060405180830381858888f19350505050158015610854573d6000803e3d6000fd5b50610896336008600084815260200190815260200160002060010160009054906101000a900473ffffffffffffffffffffffffffffffffffffffff1683610b72565b60005b6008600083815260200190815260200160002060030180549050811015610b3f576008600083815260200190815260200160002060010160009054906101000a900473ffffffffffffffffffffffffffffffffffffffff1673ffffffffffffffffffffffffffffffffffffffff16600860008481526020019081526020016000206003018281548110610955577f4e487b7100000000000000000000000000000000000000000000000000000000600052603260045260246000fd5b9060005260206000200160009054906101000a900473ffffffffffffffffffffffffffffffffffffffff1673ffffffffffffffffffffffffffffffffffffffff1614156109a157610b2c565b6008600083815260200190815260200160002060030181815481106109ef577f4e487b7100000000000000000000000000000000000000000000000000000000600052603260045260246000fd5b9060005260206000200160009054906101000a900473ffffffffffffffffffffffffffffffffffffffff1673ffffffffffffffffffffffffffffffffffffffff166108fc600860008581526020019081526020016000206002016000600860008781526020019081526020016000206003018581548110610a99577f4e487b7100000000000000000000000000000000000000000000000000000000600052603260045260246000fd5b9060005260206000200160009054906101000a900473ffffffffffffffffffffffffffffffffffffffff1673ffffffffffffffffffffffffffffffffffffffff1673ffffffffffffffffffffffffffffffffffffffff168152602001908152602001600020549081150290604051600060405180830381858888f19350505050158015610b2a573d6000803e3d6000fd5b505b8080610b37906130a1565b915050610899565b5060016006600083815260200190815260200160002060070160006101000a81548160ff02191690831515021790555050565b610b8d838383604051806020016040528060008152506110d9565b505050565b610b9b81610ec1565b73ffffffffffffffffffffffffffffffffffffffff163373ffffffffffffffffffffffffffffffffffffffff161415610bd357600080fd5b6008600082815260200190815260200160002060000154346008600084815260200190815260200160002060020160003373ffffffffffffffffffffffffffffffffffffffff1673ffffffffffffffffffffffffffffffffffffffff16815260200190815260200160002054610c499190612ecd565b11610c89576040517f08c379a0000000000000000000000000000000000000000000000000000000008152600401610c8090612d75565b60405180910390fd5b336008600083815260200190815260200160002060010160006101000a81548173ffffffffffffffffffffffffffffffffffffffff021916908373ffffffffffffffffffffffffffffffffffffffff16021790555060086000828152602001908152602001600020600301339080600181540180825580915050600190039060005260206000200160009091909190916101000a81548173ffffffffffffffffffffffffffffffffffffffff021916908373ffffffffffffffffffffffffffffffffffffffff160217905550346008600083815260200190815260200160002060020160003373ffffffffffffffffffffffffffffffffffffffff1673ffffffffffffffffffffffffffffffffffffffff16815260200190815260200160002054610db49190612ecd565b6008600083815260200190815260200160002060000181905550346008600083815260200190815260200160002060020160003373ffffffffffffffffffffffffffffffffffffffff1673ffffffffffffffffffffffffffffffffffffffff1681526020019081526020016000206000828254610e319190612ecd565b92505081905550807faba11c5dfdb797eb6f7328f5f70a9b390c19e34a3927e10f1925839d442c42936008600084815260200190815260200160002060010160009054906101000a900473ffffffffffffffffffffffffffffffffffffffff166008600085815260200190815260200160002060000154604051610eb6929190612b6f565b60405180910390a250565b6000806002600084815260200190815260200160002060009054906101000a900473ffffffffffffffffffffffffffffffffffffffff169050600073ffffffffffffffffffffffffffffffffffffffff168173ffffffffffffffffffffffffffffffffffffffff161415610f6a576040517f08c379a0000000000000000000000000000000000000000000000000000000008152600401610f6190612cd5565b60405180910390fd5b80915050919050565b60008073ffffffffffffffffffffffffffffffffffffffff168273ffffffffffffffffffffffffffffffffffffffff161415610fe4576040517f08c379a0000000000000000000000000000000000000000000000000000000008152600401610fdb90612cb5565b60405180910390fd5b600360008373ffffffffffffffffffffffffffffffffffffffff1673ffffffffffffffffffffffffffffffffffffffff168152602001908152602001600020549050919050565b60606001805461103a9061303e565b80601f01602080910402602001604051908101604052809291908181526020018280546110669061303e565b80156110b35780601f10611088576101008083540402835291602001916110b3565b820191906000526020600020905b81548152906001019060200180831161109657829003601f168201915b5050505050905090565b6110cf6110c8611696565b8383611a9c565b5050565b60075481565b6110ea6110e4611696565b83611757565b611129576040517f08c379a000000000000000000000000000000000000000000000000000000000815260040161112090612d95565b60405180910390fd5b61113584848484611c09565b50505050565b60606111468261162a565b611185576040517f08c379a000000000000000000000000000000000000000000000000000000000815260040161117c90612d35565b60405180910390fd5b600061118f611c65565b905060008151116111af57604051806020016040528060008152506111da565b806111b984611c7c565b6040516020016111ca929190612ae4565b6040516020818303038152906040525b915050919050565b6000600560008473ffffffffffffffffffffffffffffffffffffffff1673ffffffffffffffffffffffffffffffffffffffff16815260200190815260200160002060008373ffffffffffffffffffffffffffffffffffffffff1673ffffffffffffffffffffffffffffffffffffffff16815260200190815260200160002060009054906101000a900460ff16905092915050565b604051806101000160405280888152602001878152602001868152602001858152602001848152602001838152602001828152602001600015158152506006600060075481526020019081526020016000206000820151816000015560208201518160010190805190602001906112ee9291906121c7565b50604082015181600201908051906020019061130b9291906121c7565b5060608201518160030190805190602001906113289291906121c7565b506080820151816004015560a0820151816005015560c0820151816006015560e08201518160070160006101000a81548160ff02191690831515021790555090505061137633600754611e29565b6001600760008282546113899190612ecd565b9250508190555050505050505050565b6113a161224d565b6006600083815260200190815260200160002060405180610100016040529081600082015481526020016001820180546113da9061303e565b80601f01602080910402602001604051908101604052809291908181526020018280546114069061303e565b80156114535780601f1061142857610100808354040283529160200191611453565b820191906000526020600020905b81548152906001019060200180831161143657829003601f168201915b5050505050815260200160028201805461146c9061303e565b80601f01602080910402602001604051908101604052809291908181526020018280546114989061303e565b80156114e55780601f106114ba576101008083540402835291602001916114e5565b820191906000526020600020905b8154815290600101906020018083116114c857829003601f168201915b505050505081526020016003820180546114fe9061303e565b80601f016020809104026020016040519081016040528092919081815260200182805461152a9061303e565b80156115775780601f1061154c57610100808354040283529160200191611577565b820191906000526020600020905b81548152906001019060200180831161155a57829003601f168201915b505050505081526020016004820154815260200160058201548152602001600682015481526020016007820160009054906101000a900460ff1615151515815250509050919050565b60007f01ffc9a7000000000000000000000000000000000000000000000000000000007bffffffffffffffffffffffffffffffffffffffffffffffffffffffff1916827bffffffffffffffffffffffffffffffffffffffffffffffffffffffff1916149050919050565b60008073ffffffffffffffffffffffffffffffffffffffff166002600084815260200190815260200160002060009054906101000a900473ffffffffffffffffffffffffffffffffffffffff1673ffffffffffffffffffffffffffffffffffffffff1614159050919050565b600033905090565b816004600083815260200190815260200160002060006101000a81548173ffffffffffffffffffffffffffffffffffffffff021916908373ffffffffffffffffffffffffffffffffffffffff160217905550808273ffffffffffffffffffffffffffffffffffffffff1661171183610ec1565b73ffffffffffffffffffffffffffffffffffffffff167f8c5be1e5ebec7d5bd14f71427d1e84f3dd0314c0f7b2291e5b200ac8c7c3b92560405160405180910390a45050565b60006117628261162a565b6117a1576040517f08c379a000000000000000000000000000000000000000000000000000000000815260040161179890612c75565b60405180910390fd5b60006117ac83610ec1565b90508073ffffffffffffffffffffffffffffffffffffffff168473ffffffffffffffffffffffffffffffffffffffff16148061181b57508373ffffffffffffffffffffffffffffffffffffffff16611803846105fb565b73ffffffffffffffffffffffffffffffffffffffff16145b8061182c575061182b81856111e2565b5b91505092915050565b8273ffffffffffffffffffffffffffffffffffffffff1661185582610ec1565b73ffffffffffffffffffffffffffffffffffffffff16146118ab576040517f08c379a00000000000000000000000000000000000000000000000000000000081526004016118a290612bf5565b60405180910390fd5b600073ffffffffffffffffffffffffffffffffffffffff168273ffffffffffffffffffffffffffffffffffffffff16141561191b576040517f08c379a000000000000000000000000000000000000000000000000000000000815260040161191290612c35565b60405180910390fd5b611926838383612003565b61193160008261169e565b6001600360008573ffffffffffffffffffffffffffffffffffffffff1673ffffffffffffffffffffffffffffffffffffffff16815260200190815260200160002060008282546119819190612f54565b925050819055506001600360008473ffffffffffffffffffffffffffffffffffffffff1673ffffffffffffffffffffffffffffffffffffffff16815260200190815260200160002060008282546119d89190612ecd565b92505081905550816002600083815260200190815260200160002060006101000a81548173ffffffffffffffffffffffffffffffffffffffff021916908373ffffffffffffffffffffffffffffffffffffffff160217905550808273ffffffffffffffffffffffffffffffffffffffff168473ffffffffffffffffffffffffffffffffffffffff167fddf252ad1be2c89b69c2b068fc378daa952ba7f163c4a11628f55a4df523b3ef60405160405180910390a4611a97838383612008565b505050565b8173ffffffffffffffffffffffffffffffffffffffff168373ffffffffffffffffffffffffffffffffffffffff161415611b0b576040517f08c379a0000000000000000000000000000000000000000000000000000000008152600401611b0290612c55565b60405180910390fd5b80600560008573ffffffffffffffffffffffffffffffffffffffff1673ffffffffffffffffffffffffffffffffffffffff16815260200190815260200160002060008473ffffffffffffffffffffffffffffffffffffffff1673ffffffffffffffffffffffffffffffffffffffff16815260200190815260200160002060006101000a81548160ff0219169083151502179055508173ffffffffffffffffffffffffffffffffffffffff168373ffffffffffffffffffffffffffffffffffffffff167f17307eab39ab6107e8899845ad3d59bd9653f200f220920489ca2b5937696c3183604051611bfc9190612b98565b60405180910390a3505050565b611c14848484611835565b611c208484848461200d565b611c5f576040517f08c379a0000000000000000000000000000000000000000000000000000000008152600401611c5690612bd5565b60405180910390fd5b50505050565b606060405180602001604052806000815250905090565b60606000821415611cc4576040518060400160405280600181526020017f30000000000000000000000000000000000000000000000000000000000000008152509050611e24565b600082905060005b60008214611cf6578080611cdf906130a1565b915050600a82611cef9190612f23565b9150611ccc565b60008167ffffffffffffffff811115611d38577f4e487b7100000000000000000000000000000000000000000000000000000000600052604160045260246000fd5b6040519080825280601f01601f191660200182016040528015611d6a5781602001600182028036833780820191505090505b5090505b60008514611e1d57600182611d839190612f54565b9150600a85611d9291906130ea565b6030611d9e9190612ecd565b60f81b818381518110611dda577f4e487b7100000000000000000000000000000000000000000000000000000000600052603260045260246000fd5b60200101907effffffffffffffffffffffffffffffffffffffffffffffffffffffffffffff1916908160001a905350600a85611e169190612f23565b9450611d6e565b8093505050505b919050565b600073ffffffffffffffffffffffffffffffffffffffff168273ffffffffffffffffffffffffffffffffffffffff161415611e99576040517f08c379a0000000000000000000000000000000000000000000000000000000008152600401611e9090612cf5565b60405180910390fd5b611ea28161162a565b15611ee2576040517f08c379a0000000000000000000000000000000000000000000000000000000008152600401611ed990612c15565b60405180910390fd5b611eee60008383612003565b6001600360008473ffffffffffffffffffffffffffffffffffffffff1673ffffffffffffffffffffffffffffffffffffffff1681526020019081526020016000206000828254611f3e9190612ecd565b92505081905550816002600083815260200190815260200160002060006101000a81548173ffffffffffffffffffffffffffffffffffffffff021916908373ffffffffffffffffffffffffffffffffffffffff160217905550808273ffffffffffffffffffffffffffffffffffffffff16600073ffffffffffffffffffffffffffffffffffffffff167fddf252ad1be2c89b69c2b068fc378daa952ba7f163c4a11628f55a4df523b3ef60405160405180910390a4611fff60008383612008565b5050565b505050565b505050565b600061202e8473ffffffffffffffffffffffffffffffffffffffff166121a4565b15612197578373ffffffffffffffffffffffffffffffffffffffff1663150b7a02612057611696565b8786866040518563ffffffff1660e01b81526004016120799493929190612b23565b602060405180830381600087803b15801561209357600080fd5b505af19250505080156120c457506040513d601f19601f820116820180604052508101906120c191906125ba565b60015b612147573d80600081146120f4576040519150601f19603f3d011682016040523d82523d6000602084013e6120f9565b606091505b5060008151141561213f576040517f08c379a000000000000000000000000000000000000000000000000000000000815260040161213690612bd5565b60405180910390fd5b805181602001fd5b63150b7a0260e01b7bffffffffffffffffffffffffffffffffffffffffffffffffffffffff1916817bffffffffffffffffffffffffffffffffffffffffffffffffffffffff19161491505061219c565b600190505b949350505050565b6000808273ffffffffffffffffffffffffffffffffffffffff163b119050919050565b8280546121d39061303e565b90600052602060002090601f0160209004810192826121f5576000855561223c565b82601f1061220e57805160ff191683800117855561223c565b8280016001018555821561223c579182015b8281111561223b578251825591602001919060010190612220565b5b5090506122499190612294565b5090565b604051806101000160405280600081526020016060815260200160608152602001606081526020016000815260200160008152602001600081526020016000151581525090565b5b808211156122ad576000816000905550600101612295565b5090565b60006122c46122bf84612e17565b612df2565b9050828152602081018484840111156122dc57600080fd5b6122e7848285612ffc565b509392505050565b60006123026122fd84612e48565b612df2565b90508281526020810184848401111561231a57600080fd5b612325848285612ffc565b509392505050565b60008135905061233c816135f1565b92915050565b60008135905061235181613608565b92915050565b6000813590506123668161361f565b92915050565b60008151905061237b8161361f565b92915050565b600082601f83011261239257600080fd5b81356123a28482602086016122b1565b91505092915050565b600082601f8301126123bc57600080fd5b81356123cc8482602086016122ef565b91505092915050565b6000813590506123e481613636565b92915050565b6000602082840312156123fc57600080fd5b600061240a8482850161232d565b91505092915050565b6000806040838503121561242657600080fd5b60006124348582860161232d565b92505060206124458582860161232d565b9150509250929050565b60008060006060848603121561246457600080fd5b60006124728682870161232d565b93505060206124838682870161232d565b9250506040612494868287016123d5565b9150509250925092565b600080600080608085870312156124b457600080fd5b60006124c28782880161232d565b94505060206124d38782880161232d565b93505060406124e4878288016123d5565b925050606085013567ffffffffffffffff81111561250157600080fd5b61250d87828801612381565b91505092959194509250565b6000806040838503121561252c57600080fd5b600061253a8582860161232d565b925050602061254b85828601612342565b9150509250929050565b6000806040838503121561256857600080fd5b60006125768582860161232d565b9250506020612587858286016123d5565b9150509250929050565b6000602082840312156125a357600080fd5b60006125b184828501612357565b91505092915050565b6000602082840312156125cc57600080fd5b60006125da8482850161236c565b91505092915050565b6000602082840312156125f557600080fd5b6000612603848285016123d5565b91505092915050565b600080600080600080600060e0888a03121561262757600080fd5b60006126358a828b016123d5565b975050602088013567ffffffffffffffff81111561265257600080fd5b61265e8a828b016123ab565b965050604088013567ffffffffffffffff81111561267b57600080fd5b6126878a828b016123ab565b955050606088013567ffffffffffffffff8111156126a457600080fd5b6126b08a828b016123ab565b94505060806126c18a828b016123d5565b93505060a06126d28a828b016123d5565b92505060c06126e38a828b016123d5565b91505092959891949750929550565b6126fb81612f88565b82525050565b61270a81612f9a565b82525050565b61271981612f9a565b82525050565b600061272a82612e79565b6127348185612e8f565b935061274481856020860161300b565b61274d816131d7565b840191505092915050565b600061276382612e84565b61276d8185612ea0565b935061277d81856020860161300b565b612786816131d7565b840191505092915050565b600061279c82612e84565b6127a68185612eb1565b93506127b681856020860161300b565b6127bf816131d7565b840191505092915050565b60006127d582612e84565b6127df8185612ec2565b93506127ef81856020860161300b565b80840191505092915050565b6000612808603283612eb1565b9150612813826131e8565b604082019050919050565b600061282b602583612eb1565b915061283682613237565b604082019050919050565b600061284e601c83612eb1565b915061285982613286565b602082019050919050565b6000612871602483612eb1565b915061287c826132af565b604082019050919050565b6000612894601983612eb1565b915061289f826132fe565b602082019050919050565b60006128b7602c83612eb1565b91506128c282613327565b604082019050919050565b60006128da603883612eb1565b91506128e582613376565b604082019050919050565b60006128fd602a83612eb1565b9150612908826133c5565b604082019050919050565b6000612920602983612eb1565b915061292b82613414565b604082019050919050565b6000612943602083612eb1565b915061294e82613463565b602082019050919050565b6000612966602c83612eb1565b91506129718261348c565b604082019050919050565b6000612989602f83612eb1565b9150612994826134db565b604082019050919050565b60006129ac602183612eb1565b91506129b78261352a565b604082019050919050565b60006129cf601d83612eb1565b91506129da82613579565b602082019050919050565b60006129f2603183612eb1565b91506129fd826135a2565b604082019050919050565b600061010083016000830151612a216000860182612ac6565b5060208301518482036020860152612a398282612758565b91505060408301518482036040860152612a538282612758565b91505060608301518482036060860152612a6d8282612758565b9150506080830151612a826080860182612ac6565b5060a0830151612a9560a0860182612ac6565b5060c0830151612aa860c0860182612ac6565b5060e0830151612abb60e0860182612701565b508091505092915050565b612acf81612ff2565b82525050565b612ade81612ff2565b82525050565b6000612af082856127ca565b9150612afc82846127ca565b91508190509392505050565b6000602082019050612b1d60008301846126f2565b92915050565b6000608082019050612b3860008301876126f2565b612b4560208301866126f2565b612b526040830185612ad5565b8181036060830152612b64818461271f565b905095945050505050565b6000604082019050612b8460008301856126f2565b612b916020830184612ad5565b9392505050565b6000602082019050612bad6000830184612710565b92915050565b60006020820190508181036000830152612bcd8184612791565b905092915050565b60006020820190508181036000830152612bee816127fb565b9050919050565b60006020820190508181036000830152612c0e8161281e565b9050919050565b60006020820190508181036000830152612c2e81612841565b9050919050565b60006020820190508181036000830152612c4e81612864565b9050919050565b60006020820190508181036000830152612c6e81612887565b9050919050565b60006020820190508181036000830152612c8e816128aa565b9050919050565b60006020820190508181036000830152612cae816128cd565b9050919050565b60006020820190508181036000830152612cce816128f0565b9050919050565b60006020820190508181036000830152612cee81612913565b9050919050565b60006020820190508181036000830152612d0e81612936565b9050919050565b60006020820190508181036000830152612d2e81612959565b9050919050565b60006020820190508181036000830152612d4e8161297c565b9050919050565b60006020820190508181036000830152612d6e8161299f565b9050919050565b60006020820190508181036000830152612d8e816129c2565b9050919050565b60006020820190508181036000830152612dae816129e5565b9050919050565b60006020820190508181036000830152612dcf8184612a08565b905092915050565b6000602082019050612dec6000830184612ad5565b92915050565b6000612dfc612e0d565b9050612e088282613070565b919050565b6000604051905090565b600067ffffffffffffffff821115612e3257612e316131a8565b5b612e3b826131d7565b9050602081019050919050565b600067ffffffffffffffff821115612e6357612e626131a8565b5b612e6c826131d7565b9050602081019050919050565b600081519050919050565b600081519050919050565b600082825260208201905092915050565b600082825260208201905092915050565b600082825260208201905092915050565b600081905092915050565b6000612ed882612ff2565b9150612ee383612ff2565b9250827fffffffffffffffffffffffffffffffffffffffffffffffffffffffffffffffff03821115612f1857612f1761311b565b5b828201905092915050565b6000612f2e82612ff2565b9150612f3983612ff2565b925082612f4957612f4861314a565b5b828204905092915050565b6000612f5f82612ff2565b9150612f6a83612ff2565b925082821015612f7d57612f7c61311b565b5b828203905092915050565b6000612f9382612fd2565b9050919050565b60008115159050919050565b60007fffffffff0000000000000000000000000000000000000000000000000000000082169050919050565b600073ffffffffffffffffffffffffffffffffffffffff82169050919050565b6000819050919050565b82818337600083830152505050565b60005b8381101561302957808201518184015260208101905061300e565b83811115613038576000848401525b50505050565b6000600282049050600182168061305657607f821691505b6020821081141561306a57613069613179565b5b50919050565b613079826131d7565b810181811067ffffffffffffffff82111715613098576130976131a8565b5b80604052505050565b60006130ac82612ff2565b91507fffffffffffffffffffffffffffffffffffffffffffffffffffffffffffffffff8214156130df576130de61311b565b5b600182019050919050565b60006130f582612ff2565b915061310083612ff2565b9250826131105761310f61314a565b5b828206905092915050565b7f4e487b7100000000000000000000000000000000000000000000000000000000600052601160045260246000fd5b7f4e487b7100000000000000000000000000000000000000000000000000000000600052601260045260246000fd5b7f4e487b7100000000000000000000000000000000000000000000000000000000600052602260045260246000fd5b7f4e487b7100000000000000000000000000000000000000000000000000000000600052604160045260246000fd5b6000601f19601f8301169050919050565b7f4552433732313a207472616e7366657220746f206e6f6e20455243373231526560008201527f63656976657220696d706c656d656e7465720000000000000000000000000000602082015250565b7f4552433732313a207472616e736665722066726f6d20696e636f72726563742060008201527f6f776e6572000000000000000000000000000000000000000000000000000000602082015250565b7f4552433732313a20746f6b656e20616c7265616479206d696e74656400000000600082015250565b7f4552433732313a207472616e7366657220746f20746865207a65726f2061646460008201527f7265737300000000000000000000000000000000000000000000000000000000602082015250565b7f4552433732313a20617070726f766520746f2063616c6c657200000000000000600082015250565b7f4552433732313a206f70657261746f7220717565727920666f72206e6f6e657860008201527f697374656e7420746f6b656e0000000000000000000000000000000000000000602082015250565b7f4552433732313a20617070726f76652063616c6c6572206973206e6f74206f7760008201527f6e6572206e6f7220617070726f76656420666f7220616c6c0000000000000000602082015250565b7f4552433732313a2062616c616e636520717565727920666f7220746865207a6560008201527f726f206164647265737300000000000000000000000000000000000000000000602082015250565b7f4552433732313a206f776e657220717565727920666f72206e6f6e657869737460008201527f656e7420746f6b656e0000000000000000000000000000000000000000000000602082015250565b7f4552433732313a206d696e7420746f20746865207a65726f2061646472657373600082015250565b7f4552433732313a20617070726f76656420717565727920666f72206e6f6e657860008201527f697374656e7420746f6b656e0000000000000000000000000000000000000000602082015250565b7f4552433732314d657461646174613a2055524920717565727920666f72206e6f60008201527f6e6578697374656e7420746f6b656e0000000000000000000000000000000000602082015250565b7f4552433732313a20617070726f76616c20746f2063757272656e74206f776e6560008201527f7200000000000000000000000000000000000000000000000000000000000000602082015250565b7f63616e742774206269642c206d616b6520612068696768657220426964000000600082015250565b7f4552433732313a207472616e736665722063616c6c6572206973206e6f74206f60008201527f776e6572206e6f7220617070726f766564000000000000000000000000000000602082015250565b6135fa81612f88565b811461360557600080fd5b50565b61361181612f9a565b811461361c57600080fd5b50565b61362881612fa6565b811461363357600080fd5b50565b61363f81612ff2565b811461364a57600080fd5b5056fea264697066735822122050b8167a334bbba7c9f53bde6faf29ee7f3a06adacf0414de50d180923e073aa64736f6c63430008010033",
  "immutableReferences": {},
  "source": "// SPDX-License-Identifier: MIT\r\n\r\npragma solidity ^0.8.1;\r\n\r\nimport \"./Land.sol\"; \r\n\r\ncontract LandSale is LandRegistration {\r\n    \r\n    struct BidDetail {\r\n        uint256 highestBid;\r\n        address highestBidder;\r\n        mapping(address => uint256) bids;\r\n        address[] bidders;\r\n    }\r\n\r\n    mapping(uint256 => BidDetail) BidDetails;\r\n    \r\n    function bid(uint256 landID) public payable {\r\n        require(msg.sender!=ownerOf(landID));\r\n        require(BidDetails[landID].bids[msg.sender] + msg.value > BidDetails[landID].highestBid, \"cant't bid, make a higher Bid\");\r\n        BidDetails[landID].highestBidder = msg.sender;\r\n        BidDetails[landID].bidders.push(msg.sender);\r\n        BidDetails[landID].highestBid = BidDetails[landID].bids[msg.sender] + msg.value;\r\n        BidDetails[landID].bids[msg.sender] += msg.value;\r\n        emit BidEvent(landID, BidDetails[landID].highestBidder, BidDetails[landID].highestBid);\r\n    }\r\n    \r\n    \r\n    function acceptBid(uint256 landID) public  {\r\n        payable(msg.sender).transfer(BidDetails[landID].highestBid);\r\n        safeTransferFrom(msg.sender, BidDetails[landID].highestBidder,landID);\r\n        for (uint256 i = 0; i < BidDetails[landID].bidders.length; i++) {\r\n            if (BidDetails[landID].bidders[i] == BidDetails[landID].highestBidder) {\r\n                continue;\r\n            }\r\n            payable(BidDetails[landID].bidders[i]).transfer(BidDetails[landID].bids[BidDetails[landID].bidders[i]]);\r\n        }\r\n        LandDetails[landID].salesStatus = true;\r\n    }\r\n    \r\n    fallback () external {\r\n        revert();\r\n    }\r\n    event BidEvent(uint256 indexed landID, address highestBidder, uint256 highestBid);\r\n\r\n\r\n}",
  "sourcePath": "D:\\Stack\\blockchain\\Ethereum\\Elab\\LandSale\\contracts\\LandSale.sol",
  "compiler": {
    "name": "solc",
    "version": "0.8.1+commit.df193b15.Emscripten.clang"
  },
  "schemaVersion": "3.4.5",
  "updatedAt": "2022-02-28T02:55:32.341Z",
  "networkType": "ethereum",
  "devdoc": {
    "kind": "dev",
    "methods": {
      "approve(address,uint256)": {
        "details": "See {IERC721-approve}."
      },
      "balanceOf(address)": {
        "details": "See {IERC721-balanceOf}."
      },
      "getApproved(uint256)": {
        "details": "See {IERC721-getApproved}."
      },
      "isApprovedForAll(address,address)": {
        "details": "See {IERC721-isApprovedForAll}."
      },
      "name()": {
        "details": "See {IERC721Metadata-name}."
      },
      "ownerOf(uint256)": {
        "details": "See {IERC721-ownerOf}."
      },
      "safeTransferFrom(address,address,uint256)": {
        "details": "See {IERC721-safeTransferFrom}."
      },
      "safeTransferFrom(address,address,uint256,bytes)": {
        "details": "See {IERC721-safeTransferFrom}."
      },
      "setApprovalForAll(address,bool)": {
        "details": "See {IERC721-setApprovalForAll}."
      },
      "supportsInterface(bytes4)": {
        "details": "See {IERC165-supportsInterface}."
      },
      "symbol()": {
        "details": "See {IERC721Metadata-symbol}."
      },
      "tokenURI(uint256)": {
        "details": "See {IERC721Metadata-tokenURI}."
      },
      "transferFrom(address,address,uint256)": {
        "details": "See {IERC721-transferFrom}."
      }
    },
    "version": 1
  },
  "userdoc": {
    "kind": "user",
    "methods": {},
    "version": 1
  }
}